S01800006275696C642F6D6963617A2F6D61696E2E73726563E5
S11300000C946B000C943F070C9449070C94530711
S11300100C945D070C9467070C9471070C94610AA7
S11300200C947B070C948A000C948A000C9406139D
S11300300C94C8200C9409070C941F070C94F70720
S11300400C94F8060C94CF160C948A000C948A0035
S11300500C948A000C9485070C948A000C948A00F2
S11300600C9414070C948A000C948A000C948A0053
S11300700C948A000C948A000C948A000C948A00D4
S11300800C948A000C943E0E0C948A006017AE17F0
S1130090B417091825182C1864182119441958196B
S11300A02D1B601BB81BCA1BD91BEA1BED1BEF1BC6
S11300B0151C4E1D6E1D791D8A1D8C1D901D941DD1
S11300C0981DAA1DBB1D111E251E281E57175B1E39
S11300D000081C18141011241FBECFEFD0E1DEBF9E
S11300E0CDBF11E0A0E0B1E0EAEEF6E400E00BBF22
S11300F002C007900D92A831B107D9F712E0A8E128
S1130100B1E001C01D92A53DB107E1F70E94C51EF3
S11301100C9474230C9400008FB7F89499270895D5
S11301208FBF08958FB7F89499272BB332E0232714
S11301302BBB8FBF08958FB7F89499272BB334E066
S113014023272BBB8FBF0895FC0182819927582F49
S1130150442781819927482B592BCA01892F992734
S113016086958695837090708230910559F083301E
S1130170910559F0892B19F420E030E008C02CE9EE
S11301803FEF05C022E030E002C028E030E0CA01C1
S113019084E0989F812D992711248230910559F08C
S11301A08330910559F0892B19F480E090E008C060
S11301B08CE99FEF05C082E090E002C088E090E007
S11301C0280F391F2A5F3F4FCF01820F931F0895D5
S11301D0282F9FB7F894662349F0E82FFF27E95C9E
S11301E0FD4F8081882311F021E006C0E22FFF2714
S11301F0E95CFD4F608320E0892F99278FBF822F10
S113020099270895E82F8FB7F894282F332790E083
S1130210FF27E95CFD4F8081861709F491E02FBF29
S1130220892F99270895882311F06E9A08956E985E
S11302300895882311F06F9A08956F98089580E0C7
S11302400E941301BA9ABB98B99AB89A6C9A80E042
S11302500E9419016B986A9881E00E941301709AB8
S11302608DB18C7F8DB908950F931F93CF93DF9336
S1130270182F8FB7F894C82FDD270C2F61E080E08A
S11302800E94E800882321F0CFBF85E090E024C0DD
S1130290809105018823A1F480911E01823081F4AC
S11302A009C082E080931E01109205010E941F0183
S11302B0B89AC0981093020180E00FBF99270CC030
S11302C080911E01882369F38FB7F89499271092BF
S11302D037028FBF81E0F1CFDF91CF911F910F9152
S11302E00895282F9FB7F894E82FFF27E15AFE4F6F
S11302F080818F3F81F4E091D102E21771F40BC049
S11303002093BD0204C0FF27E15AFE4F20832093AF
S1130310D10220E007C025E005C08091BD028F3FD7
S113032091F7EECF892F99278FBF822F99270895B0
S11303301F93182F81E00E9413011FB9779BFECFF2
S11303408FB199271F9108958F929F92AF92BF9278
S1130350CF92DF92EF92FF920F931F93CF93DF938D
S11303608FB7F8949927C090CA02D090CB0280909E
S11303702D0290902E02C091EF01D091F0012091B6
S11303803F0130914001EAE0AE2EB12CAC0EBD1E0F
S11303902A153B0508F459018FBF7401EC0EFD1EAC
S11303A086010C0F1D1F14C0C114D10419F0F801EB
S11303B0808101C080E00E9498018114910411F0B1
S11303C0F701808321960894E11CF11C0F5F1F4FF5
S11303D0C5010197C817D90738F381E00E941901B4
S11303E09FB7F894C114D10431F0CC0EDD1EF60190
S11303F080818FB901C01FB8D093F001C093EF0181
S1130400892F99278FBF80E090E0DF91CF911F91D2
S11304100F91FF90EF90DF90CF90BF90AF909F909F
S11304208F9008952FB7F894332750934001409349
S11304303F019093CB028093CA0270932E02609383
S11304402D021092F0011092EF012FBF452B29F0DD
S11304508FB10E94A4019927089587E00E94710139
S113046080E090E008958FB7F894992710923902AC
S11304708FBF08958FB7F894992720917400209323
S11304802F028FBF0895EF920F931F93AE2D99E023
S1130490899FF0011124E950FE4F40835183628308
S11304A073830483158326833783A17080858E7FAD
S11304B08A2B826080878BE00E9471011F910F91CB
S11304C0EF9008957FB7F89462B72091430130917B
S11304D04401409145015091460106B601FE0FC00A
S11304E081B792B7280F311D411D511D2F5F3F4F1A
S11304F04F4F5F4F290F311D411D511D04C0260F61
S1130500311D411D511D872F99278FBFCA01B90184
S11305100895AF92BF92CF92DF92EF92FF920F9322
S11305201F93F82E5A016B010E946202AB01BC01B9
S1130530F1E0EF2E960185018F2D0E9443021F9159
S11305400F91FF90EF90DF90CF90BF90AF90089500
S1130550982F969596959695EDE5F1E0E90FF11DA6
S1130560877021E030E002C0220F331F8A95E2F742
S113057080818223992708950F931F93CF93DF934C
S1130580182F8FB7F894282F3327022F80912A0130
S1130590882341F581E080932A011093CB012FBF7A
S11305A08FB7F8949927379A8FBF8FB7F894C82FCD
S11305B0DD272C2F90910D019330C1F480912A01F5
S11305C0813021F481E10E94710108C0823071F40C
S11305D08091CB0180930D0190932A01CFBF80E0DD
S11305E090E023C08091CB01811711F42FBFF7CF86
S11305F0812F0E94A802882319F085E090E014C09E
S1130600E12FE695E695E695FF27E35AFE4F17702E
S113061081E090E002C0880F991F1A95E2F72081CB
S1130620282B208380E090E00FBFDF91CF911F91B2
S11306300F9108950E943A0280912F028E7F806963
S113064080932F02809374000895982F9695969521
S11306509695E8E8F1E0E90FF11D877021E030E0BC
S113066002C0220F331F8A95E2F7808182239927E3
S113067008950F931F93CF93DF93182F8FB7F89498
S1130680282F3327022F80912C01882331F581E014
S113069080932C01109383012FBF8FB7F894C82F38
S11306A0DD279C2F80910E018230A9F480912C01CA
S11306B0813021F483E10E94710109C0823059F430
S11306C08091830180930E0183E080932C01CFBF3E
S11306D080E090E025C09FBFFBCF8091830181170C
S11306E011F42FBFF5CF812F0E942503882319F021
S11306F085E090E014C0E12FE695E695E695FF27A6
S1130700E857FE4F177081E090E002C0880F991FF0
S11307101A95E2F72081282B208380E090E00FBF18
S1130720DF91CF911F910F910895982F96959695EB
S11307309695EDECF2E0E90FF11D877021E030E0D1
S113074002C0220F331F8A95E2F780818223992702
S113075008959FB7F894292F3327422F90910E01C3
S1130760981741F480912C01833021F42FBF81E04C
S113077090E008954FBF80E090E00895982F9695FB
S113078096959695E3E6F2E0E90FF11D877021E076
S113079030E002C0220F331F8A95E2F78081822362
S11307A099270895982F969596959695E6EFF1E0FA
S11307B0E90FF11D877021E030E002C0220F331FE2
S11307C08A95E2F780818223992708958091C00257
S11307D0813031F0813030F0823031F478E014C06F
S11307E078E00FC078E00AC0813051F0813028F001
S11307F0823049F02FE170E008C070E023E005C0CA
S113080070E021E002C070E022E0622FEFB7F894BC
S1130810809187018E7F8093870187B1982F9F7184
S1130820829586958695837019F080E090E012C0D9
S1130830822F8850863118F081E090E00BC040E0B0
S113084050E03327892F99272817390711F441E0FD
S113085050E0CA01982F9170990F80918701817897
S1130860262F2F71422F440F440F892B842B809302
S11308708701332727B9783059F58091BE029091CA
S1130880BF0221E08638920718F087E090E01FC08D
S1130890833C910518F086E090E019C081369105FB
S11308A018F085E090E013C08033910518F084E0DF
S11308B090E00DC08831910518F083E090E007C006
S11308C00C9718F082E090E002C080E090E0782F6E
S11308D07770887D872B886D992786B98E2F992705
S11308E08FBF0895DF92EF92FF920F931F938FB7FC
S11308F0F894282F3327D22E91B782B746B798178A
S113090011F041FF02C02FBF6AC08091EE0188231D
S1130910E1F10E946202E0903302F090340200910F
S113092035021091360220915801309159014091BD
S11309305A0150915B016E197F09800B910B62176C
S113094073078407950720F01092EE0171E01EC032
S11309502E0D3F1D401F511F809143019091440172
S1130960A0914501B0914601281B390B4A0B5B0B42
S1130970273E31054105510540F4822F223010F005
S113098070E005C070E082E002C070E086EE682F7F
S1130990615000B601FCFDCF82B7681709F46F5FA0
S11309A02091430130914401409145015091460109
S11309B0DA01C9010196A11DB11D860F911DA11D6A
S11309C0B11D82179307A407B50710F4622F609531
S11309D061BFDFBE772319F08AE00E9471011F9185
S11309E00F91FF90EF90DF900895AFB7F894BB2775
S11309F0E1E0E093EE01609333027093340280935C
S1130A003502909336022093580130935901409354
S1130A105A0150935B01AFBF0E9472040895AF92D4
S1130A20BF92CF92DF92EF920F931F93A0903E025A
S1130A30BB24BA2CAA2480913F029927A82AB92A58
S1130A40CC24DD240E946202AB01BC01EE24960199
S1130A50850182E00E9443021092D1011092D402D7
S1130A601092C5021092C4021092480110924701DC
S1130A70109252021F910F91EF90DF90CF90BF9090
S1130A80AF90089580E880935C011092C7011092A2
S1130A90C1021092BC0210928C010895CF93DF938F
S1130AA0FC0115A6DC019E96ED011B821A821982B7
S1130AB080E886A7DF91CF9108952F923F924F92BD
S1130AC05F926F927F928F929F92AF92BF92CF92DA
S1130AD0DF92EF92FF920F931F93CF93DF93CDB7E3
S1130AE0DEB728970FB6F894DEBF0FBECDBF2090B7
S1130AF0D2013090D3014090D4015090D5016624A6
S1130B00772488240EE4A02E13E8B12ECC24DD240F
S1130B10EE24FF2400E010E0222D332D442D552D2A
S1130B20662D772D882D90E00E94562129833A83E3
S1130B304B835C836D837E838F839887822E932E71
S1130B40A42EB52E2401350100E20E945422A22EC7
S1130B50B32EC42ED52EC301B201969587957795F1
S1130B6067956A0D7B1D8C1D9D1D97FF05C09F77A2
S1130B706F5F7F4F8F4F9F4F6093D2017093D3016C
S1130B808093D4019093D50128960FB6F894DEBFD4
S1130B900FBECDBFDF91CF911F910F91FF90EF90CA
S1130BA0DF90CF90BF90AF909F908F907F906F9089
S1130BB05F904F903F902F9008958FB7F894609175
S1130BC0F3017091F4012CB53DB506B602FE04C0E4
S1130BD06F5F7F4F2CB53DB599278FBF8827992725
S1130BE0CB017727662744275527622B732B842B49
S1130BF0952B0895EF92FF920F931F930E94DD05AA
S1130C007B018C012091DC013091DD014091DE01FA
S1130C105091DF018091D7019091D801A091D90121
S1130C20B091DA01820F931FA41FB51FE216F306D9
S1130C300407150730F082179307A407B50758F087
S1130C4005C082179307A407B507E0F5E816F9066F
S1130C500A071B07B8F59C01AD012E193F09400B8B
S1130C60510B213060E8360760E0460760E0560724
S1130C7068F180E090E8A0E0B0E0E80EF91E0A1FF9
S1130C801B1FE092DC01F092DD010093DE01109362
S1130C90DF0180E090E8AFEFBFEFE80EF91E0A1F16
S1130CA01B1F20503048404050402093D7013093C0
S1130CB0D8014093D9015093DA0120E030E840E0B4
S1130CC050E014C020E030E040E050E08093DC01CC
S1130CD09093DD01A093DE01B093DF011092D70160
S1130CE01092D8011092D9011092DA01A901B7012A
S1130CF02CB53DB5C9018E199F0903968417950734
S1130D0020F0B9016D5F7F4F02C0640F751F61153C
S1130D10710511F461E070E0615070407BBD6ABD03
S1130D2080E186BF87B7806187BF1F910F91FF90D5
S1130D30EF9008950F931F930FB7F89411276093C2
S1130D40DC017093DD018093DE019093DF01209339
S1130D50D7013093D8014093D9015093DA010E940E
S1130D60FA050FBF1F910F91089597B79F7D97BF05
S1130D7090E296BF882319F08EB5806402C08EB5C8
S1130D808F7B8EBD87B7806287BF80E090E0089537
S1130D90AF92BF92CF92DF92EF92FF920F931F9385
S1130DA0CF93DF93CDB7DEB728970FB6F894DEBFA5
S1130DB00FBECDBF20E070E0E0910001F091010191
S1130DC032E14DE65CE46FE4809101019E2F2896A8
S1130DD00FB6F894DEBF0FBECDBFDF91CF911F9148
S1130DE00F91FF90EF90DF90CF90BF90AF90089558
S1130DF01F920F920FB60F9211248F9383B783BF64
S1130E0000B600FCFDCF8F910F900FBE0F901F9086
S1130E10189578941F920F920FB60F9211240F9089
S1130E200FBE0F901F90189578941F920F920FB6D3
S1130E300F9211240F900FBE0F901F901895789465
S1130E401F920F920FB60F9211242F933F938F93FB
S1130E509F932FB7F89433278091F3019091F40175
S1130E6001969093F4018093F3012FBF9F918F918A
S1130E703F912F910F900FBE0F901F9018951F92C6
S1130E800F920FB60F9211240F900FBE0F901F9068
S1130E9018951F920F920FB60F9211240F900FBE48
S1130EA00F901F9018951F920F920FB60F92112456
S1130EB00F900FBE0F901F9018951F920F920FB6B0
S1130EC00F9211240F900FBE0F901F9018951F9230
S1130ED00F920FB60F9211240F900FBE0F901F9018
S1130EE018951F920F920FB60F9211240F900FBEF8
S1130EF00F901F9018951F920F920FB60F92112406
S1130F000F900FBE0F901F9018951F920F920FB65F
S1130F100F9211242F933F934F935F936F937F937B
S1130F208F939F93AF93BF93EF93FF9344B155B1C6
S1130F3078948FB7F894992720918701322F3695AA
S1130F40317021708FBF2223D9F433988091E90145
S1130F50813021F0823009F039C00AC0332351F0C6
S1130F60509331024093300282E10E9471012EC0FD
S1130F70332319F40E94E60329C01092E90126C024
S1130F808FB7F89499278FBF2FB7F894332786B17A
S1130F90582F5770482F4072987D942B952B80744E
S1130FA0977B982B90619F77892F992786B9887DA5
S1130FB0842B852B87738061992786B9887D842B40
S1130FC0852B877B8069992786B92FBFFF91EF9185
S1130FD0BF91AF919F918F917F916F915F914F914D
S1130FE03F912F910F900FBE0F901F9018951F9255
S1130FF00F920FB60F9211242F933F934F935F9349
S11310006F937F938F939F93AF93BF93EF93FF93CC
S113101083B783BF00B600FCFDCF81B79927019643
S1131020AA27BB27209143013091440140914501F7
S113103050914601280F391F4A1F5B1F209343011B
S113104030934401409345015093460178940E94A3
S11310507204FF91EF91BF91AF919F918F917F9116
S11310606F915F914F913F912F910F900FBE0F9011
S11310701F901895EF92FF920F931F93CF93DF93D6
S1131080982F8FB7F894E82E80912A01833009F0C5
S113109045C080910D01891709F040C080915D0120
S11310A0882309F046C03EC0EF2DE695E695E69507
S11310B0FF274F2D5527E35AFE4F9A0127703070B2
S11310C081E090E002C0880F991F2A95E2F780958D
S11310D0208128232083C093290111C02196C33085
S11310E0D10511F4C0E0D0E0FC2E8C2F0E94A802A0
S11310F08823D1F6C017D10789F74FEF50E040930A
S1131100CB018FEF80930D0181E080932A0181E16F
S11311100E947101EFBE80E090E011C0EFBE81E05B
S113112090E00DC083E080930D0110922A0137985E
S1131130F1CF80912901082F1127E801CFCFDF914A
S1131140CF911F910F91FF90EF900895982F809168
S11311503501833009F047C080911301891709F0E4
S113116042C08091110120E030E08F3F11F421E072
S113117030E0232BF9F48F3F19F42FEF30E00EC049
S1131180282F3327F901EE53FD4F808180931101FD
S11311908F3F11F4809312018FEF808320933E01DF
S11311A08FEF8093130181E0809335018CE10E94DD
S11311B0710116C081E08093130110923501809172
S11311C03601813069F40E943A0280912F028A76B6
S11311D080932F0280937400909891981092360116
S11311E080E090E0089581E090E008950E943A0242
S11311F080912F028A7F80932F02809374000E9433
S11312003A0280912F02846080932F0280937400AD
S113121081E08093360180913701882349F48091DD
S11312201401882329F40E941A0380E00E94A6086E
S11312300895EF92FF920F931F93CF93DF93982F0C
S11312408FB7F894E82E80912C01833009F045C0C3
S113125080910E01891709F040C08091880188238C
S113126009F045C03EC0EF2DE695E695E695FF27CB
S11312704F2D5527E857FE4F9A012770307081E0B3
S113128090E002C0880F991F2A95E2F7809520818B
S113129028232083C0932B0111C02196C230D1058D
S11312A011F4C0E0D0E0FC2E8C2F0E94250388238B
S11312B0D1F6C017D10789F74FEF50E0409383016F
S11312C08FEF80930E0181E080932C0183E10E94D3
S11312D07101EFBE80E090E010C0EFBE81E090E0CD
S11312E00CC082E080930E0110922C01F2CF809109
S11312F02B01082F1127E801D0CFDF91CF911F9147
S11313000F91FF90EF9008950F931F93182F0FB72D
S1131310F89461E080E00E94E800882371F510935E
S11313200201809105018823A9F580911E01823074
S113133089F586E00CC00E941F0180911E0188235C
S113134049F481E080931E0110928F0188E00E948D
S113135071012AC08091DB018F3F31F5E0910401D6
S1131360EE2311F11CC01092030104C0FF27E552C3
S1131370FE4F10821092040117C081E090E002C079
S1131380880F991F1A95E2F720911D01282B2093AD
S11313901D010AC080911E018823E1F6CCCF809103
S11313A003018F3F19F7DFCF802F99278FBF80E08C
S11313B090E01F910F9108951F9383E00E943401E0
S11313C09927182F882319F083E00E948409812F1C
S11313D099271F9108951F93CF93DF93182F8FB7E9
S11313E0F894C82FDD2760E080E00E940201882382
S11313F021F0CFBF80E090E005C0CFBF812F0E94D5
S113140098019927DF91CF911F910895EF92FF9250
S11314100F931F93CF93DF93182F7B01042F8FB764
S1131420F894C82FDD2760E080E00E940201882341
S113143021F0CFBF80E090E014C0CFBF1064812FB3
S113144099279093E5018093E4010E949801182F55
S1131450402F5527B70180E090E00E941202812FAF
S11314609927DF91CF911F910F91FF90EF900895ED
S1131470C09860913C0170913D0141E08FE30E946E
S1131480060A089582E090E090938201809381019E
S113149081E08093C70120E030E080910201843034
S11314A011F421E030E0232B29F484E00E9434017C
S11314B0882319F40E94380A089584E00E9484095C
S11314C008951F920F920FB60F9211242F933F93FA
S11314D04F935F936F937F938F939F93AF93BF9338
S11314E0EF93FF938091810190918201019749F4D8
S11314F082E090E090938201809381010E94420AED
S113150005C080918C018F5F80938C01FF91EF91D6
S1131510BF91AF919F918F917F916F915F914F9107
S11315203F912F910F900FBE0F901F9018951F930E
S113153080911D01882309F04BC0109102011F3FC7
S113154009F046C060E00E940201882309F440C00B
S113155081E080935F0280915E018823E1F1109223
S11315605F0285E090E045C0923069F5C09A8091B1
S1131570030120E030E08F3F11F421E030E0232B21
S1131580E9F4109305018F3F19F42FEF30E00DC0FB
S1131590282F3327F901E552FE4F80818093030100
S11315A08F3F11F410930401108320938F0181E085
S11315B080931E0188E00E94710105C0109305010B
S11315C010921E0111C080911E01882369F00FC082
S11315D081E090E00EC08091050190911E01882366
S11315E019F2923021F0EFCF80E00E94130180E0E5
S11315F090E01F9108951F93CF93DF939FB7F894C2
S1131600C92FDD271C2F90910201981721F0CFBF1D
S113161081E090E03AC08FEF8093020130911D0188
S11316203323F1F48FB7F8949927109237028FBFC0
S11316300E94970ACFBF11C02093020181E090E07D
S113164002C0880F991F4A95E2F78095382330939A
S11316501D0186E00E9471011FBF80E090E015C06B
S113166080E065E0E32FFF270E94D722292F492F2E
S11316705527CF01042E02C0959587950A94E2F769
S113168080FDDACF822F8F5FEFCFDF91CF911F9153
S113169008951F93CF93DF938FB7F894C82FDD2756
S11316A01C2F8091810190918201892B29F484E07F
S11316B00E94FB0ACFBF1EC01092C70180918C010B
S11316C0882311F0B79904C00E9908C0882319F033
S11316D0815080938C010E94420A0BC081E090E00B
S11316E0909382018093810110928C0184E00E9486
S11316F0FB0A1FBFDF91CF911F9108950E944205FD
S1131700C09AC09888E00E94EB0988E00E94EB0927
S1131710C09A84E00E94FB0A0E94490B0895FF923C
S11317200F931F93CF93DF93F82E8B018FB7F89409
S1131730C82FDD2760E080E00E940201882321F0A9
S1131740CFBF80E090E00CC0CFBF8F2D0E949801E6
S1131750812F99270E949801802F0E949801992730
S1131760DF91CF911F910F91FF9008951F931FB7A1
S1131770F89480918B01882319F460E070E009C02B
S113178060E08091C902882309F461E081E0682760
S113179077278091CC01882319F480E090E00AC077
S11317A090E080915402882309F491E081E0982725
S11317B0892F9927762F6627770F770F770FE4E025
S11317C0880F991FEA95E1F7826E9262682B792B54
S11317D081E10E948F0B812F99278FBF1F9108955C
S11317E08FB7F894992760915E028FBF85E0689F58
S11317F0B0011124625D7E4F706488E10E948F0BFA
S11318000895EF92FF921F93CF93DF93E090CD0161
S1131810F090CE01F70182A59927182F882309F4A7
S11318201FE1C09880918601811749F0612F7727C5
S11318306F717070606E706885E10E948F0B1093F9
S11318408601F70110818FB7F894C82FDD2760E077
S113185080E00E940201882311F0CFBF12C0CFBFE5
S11318608EE390E09093E5018093E4018EE30E947F
S113187098011150412F552760E070E0C7010E9484
S11318801202DF91CF911F91FF90EF9008950F9373
S11318901F93CF93DF93EC010FB7F89411270E94A5
S11318A0A400FC018FE380830FBF1092C702109243
S11318B0C60261E082E00E94E800882319F085E016
S11318C090E072C0809160028F5F809360028150CB
S11318D08B838FB7F894082F112762E081E00E9470
S11318E00201882329F40FBF0E94330281E05BC008
S11318F08FB7F894992724E0209338028FBFD093B0
S1131900ED01C093EC010FBFFE0131968181298165
S11319109927982F88273327822B932B80729C7CBE
S11319208983892F992781832981982F88273327B1
S11319302164822B932B8983892F992781831CA669
S113194018A619A619AA18AA1FA680E88EA761E0EE
S113195060933B024091EC015091ED018FB7F894F4
S1131960282F332780911F01909120018830910501
S113197011F0019711F02FBF15C082E090E0909311
S1131980200180931F016093D2025093CE014093B3
S1131990CD01109241012FBF0E94DC09882311F46C
S11319A00E94010C80E09927DF91CF911F910F9144
S11319B00895CF93DF93DA01422F2D3118F082E09E
S11319C090E05EC0ED018B876E83872F99278F830C
S11319D02FB7F89433278091C9019091CA012FBF82
S11319E0FD018483892F992785832FB7F8943327A2
S11319F080910601909107012FBF8887892F99272D
S1131A0089873196818129819927982F88273327BF
S1131A1020643868822B932B8983892F99278183AB
S1131A20435F4C934D5080910901882359F01092E3
S1131A300901642FCD010E94470C9927282F882380
S1131A40A9F417C0842F99279093EB018093EA019E
S1131A50B0932401A09323018CE00E947101809132
S1131A600901882349F489E090E00AC08FEF80934C
S1131A700901822F992704C01092D60180E090E0DA
S1131A80DF91CF910895CF92DF92EF92FF920F935F
S1131A901F93CF93DF938C01F62E6A01E22E8FB74A
S1131AA0F894C82FDD2760E080E00E9402018823BB
S1131AB021F0CFBF80E090E01EC0CFBF0F0D111DFD
S1131AC0802F80680E949801F82E16950795802F24
S1131AD0807C0E9498010E2D0AC0EE2DFF27E01B8A
S1131AE0F109EC0DFD1D80810E9498010150002335
S1131AF0A1F78F2D9927DF91CF911F910F91FF901F
S1131B00EF90DF90CF900895CF93DF93CDB7DEB7FA
S1131B102C970FB6F894DEBF0FBECDBF8FB7F894E5
S1131B20282FAE014F5F5F4FDA01E5E5F2E088E070
S1131B3001900D928150E1F78091C9019091CA0101
S1131B408987892F99278A878091E0019091E10103
S1131B508B87892F99278C872FBF2CE060E080E644
S1131B6091E00E94430D2C960FB6F894DEBF0FBE91
S1131B70CDBFDF91CF9108951F93182F81E090E09E
S1131B809093200180931F0110925E010E94970A96
S1131B908FB7F8949927109319018FBF82E00E94A0
S1131BA071011F9108950F931F93182F042FE82F8D
S1131BB0FF27EE0FFF1FEF50FE4F1182108210928D
S1131BC01601E091F101F091F201309721F080913A
S1131BD0C30280FF13C081E08093160103C081E239
S1131BE00E9471011123E1F4002319F40E94920070
S1131BF002C00E949B001092C80112C020812D5087
S1131C00332767817727762F662786819927682B64
S1131C10792BAF0183850E94D90C882319F3DFCF78
S1131C201F910F9108959B0180911601882349F417
S1131C306091F1017091F2016217730711F40E942F
S1131C40D30D0895CF93DF93C0912301D091240144
S1131C506091EA01CE010E94470C482F5527442386
S1131C6051F08FEF80930901609123017091240159
S1131C708B850E94130EDF91CF9108951F920F92CE
S1131C800FB60F9211242F933F934F935F936F934B
S1131C907F938F939F93AF93BF93EF93FF930E9490
S1131CA03A0280913601843009F4C7C0863021F0AD
S1131CB0833009F0EFC03EC090917100987F80910D
S1131CC03701813041F4903499F583E080933601F3
S1131CD02091620244C0983159F583E08093360123
S1131CE0909162028091420120912F02981708F48A
S1131CF072C0922F9E7F90932F028091D30281FF16
S1131D0007C08D7F8093D302906190932F0203C00C
S1131D102E7720932F0280912F028093740081E00C
S1131D208093360180911401882309F0B3C07FC0E9
S1131D3084E098C08091370190916202813009F06B
S1131D4044C0E0918D01F0918E01E90FF11D809165
S1131D5073008083209162022F5F2093620280913E
S1131D6042012817A0F43327992701972817390728
S1131D7049F48091D30282FD05C080912F028F7BAC
S1131D8080932F0280912F028093740083C09091DE
S1131D902F02292F2E7F20932F028091D30281FFBF
S1131DA009C08D7F8093D302206120932F028091FC
S1131DB0710003C09E7790932F0280912F0280932D
S1131DC0740081E08093360165C0809142012091C6
S1131DD02F02981778F4E0918D01F0918E01E90FAC
S1131DE0F11D8081809373009F5F90936202209322
S1131DF0740050C0922F9E7F90932F028091D30243
S1131E0081FF07C08D7F8093D302906190932F024E
S1131E1003C02E7720932F0280912F0280937400A9
S1131E2081E08093360180911401882399F50E9402
S1131E301A0380E00E94A6082DC08091D3028E7FF1
S1131E408093D30290912F029F7D90932F028091D3
S1131E507100887F883049F080917100887F8031DB
S1131E6021F081E00E94F60815C0392F30643093C8
S1131E702F029091CF01990F20E08091370181309A
S1131E8009F421E0922B9093730086E0809336014D
S1131E9030937400FF91EF91BF91AF919F918F9117
S1131EA07F916F915F914F913F912F910F900FBE52
S1131EB00F901F901895EF920F931F9389B78F7708
S1131EC089BFA39AAB9AA69AAE98AE9A8091100154
S1131ED01092890180938A018FB7F894282F3327B1
S1131EE0922F80913501882309F045C031E0E32E1B
S1131EF0E092350110923E012FBF8FB7F894082F5E
S1131F001127809136018823C9F4909A919A889870
S1131F1089981092710081E480937000109272008D
S1131F20109274000E943A0280912F0284608E7F86
S1131F3080932F0280937400E09236010FBF8FB715
S1131F40F894082F1127902F80911301813059F5AF
S1131F5080913501813021F48CE10E94710109C026
S1131F60823009F580913E018093130183E08093D0
S1131F7035010FBF1FC080913E01882311F42FBF8C
S1131F8019C08091C2028F3F71F4E0911201EE23D7
S1131F9051F00BC01092110104C0FF27EE53FD4F06
S1131FA01082109212019FBF05C0809111018F3FD2
S1131FB0A1F7F0CF0E946202AB01BC0121E0E22E46
S1131FC000EB14E020E030E085E00E94430280E072
S1131FD090E01F910F91EF900895AF92BF92CF922E
S1131FE0DF92EF92FF920F931F93CF93DF935B01E6
S1131FF06C01C0E0D0E0E7EFF1E0608561FFDAC298
S11320002081318142815381E480F58006811781EA
S1132010D601C501821B930BA40BB50B8E159F052E
S1132020A007B10708F4C6C260FF03C06D7F6087D4
S113203008C02E0D3F1D401F511F20833183428352
S11320405383C33009F4C3C1C43030F4C13059F0F0
S1132050C23009F0B5C209C0C43009F4F2C1C530B8
S113206009F0AEC26DC2AA98ABC28091D10183308F
S113207009F00FC110921801E0E04091C4025091A0
S1132080C50260E0FF27EE0FFF1FEC5BFD4F808170
S11320909927982F882721813327822B932B480F48
S11320A0591F6F5FE62F633068F383E08093180154
S11320B0CA0163E070E00E94E3227093C50260935A
S11320C0C402665D71406230710508F075C01092FB
S11320D01801E0E0409147015091480160E0FF277A
S11320E0EE0FFF1FE65BFD4F80819927982F88270D
S11320F021813327822B932B480F591F6F5FE62FC3
S1132100633068F383E080931801CA0163E070E0F0
S11321100E94E32270934801609347016152724028
S113212008F44AC081E080935202809150029927BA
S1132130982F8827209151023327822B932B815982
S11321409140D0F18091080281FF27C0E090040201
S1132150F090050200910602109107020E946202AB
S11321609B01AC018091000290910102A0910202B6
S1132170B0910302281B390B4A0B5B0B2E153F054C
S11321804007510750F4E21AF30A040B150B85E6D5
S1132190E816F1040105110578F40E946202AB010E
S11321A0BC01E1E0EE2E04E610E020E030E081E046
S11321B00E944302A29AAA9A8091C801882309F036
S11321C043C0AFE9B1E0ECE3F2E087E101900D92A6
S11321D08150E1F743E951E08FEF809399018093B7
S11321E09A0183E980939E018091F1019091F2011B
S11321F0892B21F55093F2014093F10184E28093FD
S11322009301809116018823A9F01092160127E109
S11322106FEF7FEF83E90E94D90C9927282F882339
S113222049F081E0809316011092F2011092F101BD
S1132230222321F481E08093C80106C08091C80163
S1132240882311F40E949B001092C5021092C402CC
S113225010924801109247011092D1011092D402B9
S1132260109252028091CC02882389F48091420218
S11322709927982F8827209143023327822B932B69
S1132280019680934302892F9927809342021092EA
S1132290CC028FB7F894282F3327122F8091260170
S11322A0882389F491E09093260110925D022FBF58
S11322B080912701882321F48FE00E9471011DC0C1
S11322C0909328011AC080915D02882311F42FBFD6
S11322D014C080E00E94D203882319F085E090E0C6
S11322E007C08091F60181608093F60180E090E060
S11322F01FBF892B11F00E949B008FB7F894282FE1
S11323003327122F80913001882389F491E0909330
S11323103001109257012FBF80913301882321F49B
S113232088E10E9471011DC0909334011AC080910C
S11323305701882311F42FBF14C080E00E94BE030C
S1132340882319F085E090E007C0809163028160E2
S11323508093630280E090E01FBF892B11F00E94FC
S11323609B008FB7F894282F3327122F80913901BF
S1132370882389F491E090933901109253022FBF7E
S113238080913A01882321F48EE10E94710118C1E1
S113239090933B0115C180915302882311F42FBF00
S11323A00FC180E00E949503882319F085E090E036
S11323B007C08091CD0281608093CD0280E090E0DF
S11323C01FBF892B09F4FCC00E949B00F9C09FB772
S11323D0F89420912601222319F421E030E00FC063
S11323E080910C01813019F020E030E008C040E019
S11323F050E02150223010F441E050E09A01892F3E
S113240099278FBF222309F4DBC08FB7F894C82F14
S1132410DD279C2F80910C01813009F0C9C0809187
S11324202601813011F48EE0B6C0823009F0C0C0BC
S113243080915D0280930C0183E080932601CFBFDD
S1132440BFC080E00E94A903882309F43AC09FB763
S1132450F89420912D01222319F421E030E00FC0DB
S113246080912E01882319F020E030E008C040E07C
S113247050E02150223010F441E050E09A01892FBD
S113248099278FBF2223E9F08FB7F894C82FDD274F
S11324909C2F80912E01882399F480912D01813005
S11324A021F484E10E94710109C0823049F48091D1
S11324B0F50180932E0183E080932D01CFBF01C0ED
S11324C09FBF81E00E94A903882309F479C09FB7C4
S11324D0F89420913001222319F421E030E00FC058
S11324E080910F01813019F020E030E008C040E015
S11324F050E02150223010F441E050E09A01892F3D
S113250099278FBF222309F45BC08FB7F894C82F93
S1132510DD279C2F80910F01813009F049C0809103
S11325203001813011F485E136C0823009F040C0B9
S11325308091570180930F0183E0809330017FCF16
S11325409FB7F89420913901222319F421E030E057
S11325500FC080911501813019F020E030E008C0EF
S113256040E050E02150223010F441E050E09A0164
S1132570892F99278FBF222319F18FB7F894C82F79
S1132580DD279C2F80911501813091F480913901D0
S1132590813021F48DE10E94710151CF823041F4E8
S11325A0809153028093150183E08093390147CFD2
S11325B09FBF06C021963996C630D10509F01DCDBE
S11325C08BE00E947101DF91CF911F910F91FF90D9
S11325D0EF90DF90CF90BF90AF900895EF920F935C
S11325E01F93A49AAC9A0E946202AB01BC0181E0E1
S11325F0E82E01E110E020E030E083E00E94430295
S113260080E090E01F910F91EF90089578941F92CD
S11326100F920FB60F9211242F923F924F925F9216
S11326206F927F928F929F92AF92BF92CF92DF92DE
S1132630EF92FF920F931F932F933F934F935F93C8
S11326406F937F938F939F93AF93BF93CF93DF93B6
S1132650EF93FF93C6B5D7B58FB7F894282E0E9491
S1132660DD059B012C1B3D0B442755272B013C0109
S1132670421A530A640A750A80911F01909120013D
S11326808530910521F0069709F0E0C0BFC086E0CF
S113269090E09093200180931F0131E0332E30921B
S11326A091011092210180E00E94B506E091CD01D4
S11326B0F091CE0141AABB27A72D962D852D80AB85
S11326C0C301AA27BB2787A7872D9927AA27BB273A
S11326D086A7E091CD01F091CE0185A5882309F468
S11326E084C06081655077274F01860E971EF401E0
S11326F02081E1808281A3809927AA27BB27BA2F52
S1132700A92F982F8827332744275527522F44274A
S113271033272227FF24002711278701FF24EE24D3
S11327202E293F29402B512BBB24CC24DD242A29DC
S11327303B294C295D29822B932BA42BB52B84197F
S11327409509A609B7098383292F3A2F4B2F5527BB
S113275022839D014427552721838B2F9927AA275C
S1132760BB278083C09824E0A40180E090E00E940D
S1132770430DC09AF4012081E1808281A3809927CE
S1132780AA27BB27BA2FA92F982F88273327442796
S11327905527522F442733272227FF2400271127A8
S11327A08701FF24EE242E293F29402B512BBB24E3
S11327B0CC24DD242A293B294C295D29822B932B07
S11327C0A42BB52B840D951DA61DB71D8383292F1E
S11327D03A2F4B2F552722839D01442755272183C8
S11327E08B2F9927AA27BB278083E091CD01F091F5
S11327F0CE01818185FF02C030925E0183E00E9498
S1132800FB0A87B78F7E87BF84997AC010929101A3
S113281081E00E94B506E091CD01F091CE01818165
S113282085FF0FC087E090E09093200180931F0103
S11328300E94DD0520E031E040E050E00E949A066D
S113284003C080E00E94BC0D849B5AC0809121018A
S1132850882391F580919101882371F511E01093FB
S113286091010E94B50680B32091BC02283098F4EF
S1132870E091C102E20FFF27E770F070EE0FFF1F37
S1132880EE0FFF1FE859FD4F40825182628273822E
S11328902F5F2093BC0210932101D093E701C093D2
S11328A0E60184992DC0992724E0969587952A9569
S11328B0E1F7182F117001C010E08091910181306F
S11328C0F9F4109291010E94B5061092210111238E
S11328D0B9F48091E6019091E701C81BD90B2A97BE
S11328E078F48091BC02882319F081508093BC0253
S11328F08091CD019091CE01009711F00E944E0578
S11329002FBEFF91EF91DF91CF91BF91AF919F9136
S11329108F917F916F915F914F913F912F911F9173
S11329200F91FF90EF90DF90CF90BF90AF909F906A
S11329308F907F906F905F904F903F902F900F906B
S11329400FBE0F901F901895CF92DF92EF92FF92D7
S11329500F931F93CFB6F894DD240E945D05DC012C
S1132960CB0166E470E00E94E3224BE0E42EF12CFC
S1132970E80EF91EF092CF02E092CE020E94DD052D
S113298000271127A80197010E949A06CFBE1F9124
S11329900F91FF90EF90DF90CF9008951F93CF9306
S11329A0DF938FB7F894C82FDD271C2F80911F0168
S11329B0909120010897C9F489E00E94EB0983E013
S11329C00E94FB0AC09A81E090E0909320018093DA
S11329D01F018FB7F894992723E0209319018FBF23
S11329E082E00E947101CFBF30C0C0988091D202B2
S11329F0882311F085E001C084E00E94EB0983FD87
S1132A0009C080E00E94EB0983FF04C085E090E0E8
S1132A1020E003C083E090E021E0909320018093C4
S1132A201F01C09A1FBF222341F01092410183E08D
S1132A300E94FB0A0E94A41408C00E94DD0520E441
S1132A4031E040E050E00E949A06DF91CF911F915F
S1132A500895EF92FF920F931F93CF93DF938B010F
S1132A608091E4019091E50186FF40C18F7B8F3313
S1132A7009F08EC1C0913C01D0913D015881509321
S1132A80840180918101909182018530910509F43E
S1132A9043C08630910509F48AC0029709F01FC12A
S1132AA085E090E0909382018093810140915C01E4
S1132AB0852F99270196242F3327281739074CF19E
S1132AC0B79906C00E9904C0451B415040935C0160
S1132AD0409184014A32E8F44423A1F0BE016F5FBF
S1132AE07F4F483018F047E050E007C086E090E0A0
S1132AF09093820180938101552780E090E00E94A9
S1132B00120246C11092C701C09A84E00E94FB0AD7
S1132B10E3C00E947E0B3CC186E090E0909382016A
S1132B20809381018091CC01882309F439C080917C
S1132B3054028823A9F5898185FF32C08F814E8193
S1132B402FB7F89433276091E0017091E1012FBF12
S1132B509927982F88275527842B952B8617970715
S1132B6059F08F812E819927982F88273327822B1C
S1132B70932B8F5F9F4FA1F489818770813081F4FB
S1132B80C09AC0988AE00E94EB09C09AC09840910C
S1132B90840147502896BE018FE30E94060AF8C0BC
S1132BA040918401475055272896BE01A6CFC09A6C
S1132BB080918C01882339F484E00E94FB0A80917F
S1132BC08C01882311F0B7990AC00E9B08C090911C
S1132BD0BC02992321F0809184018B3038F48091D8
S1132BE03C0190913D010E944E053DC0913001F59C
S1132BF0E091C102FF27EE0FFF1FEE0FFF1FE85900
S1132C00FD4F2081318142815381E0913C01F0915B
S1132C103D0121ABBB27A52F942F832F80ABCA0185
S1132C20AA27BB2787A7252F33274427552726A75D
S1132C308091C1029927019668E070E00E94F72212
S1132C408093C1028091BC0281508093BC0288238E
S1132C5051F080913C0190913D010E944E051092EB
S1132C60C1021092BC0280918401FE01E80FF11DA3
S1132C70808187FF31C0012B79F169816770E09110
S1132C803C01F0913D01623019F5A091CD01B09164
S1132C90CE01109709F180911F01909120010797AF
S1132CA0D9F4ED019B8183819817B1F487B78F7EA6
S1132CB087BF908181E08CA7E90FF11D8291319645
S1132CC088A780818F7789A780E00E94BC0D04C00B
S1132CD0613011F489E02AC00E94490B59C0109256
S1132CE0C701C09A84E00E94FB0A52C08E3309F0E7
S1132CF04FC0C09A80911F01909120010897C9F498
S1132D00C09889E00E94EB09C09A83E00E94FB0A04
S1132D1081E090E09093200180931F018FB7F89495
S1132D20992723E0209319018FBF82E00E9471014B
S1132D302FC08091D202882349F484E090E09093DC
S1132D40200180931F010E94CE1422C083E00E94C0
S1132D50FB0A83E090E09093200180931F010E947E
S1132D605D05DC01CB0166E371E00E94E3225BE0D8
S1132D70E52EF12CE80EF91EF0925601E092550171
S1132D800E94DD0500271127A80197010E949A06D9
S1132D90DF91CF911F910F91FF90EF9008951F92B3
S1132DA00F920FB60F9211242F933F934F935F937B
S1132DB06F937F938F939F93AF93BF93EF93FF93FF
S1132DC02FB1E0912D02F0912E02309739F08091CD
S1132DD0EF019091F001E80FF91F20838091EF013A
S1132DE09091F00101969093F0018093EF0180E0BF
S1132DF00E94190140913F01509140018091EF01DF
S1132E009091F0018417950718F40E94A4011CC046
S1132E1060912D0270912E028091CA029091CB0292
S1132E2010922E0210922D021092CB021092CA021E
S1132E301092400110923F011092F0011092EF01A4
S1132E402FB120E00E942915FF91EF91BF91AF911E
S1132E509F918F917F916F915F914F913F912F91AE
S1132E600F900FBE0F901F9018959F92AF92BF9234
S1132E70CF92DF92EF92FF920F931F93CF93DF9342
S1132E80CDB7DEB7A8970FB6F894DEBF0FBECDBF9F
S1132E90E82FFF27E232F10510F00C94961EEA5B4E
S1132EA0FF4FEE0FFF1F0590F491E02D09948091E0
S1132EB0C302882311F40C94961E20E011E0DCC6B2
S1132EC00FB7F894112781E00E94B50651E0E52E72
S1132ED0F12CF0922001E0921F0110922101109236
S1132EE05E01109286010FBF0FB7F89411270E945C
S1132EF04205F0928201E09281011092C70189B7E4
S1132F008F7B89BF80E488BF8AB780628ABF8AB713
S1132F108F7E8ABF89B7806489BF0FBF8FB7F8944B
S1132F20082F112780911A0190911B01049719F41D
S1132F3083E00E94EB090FBF0FB7F8941127C09AE2
S1132F4080E00E94FB0A0FBF8FB7F894992722E014
S1132F50209338028FBF0E940F05E8C68FB7F894FC
S1132F6099271092380276C08FB7F8949927F09079
S1132F7019018FBF63E081E00E940201882359F1A7
S1132F800FB7F89411271092200110921F0187B7F0
S1132F908F7E87BF87B78F7D87BF83E00E94FB0A40
S1132FA0C09A0FBF0FB7F8941127109282011092A4
S1132FB081010E944205C09A89B78F7B89BF0FBFE8
S1132FC010921B0110921A01DE98DD98DE9A81E0BE
S1132FD00E94710107C08FB7F894992722E02093CB
S1132FE038028FBF0091EC011091ED010E94330271
S1132FF08091C6029091C702892B09F097C68FEF82
S1133000809309014F2DB801F80183850E94130EA6
S11330108DC68FB7F894282F3327122F8091D002B2
S1133020882309F0FCC581E08093D00280911A01C5
S113303090911B01049721F481E00E94840903C04C
S113304084E00E9471011FBF71C68FB7F89499275D
S11330501092D0028FBF6AC68FB7F894282F3327F7
S113306080911C01882309F0DAC52FBF80B399270A
S113307046E0969587954A95E1F7182F117090913F
S1133080E2018091E3018917D9F01917C9F484E0AA
S113309090E090931B0180931A018FB7F8949927BD
S11330A021E020931C018FBF60E070E08DE10E945D
S11330B08F0B0E94840DC09AC09880E00E94710119
S11330C01093E30185E06DC08FB7F89499271091B0
S11330D002018FBF123009F467C0133030F411239A
S11330E059F0113009F022C648C0133009F476C0F3
S11330F0143009F01BC6A2C0C0988FB7F894082FEB
S1133100112780911A0190911B010297A1F583E088
S113311090E090931B0180931A0168E170E08DE1C7
S11331200E948F0B81E08093E20110921C0180B316
S1133130992736E0969587953A95E1F781709070D6
S11331408093E30185E00E94710181E00E94EB0914
S11331506FE772E08CE10E948F0B0E94F00B0E94DB
S1133160B60B66E57AE287E10E948F0B6FEF70E899
S113317085E10E948F0B0FBFD9C5C09886E00E94DD
S1133180EB090E94F00B0E94B60B0E94840DC09ABA
S1133190C09883E00E94EB09C09A81E00E94FB0A78
S11331A084E00E947101C2C5C0988FB7F894082FBB
S11331B0112760E080E00E940201882311F00FBF14
S11331C00AC00FBF83E50E94980180E00E94980125
S11331D080E00E949801C09A82E02DC08FB7F894D5
S11331E0992720911F018FBF243039F0283041F0F6
S11331F0223001F50E94010C99C50E94CE1496C597
S1133200C09889E00E94EB09C09A83E00E94FB0AFF
S11332108FB7F894992721E030E030932001209370
S11332201F018FBF8FB7F8949927109319018FBF8F
S113323082E0B7CF83E00E94FB0A78C50E94380A77
S113324075C50FB7F894112740913F015091400183
S113325060912D0270912E028091CA029091CB024E
S113326010922E0210922D021092CB021092CA02DA
S11332701092400110923F011092F0011092EF0160
S113328020E00E94291577CF2FB7F8943327809137
S11332908F018093050182E080931E012FBF8091EE
S11332A00501882309F042C5B89AC09886E079CF11
S11332B0A0913C01B0913D011C919D01210F311D54
S11332C0F9018081881F8827881FFD0183A7F901E0
S11332D080818F77FD0181A721503040F9018081E1
S11332E0FD0180A7A0913C01B0913D01FD01328117
S11332F08FB7F894992720918B018FBF222309F46B
S113330090C0832F99279695879596958795837076
S113331090708230910541F5878146812FB7F894EA
S113332033276091E0017091E1012FBF9927982F15
S113333088275527842B952B8617970719F481E046
S113334090E06CC0FD018781268140E050E0992720
S1133350982F88273327822B932B8F5F9F4F11F44D
S113336041E050E0CA015AC0039709F06DC19E01C3
S11333702F5F3F4F45E552E088E0FA010190AF012D
S1133380F90101929F018150C1F79E012F5D3F4FCA
S1133390AE014F5F5F4F88E0FA010190AF01F90180
S11333A001929F018150C1F79E01275F3F4FAE01FB
S11333B04F5D5F4F88E0FA010190AF01F90101927E
S11333C09F018150C1F79E012F5E3F4FAE01475FC1
S11333D05F4F88E0FA010190AF01F90101929F016A
S11333E08150C1F79E01275E3F4FAE014F5E5F4F94
S11333F088E0FA010190AF01F90101929F01815027
S1133400C1F748E050E0BE01675E7F4FCD010696EC
S11334100E946023892B09F017C103C0882309F493
S113342013C11D3008F410C1E0903C01F0903D013F
S1133430F7012281822F9927F6E096958795FA95D0
S1133440E1F7039719F468E070E002C062E070E00D
S1133450822F992796958795969587958370907076
S1133460039719F488E090E002C082E090E026E03F
S113347030E0E20EF31E40E050E020E030E0F701DF
S1133480E80FF91F8AEF9FEFE80EF91E05C081913E
S1133490480F511D2F5F3F4F26173707C4F3F7011D
S11334A063818FEF8093C8028FB7F894782F20E060
S11334B030E0E9E4F1E0808191818417950729F4F3
S11334C08281861731F12093C8022F5F3F4F3396D4
S11334D02430310581F77FBF9091C8023FB7F8943B
S11334E09F3F21F0809122018917A9F420912201A4
S11334F0822F9927FC01EE0FFF1FE80FF91FE75BEE
S1133500FE4F5183408362832F5F237020932201F7
S11335100EC07FBF95C0892F9927FC01EE0FFF1FB6
S1133520E80FF91FE75BFE4F518340836283832FCB
S113353099278FBF0FB7F8941127C7010E94A400E1
S1133540FC0190810FBFF70183A5882309F478C09B
S11335509F3309F075C0878146812FB7F8943327CC
S113356060910601709107012FBF9927982F882732
S11335705527842B952B8617970761F08781268121
S11335809927982F88273327822B932B8F5F9F4F60
S113359009F056C0F7018385833909F051C02FB76C
S11335A0F89433278BB311E081278BBB2FBF84851D
S11335B025859927582F44273327422B532B809155
S11335C03C029927982F882720913D023327822B8C
S11335D0932B84179507B0F440933D02852F9927C8
S11335E080933C02868527859927982F882733273F
S11335F0822B932B80933F02892F992780933E023D
S11336000E940F05F701828923899927582F44279F
S11336103327422B532B809142029927982F8827D6
S1133620209143023327822B932B8417950740F470
S113363040934302852F9927809342021093CC0232
S1133640F0923D01E0923C018FB7F89499271092D3
S1133650C7018FBF0E94490B69C3809185018823EC
S113366061F52091640230916502409166025091A7
S11336706702EFB7F894FF27609133027091340228
S11336808091350290913602E0905801F0905901F2
S113369000915A0110915B016E0D7F1D801F911FD7
S11336A0EFBF209364023093650240936602509307
S11336B06702109285010E94F5040E94620243C0D1
S11336C00E9462025B016C018FB7F89499271092F3
S11336D0EE018FBFEFEFEE2EEFEFFE2EEFEF0E2F8A
S11336E0EFE71E2F60E0E7EFF1E0808581FF1CC06B
S11336F080819181A281B381A6019501281B390B98
S11337004A0B5B0BDA01C90124813581468157815B
S1133710281B390B4A0B5B0B2E153F05400751073D
S11337201CF479018A0161E0399632E0ED32F30745
S1133730E1F6662309F4FAC21E141F0410061106EA
S11337402CF0C601B5010E94ED0FF0C2E0926402B4
S1133750F0926502009366021093670281E0809301
S11337608501A8019701C601B5010E94F504DEC2D6
S11337709091D60180910901981709F4D7C29093CA
S11337800901992319F40E94220ED0C28FEF80936D
S11337900901CCC2AC9880912801813011F40E94B7
S11337A0EE128FB7F89499271092280110922701EE
S11337B051CC2FB7F894332780915D0280930C018C
S11337C083E0809326012FBF80910C01882309F0A8
S11337D0ADC238C20E94EE12A9C28DE0E2CC8FB70E
S11337E0F89499272091CB0120930D0123E0209395
S11337F02A018FBF90910D01913061F0913020F03A
S1133800923009F093C20DC081E08093E9011092D7
S1133810C00204C09093E9019093C0020E94E603A1
S113382085C281E08093E901F7CF1092E901A0906D
S11338303002B09031028091C002813049F0813071
S113384018F0823069F408C080E00E943A0811C080
S113385081E00E943A0866C082E00E943A08CDC026
S1133860813009F45FC0813020F0823009F05EC2FB
S1133870C4C08FB7F894C82E80912601833009F014
S113388041C080910C018823E9F58091F6018823D9
S113389009F028C21EC2ED2DE695E695E695FF27B0
S11338A04D2D5527EA50FE4F9A012770307081E064
S11338B090E002C0880F991F2A95E2F78095208135
S11338C0282320830093250112C00F5F1F4F01306E
S11338D0110511F400E010E0D02E802F0E94D203D5
S11338E08823C9F60E151F0581F74FEF50E040936A
S11338F05D028FEF80930C0181E0809326018EE0BE
S11339000E947101CFBEE091D101E33008F00EC2F4
S1133910EF5FE093D101E150FF27EE0FFF1FEC5B57
S1133920FD4F66C080E00E94A90381E00E94A903C4
S1133930882309F4FBC19090E8018FB7F894C82E4E
S113394080913001833009F041C080910F018915C5
S1133950E9F580916302882309F0D3C1C9C1ED2D33
S1133960E695E695E695FF274D2D5527ED59FD4F34
S11339709A012770307081E090E002C0880F991F8F
S11339802A95E2F7809520812823208300932F0134
S113399012C00F5F1F4F0130110511F400E010E059
S11339A0D02E802F0E94BE038823C9F60E151F0552
S11339B081F74FEF50E0409357018FEF80930F0151
S11339C081E08093300185E10E947101CFBE99208E
S11339D009F0ACC1E091D402E33008F0A7C1EF5F75
S11339E0E093D402E150FF27EE0FFF1FE65BFD4F8B
S11339F0A1828B2D9927808399C18FB7F894C82E03
S1133A0080913901833009F041C0809115018823E8
S1133A10E9F58091CD02882309F082C178C1ED2DAA
S1133A20E695E695E695FF274D2D5527E353FD4F83
S1133A309A012770307081E090E002C0880F991FCE
S1133A402A95E2F78095208128232083009338016A
S1133A5012C00F5F1F4F0130110511F400E010E098
S1133A60D02E802F0E9495038823C9F60E151F05BA
S1133A7081F74FEF50E0409353028FEF809315018D
S1133A8081E0809339018DE10E947101CFBEA09243
S1133A9051028B2D99278093500248C18FB7F89417
S1133AA099272091830120930E0123E020932C0178
S1133AB08FBF80910E01882321F0813009F036C137
S1133AC003C0159A1D9A02C0A09AA89A4AE050E031
S1133AD060E070E084E00E94890228C18FB7F89406
S1133AE099272091F50120932E0123E020932D01A5
S1133AF0B1CA2FB7F89433278091570180930F01EF
S1133B0083E0809330012FBF80910F018093E801FF
S1133B1081E098C080E005C01D9815988AE141CBEA
S1133B2081E00E94390302C1A898A0988BE139CBA7
S1133B3080E00E94190980913201813019F480E0FB
S1133B400E9439038FB7F89499271092320110928A
S1133B50310180CA81E00E941909809134018130C9
S1133B6011F40E9439038FB7F89499271092340105
S1133B70109233016FCA2FB7F894332780913E0116
S1133B808093130153E0509335012FBF209113010B
S1133B908FB7F8949927209314018FBF222309F03B
S1133BA0C5C08FB7F894282F332780911401882338
S1133BB009F035C02FBF8FB7F894992720913601AB
S1133BC0213009F047CA42E0409336018FBF2FB736
S1133BD0F89433278DE290E09093D0018093CF0145
S1133BE089E891E090938E0180938D014093420186
S1133BF05093D30210926202109237012FBF0E9499
S1133C003A022FB7F894332780912F028F7E816E6A
S1133C1080932F0294E090933601809374002FBF19
S1133C2085C02FB7F89433278091530280931501F0
S1133C3083E0809339012FBF80911501882309F017
S1133C4075C082E00E94BC0271C00E945B0F6EC00E
S1133C5089B78F7789BFAB98A39880913B01813056
S1133C6011F40E945B0F8FB7F894992710923B01CF
S1133C7010923A01EFC9110F9091C302812F892349
S1133C80B1F0E22FFF27EE0FFF1FEF50FE4F11821E
S1133C901082812F809598239093C302222339F4B4
S1133CA00E949B001092C801110F21E0E5CF2F5F05
S1133CB0283008F33BC080911601E82FFF27EE0F50
S1133CC0FF1FEF50FE4F6081718141E00E94D30DD0
S1133CD02DC081E080930C0110922601809327016E
S1133CE080E10ECE80912501E82EFF248701EDCDE1
S1133CF081E080930F01109230018093330189E1B8
S1133D0063CE80912F01E82EFF24870142CE81E00B
S1133D10809315011092390180933A018FE1B4CE5A
S1133D2080913801E82EFF24870193CEA8960FB620
S1133D30F894DEBF0FBECDBFDF91CF911F910F91DD
S1133D40FF90EF90DF90CF90BF90AF909F90089539
S1133D508091BD028F3FB1F0282F3327F901E15A3A
S1133D60FE4F80818093BD028F3F11F48093D10276
S1133D708FEF80832F3F31F0822F0E94351781E02F
S1133D8090E0089580E090E008951F93CF93DF932F
S1133D90CDB7DEB7E0970FB6F894DEBF0FBECDBF48
S1133DA01FB7F89442E250E06FEF70E08FE591E0C6
S1133DB00E946D238FEF8093BD028093D10281E036
S1133DC08EBD88E080BF83E083BF8CB59DB54AE794
S1133DD02CB53DB52817390708F44150442311F098
S1133DE0C901F6CF92B782B78917E9F32CB53DB56F
S1133DF092B782B78917E9F38CB59DB5821B930BF3
S1133E00409675E0969587957A95E1F79093BF0271
S1133E108093BE0213BE83B78EBD8EB580BF12BE23
S1133E201DBC1CBC8FEF86BF86B780937C0080B717
S1133E30992787709070892BD1F7D29AD19AD09A0A
S1133E40DA9AD99AD89A15BA8FEF84BBD498DC98A9
S1133E5016B81DBC1CBC87B7846087BF8EB5887F2D
S1133E6084608EBD0E94A81E8823E1F71092CD02C3
S1133E708FEF8093C2021092630210928801109215
S1133E805D011092F60180939001E9E4F1E08FEF77
S1133E909FEF918380831282339621E0E535F20708
S1133EA0C1F70E945D0560936002809100019091CA
S1133EB001010196AA27BB278093D2019093D301D5
S1133EC0A093D401B093D50180B7886080BF8BE004
S1133ED083BF86EE81BF87B7826087BF0E9472046A
S1133EE088E892E090933D0180933C018E98B89AC3
S1133EF08C988FEF8093DB01109237021092380276
S1133F001092390210923A02B89AD69AD59A8FB77B
S1133F10F894992720910601309107018FBF3093BF
S1133F20E1012093E0010E94C80629A73AA74BA704
S1133F305CA76DA77EA78FA798ABDE019196FE01C3
S1133F40B99688E001900D928150E1F7DE01519617
S1133F50FE01B19688E001900D928150E1F7DE01F7
S1133F605996FE01719688E001900D928150E1F717
S1133F70A5E5B2E0FE01799688E001900D928150AA
S1133F80E1F78091080199279093CA018093C901B0
S1133F908FE1809332028AE180935E020E94C80618
S1133FA029A73AA74BA75CA76DA77EA78FA798ABB5
S1133FB0DE019196FE01B99688E001900D92815040
S1133FC0E1F7DE011196FE01B19688E001900D92B1
S1133FD08150E1F7DE011996FE01319688E00190E7
S1133FE00D928150E1F7A5E5B2E0FE01399688E033
S1133FF001900D928150E1F7A5E5B2E0FD013796FD
S11340009C9180818D939083319782E0E835F80705
S1134010B9F781E080938B011092C9028093CC019F
S1134020109254020E94A81E8823E1F7812F992739
S11340308FBF789410923F0282E080933E02809179
S113404000019091010180934102892F9927809367
S1134050400261E081E00E94E8008823E9F48FB720
S1134060F894282F332780911A0190911B01892BF2
S113407011F02FBF1FC081E090E090931B0180934B
S11340801A012FBFDD9A0E94DD0524E130E040E0F3
S113409050E00E949A060EC062E081E00E94020194
S11340A0882309F072C061E081E00E940201882344
S11340B009F46BC08FB7F894482F55274BC087B7C6
S11340C0992783709070892B19F4E5E0F0E013C010
S11340D080B7992787709070892BD1F781B792B7F1
S11340E0891B8C3030F082B7853F18F4E3E0F0E0B0
S11340F002C0E2E0F0E087B7887BC1F480917D00E4
S11341008B7FA1F46E9912C08AB190919A00892B89
S1134110887161F48091740082FD08C0379B03C0EC
S113412081E090E005C085E090E002C080E090E08E
S113413025B78E1708F4E82FFF27E053FF4FE491CB
S1134140237E2062E22BE5BF78948895F89485B7A6
S11341508F7D85BF8091BD028F3F09F4B0CF282F9A
S11341603327F901E15AFE4F80818093BD028F3FCE
S113417011F48093D1028FEF80832F3F09F49FCFF6
S11341804FBF822F0E94351795CF0E949B0092CF7C
S113419078941F920F920FB60F9211241F932F93AE
S11341A03F934F935F936F937F938F939F93AF93BB
S11341B0BF93EF93FF9387B78F7E87BF78941FB722
S11341C0F8948091D7019091D801A091D901B09130
S11341D0DA010097A105B10509F051C080911F01D2
S11341E0909120018530910561F18630910530F47C
S11341F08330910549F0049781F51AC08730910501
S1134200F1F0089751F514C0869B0FC084E090E04C
S11342109093200180931F010E94DD0527E030E088
S113422040E050E00E949A0618C00E94A41415C0F1
S11342300E94DC09882389F40E94CE140EC080E019
S11342400AC089E00E94EB0981E00E94B50683E080
S11342500E94FB0A87E00E94BC0D80911A01909194
S11342601B01019771F482E090E090931B0180930D
S11342701A01DE98DE9A80E00E94840902C00E943E
S1134280FA05812F99278FBFFF91EF91BF91AF91CD
S11342909F918F917F916F915F914F913F912F915A
S11342A01F910F900FBE0F901F901895ACE2B0E0D5
S11342B0ECE5F1E20C942923222E332E442E552EC4
S11342C0662E772E882E992EFE013196A8E0119243
S11342D0AA95E9F729823A824B825C826D827E82BA
S11342E08F829886FE013996B8E01192BA95E9F763
S11342F0A986BA86CB86DC86ED86FE860F87188B68
S113430089819A81AB81BC8189A79AA7ABA7BCA7F5
S11343107C018D018FEF9FEFA0E0B0E0E822F9224D
S11343200A231B2389A59AA5ABA5BCA51D0144247A
S1134330552489859A85AB85BC858DA39EA3AFA39F
S1134340B8A75C016D018FEF9FEFA0E0B0E0A82259
S1134350B922CA22DB228DA19EA1AFA1B8A53D013D
S113436088249924C801B701A60195010E940A2353
S113437069A37AA38BA39CA3C801B701A4019301E9
S11343800E940A237B018C01C201B101A60195019F
S11343900E940A235B016C01C201B101A4019301D3
S11343A00E940A233B014C01EA0CFB1C0C1D1D1D41
S11343B089A19AA1ABA1BCA19D01442755272E0D2B
S11343C03F1D401F511F2A153B054C055D0540F458
S11343D080E090E0A1E0B0E0680E791E8A1E9B1E8A
S11343E0CA01AA27BB27860D971DA81DB91D8D8F4D
S11343F09E8FAF8FB8A3A9013327222789A19AA141
S1134400ABA1BCA1A070B070280F391F4A1F5B1F5D
S1134410298F3A8F4B8F5C8FA98CBA8CCB8CDC8C18
S1134420ED8CFE8C0F8D18A1FE01719698E011920F
S11344309A95E9F7ED8AFE8A0F8B188F2D813E81BC
S11344404F8158856DA17EA18FA198A50E940A2352
S11344503B014C012D853E854F85588969A57AA578
S11344608BA59CA50E940A232D893E894F89588DCE
S1134470260F371F481F591F260D371D481D591D6C
S11344802D8B3E8B4F8B588F6D887E888F88988CB0
S11344902A2D3B2D4C2D5D2D662D772D882D992DA4
S11344A0E2E1AC960C944523A0E1B0E0EAE5F2E247
S11344B00C942923222E332E442E552E662E772E2D
S11344C0882E992E002309F466C088E0FE013196F7
S11344D011928A95E9F729833A834B835C836D8330
S11344E07E838F829887E0E2E01B1E16CCF52D8137
S11344F03E814F815885602F772767FD7095DA01DB
S1134500C901062E04C0B695A795979587950A9478
S1134510D2F78D879E87AF87B88B04C0220F331FD5
S1134520441F551FEA95D2F789819A81AB81BC81DA
S113453004C0B695A795979587956A95D2F7282BC9
S1134540392B4A2B5B2B29873A874B875C87298435
S11345503A844B845C846D847E848F8498881BC0E9
S11345601D861E861F86188A2E2F332727FD309519
S1134570309521953F4F8D819E81AF81B88504C0D0
S1134580B695A795979587952A95D2F789879A879F
S1134590AB87BC87DCCF222D332D442D552D662DC2
S11345A0772D882D992DE2E160960C944523991B73
S11345B079E004C0991F961708F0961B881F7A9516
S11345C0C9F780950895AA1BBB1B51E107C0AA1F18
S11345D0BB1FA617B70710F0A61BB70B881F991FA0
S11345E05A95A9F780959095BC01CD01089597FB44
S11345F0092E07260AD077FD04D0E5DF06D0002077
S11346001AF4709561957F4F0895F6F7909581950A
S11346109F4F0895629FD001739FF001829FE00D28
S1134620F11D649FE00DF11D929FF00D839FF00D2D
S1134630749FF00D659FF00D9927729FB00DE11DD9
S1134640F91F639FB00DE11DF91FBD01CF011124B6
S113465008952F923F924F925F926F927F928F9222
S11346609F92AF92BF92CF92DF92EF92FF920F93FD
S11346701F93CF93DF93CDB7DEB7CA1BDB0B0FB607
S1134680F894DEBF0FBECDBF09942A8839884888C4
S11346905F846E847D848C849B84AA84B984C8845A
S11346A0DF80EE80FD800C811B81AA81B981CE0F51
S11346B0D11D0FB6F894DEBF0FBECDBFED01089536
S11346C0FB01DC0104C08D910190801921F441505B
S11346D05040C8F7881B990B0895DC0101C06D9305
S10D46E041505040E0F70895FFCF69
S11346EA0100FFFFFFFF010022FFFFFF0103020198
S10B46FA40FFFF01FF01010074
S9030000FC
