S01800006275696C642F6D6963617A2F6D61696E2E73726563E5
S11300000C9449000C94C7040C94D1040C94DB04A4
S11300100C94E5040C94EF040C94F9040C94A606D7
S11300200C9403050C9468000C9468000C94A50AC5
S11300300C94F8150C9491040C94A7040C940D05DD
S11300400C9480040C94A60E0C9468000C94680024
S11300500C9468000C9468000C9468000C9468007C
S11300600C949C040C9468000C9468000C94680034
S11300700C9468000C9468000C9468000C9468005C
S11300800C9468000C9468000C94680000081C1818
S1130090141011241FBECFEFD0E1DEBFCDBF11E09D
S11300A0A0E0B1E0EAE4F1E300E00BBF02C0079096
S11300B00D92AE30B107D9F712E0AEE0B1E001C065
S11300C01D92A134B107E1F70E9443140C94A418C3
S11300D00C9400008FB7F894992708958FBF089562
S11300E0FC0182819927582F442781819927482B25
S11300F0592BCA01892F992786958695837090700C
S11301008230910559F08330910559F0892B19F407
S113011020E030E008C02CE93FEF05C022E030E0E9
S113012002C028E030E0CA0184E0989F812D99271D
S113013011248230910559F08330910559F0892BAF
S113014019F480E090E008C08CE99FEF05C082E0DC
S113015090E002C088E090E0280F391F2A5F3F4FEB
S1130160CF01820F931F0895282F9FB7F894662319
S113017049F0E82FFF27ED56FE4F8081882311F0C8
S113018021E006C0E22FFF27ED56FE4F608320E0FA
S1130190892F99278FBF822F99270895E82F8FB72A
S11301A0F894282F332790E0FF27ED56FE4F8081E7
S11301B0861709F491E02FBF892F99270895882382
S11301C011F06E9A08956E980895882311F06F9A2D
S11301D008956F98089580E00E94DF00BA9ABB9852
S11301E0B99AB89A6C9A80E00E94E5006B986A9874
S11301F081E00E94DF00709A8DB18C7F8DB90895E3
S11302000F931F93CF93DF93182F8FB7F894C82FB2
S1130210DD270C2F61E080E00E94B400882321F0E8
S1130220CFBF85E090E024C0809105018823A1F42C
S113023080911401823081F409C082E0809314011A
S1130240109205010E94EB00B89AC0981093020125
S113025080E00FBF99270CC080911401882369F3B3
S11302608FB7F8949927109293018FBF81E0F1CF53
S1130270DF91CF911F910F910895282F9FB7F89484
S1130280E82FFF27E85CFE4F80818F3F81F4E091E7
S11302903F02E21771F40BC02093310204C0FF2720
S11302A0E85CFE4F208320933F0220E007C025E056
S11302B005C0809131028F3F91F7EECF892F9927A6
S11302C08FBF822F992708951F93182F81E00E94D2
S11302D0DF001FB9779BFECF8FB199271F91089537
S11302E08F929F92AF92BF92CF92DF92EF92FF9242
S11302F00F931F93CF93DF938FB7F8949927C090F0
S11303003A02D0903B0280908C0190908D01C09174
S11303107401D091750120911D0130911E01EAE014
S1130320AE2EB12CAC0EBD1E2A153B0508F45901A6
S11303308FBF7401EC0EFD1E86010C0F1D1F14C02F
S1130340C114D10419F0F801808101C080E00E9439
S113035064018114910411F0F701808321960894BB
S1130360E11CF11C0F5F1F4FC5010197C817D90786
S113037038F381E00E94E5009FB7F894C114D104DA
S113038031F0CC0EDD1EF60180818FB901C01FB89B
S1130390D0937501C0937401892F99278FBF80E092
S11303A090E0DF91CF911F910F91FF90EF90DF903C
S11303B0CF90BF90AF909F908F9008952FB7F894EF
S11303C0332750931E0140931D0190933B02809369
S11303D03A0270938D0160938C0110927501109212
S11303E074012FBF452B29F08FB10E94700199270A
S11303F0089589E00E943D0180E090E008958FB760
S1130400F8949927109295018FBF089580E88093FE
S1130410360110925101109234021092300210925F
S11304204D010895CF93DF93FC0115A6DC019E9640
S1130430ED011B821A82198280E886A7DF91CF9191
S113044008952F923F924F925F926F927F928F9274
S11304509F92AF92BF92CF92DF92EF92FF920F934F
S11304601F93CF93DF93CDB7DEB728970FB6F894D9
S1130470DEBF0FBECDBF2090570130905801409091
S1130480590150905A01662477248824BEE4AB2E87
S1130490A3E8BA2ECC24DD24EE24FF2400E010E0EF
S11304A0222D332D442D552D662D772D882D90E04A
S11304B00E94861629833A834B835C836D837E83F3
S11304C08F839887822E932EA42EB52E2401350176
S11304D000E20E948417A22EB32EC42ED52EC3018F
S11304E0B20196958795779567956A0D7B1D8C1D4E
S11304F09D1D97FF05C09F776F5F7F4F8F4F9F4F65
S113050060935701709358018093590190935A0155
S113051028960FB6F894DEBF0FBECDBFDF91CF9102
S11305201F910F91FF90EF90DF90CF90BF90AF900D
S11305309F908F907F906F905F904F903F902F90FF
S113054008958FB7F89460917801709179012CB572
S11305503DB506B602FE04C06F5F7F4F2CB53DB5B6
S113056099278FBF88279927CB01772766274427A8
S11305705527622B732B842B952B0895EF92FF92B2
S11305800F931F930E94A1027B018C0120916101B2
S113059030916201409163015091640180915C014A
S11305A090915D01A0915E01B0915F01820F931F54
S11305B0A41FB51FE216F3060407150730F08217CF
S11305C09307A407B50758F005C082179307A4073B
S11305D0B507E0F5E816F9060A071B07B8F59C010C
S11305E0AD012E193F09400B510B213060E836074D
S11305F060E0460760E0560768F180E090E8A0E01C
S1130600B0E0E80EF91E0A1F1B1FE0926101F09290
S11306106201009363011093640180E090E8AFEFFE
S1130620BFEFE80EF91E0A1F1B1F20503048404040
S1130630504020935C0130935D0140935E015093E0
S11306405F0120E030E840E050E014C020E030E0FA
S113065040E050E08093610190936201A0936301B4
S1130660B093640110925C0110925D0110925E01DE
S113067010925F01A901B7012CB53DB5C9018E19CE
S11306809F0903968417950720F0B9016D5F7F4F8A
S113069002C0640F751F6115710511F461E070E00B
S11306A0615070407BBD6ABD80E186BF87B78061C1
S11306B087BF1F910F91FF90EF9008950F931F93A1
S11306C00FB7F894112760936101709362018093CE
S11306D063019093640120935C0130935D01409326
S11306E05E0150935F010E94BE020FBF1F910F91E4
S11306F0089597B79F7D97BF90E296BF882319F01E
S11307008EB5806402C08EB58F7B8EBD87B7806244
S113071087BF80E090E008957FB7F89462B7209196
S1130720200130912101409122015091230106B60C
S113073001FE0FC081B792B7280F311D411D511D15
S11307402F5F3F4F4F4F5F4F290F311D411D511DEB
S113075004C0260F311D411D511D872F99278FBFBE
S1130760CA01B9010895DF92EF92FF920F931F938C
S11307708FB7F894282F3327D22E91B782B746B774
S1130780981711F041FF02C02FBF6AC08091730116
S11307908823E1F10E948C03E0908F01F090900196
S11307A00091910110919201209132013091330115
S11307B040913401509135016E197F09800B910BE2
S11307C0621773078407950720F01092730171E094
S11307D01EC02E0D3F1D401F511F8091200190917E
S11307E02101A0912201B0912301281B390B4A0B4E
S11307F05B0B273E31054105510540F4822F223021
S113080010F070E005C070E082E002C070E086EE97
S1130810682F615000B601FCFDCF82B7681709F458
S11308206F5F20912001309121014091220150916C
S11308302301DA01C9010196A11DB11D860F911D85
S1130840A11DB11D82179307A407B50710F4622FE9
S1130850609561BFDFBE772319F080E00E943D01FF
S11308601F910F91FF90EF90DF900895AFB7F89428
S1130870BB27E1E0E093730160938F0170939001D3
S1130880809391019093920120933201309333012C
S11308904093340150933501AFBF0E94B3030895D0
S11308A0AF92BF92CF92DF92EF92FF920F931F937A
S11308B0CF93DF93CDB7DEB728970FB6F894DEBF9A
S11308C00FBECDBF20E070E0E0910001F091010186
S11308D032E14DE65CE46FE4809101019E2F28969D
S11308E00FB6F894DEBF0FBECDBFDF91CF911F913D
S11308F00F91FF90EF90DF90CF90BF90AF9008954D
S11309001F920F920FB60F9211248F9383B783BF58
S113091000B600FCFDCF8F910F900FBE0F901F907B
S1130920189578941F920F920FB60F9211240F907E
S11309300FBE0F901F90189578941F920F920FB6C8
S11309400F9211240F900FBE0F901F90189578945A
S11309501F920F920FB60F9211242F933F938F93F0
S11309609F932FB7F8943327809178019091790160
S1130970019690937901809378012FBF9F918F9175
S11309803F912F910F900FBE0F901F9018951F92BB
S11309900F920FB60F9211240F900FBE0F901F905D
S11309A018951F920F920FB60F9211240F900FBE3D
S11309B00F901F9018951F920F920FB60F9211244B
S11309C00F900FBE0F901F9018951F920F920FB6A5
S11309D00F9211240F900FBE0F901F9018951F9225
S11309E00F920FB60F9211240F900FBE0F901F900D
S11309F018951F920F920FB60F9211240F900FBEED
S1130A000F901F9018951F920F920FB60F921124FA
S1130A100F900FBE0F901F9018951F920F920FB654
S1130A200F9211242F933F934F935F936F937F9370
S1130A308F939F93AF93BF93EF93FF9383B783BF3A
S1130A4000B600FCFDCF81B799270196AA27BB27E2
S1130A5020912001309121014091220150912301E4
S1130A60280F391F4A1F5B1F209320013093210157
S1130A70409322015093230178940E94B303FF9181
S1130A80EF91BF91AF919F918F917F916F915F9102
S1130A904F913F912F910F900FBE0F901F9018957B
S1130AA00F931F93182F0FB7F89461E080E00E9412
S1130AB0B400882371F51093020180910501882305
S1130AC0A9F580911401823089F588E00CC00E9458
S1130AD0EB0080911401882349F481E08093140190
S1130AE010924E018AE00E943D012AC0809160016B
S1130AF08F3F31F5E0910401EE2311F11CC01092F7
S1130B00030104C0FF27E05AFE4F10821092040133
S1130B1017C081E090E002C0880F991F1A95E2F790
S1130B2020911301282B209313010AC080911401F2
S1130B308823E1F6CCCF809103018F3F19F7DFCFF3
S1130B40802F99278FBF80E090E01F910F91089527
S1130B501F9383E00E9400019927182F882319F01E
S1130B6083E00E945005812F99271F910895CF9209
S1130B70DF92EF92FF920F931F93CF93DF938C0139
S1130B80F62E6A01E22E8FB7F894C82FDD2760E0B5
S1130B9080E00E94CE00882321F0CFBF80E090E067
S1130BA01EC0CFBF0F0D111D802F80680E946401ED
S1130BB0F82E16950795802F807C0E9464010E2DD7
S1130BC00AC0EE2DFF27E01BF109EC0DFD1D80810D
S1130BD00E94640101500023A1F78F2D9927DF9112
S1130BE0CF911F910F91FF90EF90DF90CF900895D8
S1130BF0CF93DF93CDB7DEB72C970FB6F894DEBF53
S1130C000FBECDBF8FB7F894282FAE014F5F5F4F53
S1130C10DA01EDECF1E088E001900D928150E1F70A
S1130C2080915201909153018987892F99278A874E
S1130C3080916501909166018B87892F99278C8714
S1130C402FBF2CE060E080E691E00E94B7052C966F
S1130C500FB6F894DEBF0FBECDBFDF91CF910895DC
S1130C601F93CF93DF93182F8FB7F894C82FDD27E6
S1130C7060E080E00E94CE00882321F0CFBF80E0B6
S1130C8090E005C0CFBF812F0E9464019927DF91B6
S1130C90CF911F910895EF92FF920F931F93CF93DB
S1130CA0DF93182F7B01042F8FB7F894C82FDD270B
S1130CB060E080E00E94CE00882321F0CFBF80E076
S1130CC090E014C0CFBF1064812F992790936A01DC
S1130CD0809369010E946401182F402F5527B701A2
S1130CE080E090E00E94DE01812F9927DF91CF916F
S1130CF01F910F91FF90EF900895C09860911B0190
S1130D0070911C0141E08FE30E944B06089582E03C
S1130D1090E0909348018093470181E080935101D2
S1130D2020E030E080910201843011F421E030E0D1
S1130D30232B29F484E00E940001882319F40E94E3
S1130D407D06089584E00E94500508951F920F9235
S1130D500FB60F9211242F933F934F935F936F938A
S1130D607F938F939F93AF93BF93EF93FF93809160
S1130D70470190914801019749F482E090E09093F3
S1130D804801809347010E94870605C080914D0168
S1130D908F5F80934D01FF91EF91BF91AF919F9130
S1130DA08F917F916F915F914F913F912F910F9010
S1130DB00FBE0F901F9018951F93809113018823E5
S1130DC009F04BC0109102011F3F09F046C060E0DA
S1130DD00E94CE00882309F440C081E08093D601AC
S1130DE0809137018823E1F11092D60185E090E0EB
S1130DF045C0923069F5C09A8091030120E030E04B
S1130E008F3F11F421E030E0232BE9F41093050126
S1130E108F3F19F42FEF30E00DC0282F3327F9014D
S1130E20E05AFE4F8081809303018F3F11F41093A9
S1130E300401108320934E0181E0809314018AE021
S1130E400E943D0105C0109305011092140111C0C8
S1130E5080911401882369F00FC081E090E00EC0F6
S1130E608091050190911401882319F2923021F0A8
S1130E70EFCF80E00E94DF0080E090E01F910895B2
S1130E801F93182F81E090E0909316018093150131
S1130E90109237010E94DC068FB7F89499271093BB
S1130EA00F018FBF84E00E943D011F9108951F939D
S1130EB0CF93DF939FB7F894C92FDD271C2F909110
S1130EC00201981721F0CFBF81E090E03AC08FEF84
S1130ED080930201309113013323F1F48FB7F89416
S1130EE09927109293018FBF0E94DC06CFBF11C0D7
S1130EF02093020181E090E002C0880F991F4A9577
S1130F00E2F7809538233093130188E00E943D0175
S1130F101FBF80E090E015C080E065E0E32FFF276D
S1130F200E940718292F492F5527CF01042E02C0EC
S1130F30959587950A94E2F780FDDACF822F8F5F2B
S1130F40EFCFDF91CF911F9108951F93CF93DF933C
S1130F508FB7F894C82FDD271C2F809147019091FB
S1130F604801892B29F484E00E945707CFBF1EC093
S1130F701092510180914D01882311F0B79904C05A
S1130F800E9908C0882319F0815080934D010E9466
S1130F9087060BC081E090E090934801809347015D
S1130FA010924D0184E00E9457071FBFDF91CF913B
S1130FB01F9108950E940602C09AC09888E00E947A
S1130FC0300688E00E943006C09A84E00E945707E9
S1130FD00E94A5070895FF920F931F93CF93DF9369
S1130FE0F82E8B018FB7F894C82FDD2760E080E0DE
S1130FF00E94CE00882321F0CFBF80E090E00CC097
S1131000CFBF8F2D0E946401812F99270E94640114
S1131010802F0E9464019927DF91CF911F910F9136
S1131020FF9008951F931FB7F89480914C01882373
S113103019F460E070E009C060E08091390288230F
S113104009F461E081E068277727809154018823BF
S113105019F480E090E00AC090E080919801882320
S113106009F491E081E09827892F9927762F662744
S1131070770F770F770FF4E0880F991FFA95E1F750
S1131080826E9262682B792B81E10E94EB07812F9B
S113109099278FBF1F9108958FB7F894992760916E
S11310A0D5018FBF85E0689FB0011124625D7E4F3A
S11310B0706488E10E94EB070895EF92FF921F93FA
S11310C0CF93DF93E0905501F0905601F70182A58C
S11310D09927182F882309F41FE1C09880914B01A8
S11310E0811749F0612F77276F717070606E706897
S11310F085E10E94EB0710934B01F70110818FB734
S1131100F894C82FDD2760E080E00E94CE00882399
S113111011F0CFBF12C0CFBF8EE390E090936A016D
S1131120809369018EE30E9464011150412F552779
S113113060E070E0C7010E94DE01DF91CF911F9152
S1131140FF90EF9008950F931F93CF93DF93EC01DB
S11311500FB7F89411270E947000FC018FE380837D
S11311600FBF109237021092360261E082E00E94B3
S1131170B400882319F085E090E072C08091D70113
S11311808F5F8093D70181508B838FB7F894082F9A
S1131190112762E081E00E94CE00882329F40FBF6A
S11311A00E94FF0181E05BC08FB7F894992724E087
S11311B0209394018FBFD0937001C0936F010FBF30
S11311C0FE013196818129819927982F8827332719
S11311D0822B932B80729C7C8983892F992781830E
S11311E02981982F882733272164822B932B898385
S11311F0892F992781831CA618A619A619AA18AAAB
S11312001FA680E88EA761E06093970140916F016B
S1131210509170018FB7F894282F332780911501CE
S1131220909116018830910511F0019711F02FBFAC
S113123015C082E090E090931601809315016093AD
S11312404002509356014093550110921F012FBF45
S11312500E94A805882311F40E945D0880E0992764
S1131260DF91CF911F910F910895CF93DF93DA010E
S1131270422F2D3118F082E090E05EC0ED018B87A3
S11312806E83872F99278F832FB7F8943327809104
S11312905201909153012FBFFD018483892F992717
S11312A085832FB7F8943327809106019091070125
S11312B02FBF8887892F9927898731968181298132
S11312C09927982F8827332720643868822B932BFB
S11312D08983892F99278183435F4C934D50809153
S11312E00901882359F010920901642FCD010E944D
S11312F0A3089927282F8823A9F417C0842F992796
S113130090936E0180936D01B0931A01A09319011B
S11313108CE00E943D0180910901882349F489E011
S113132090E00AC08FEF80930901822F992704C0AF
S113133010925B0180E090E0DF91CF910895AF922D
S1131340BF92CF92DF92EF92FF920F931F935B01B4
S11313506C016091820161FF20C020917A0130917B
S11313607B0140917C0150917D01E0907E01F090E1
S11313707F010091800110918101D601C501821B7A
S1131380930BA40BB50B8E159F05A007B10728F08E
S1131390EAE7F1E0A0E0B0E022C0E3E8F1E0609128
S11313A08B0161FF79C020918301309184014091C8
S11313B0850150918601E0908701F09088010091A9
S11313C0890110918A01A21AB30AC40AD50AAE147B
S11313D0BF04C006D10608F45FC0A1E0B0E060FF1E
S11313E004C080858D7F808708C02E0D3F1D401F5F
S11313F0511F2083318342835383AA2309F04CC0B5
S113140080910E01882309F047C0809100019091DA
S113141001018093A601892F99278093A5018091CA
S11314207101909172018093A801892F992780936B
S1131430A70149E951E08FEF80939F018093A001B8
S113144086E08093A4018091760190917701892BA5
S113145019F5509377014093760181E180939901C6
S113146080910C018823A9F010920C0124E06FEF05
S11314707FEF86E00E9435099927282F882349F0B9
S113148081E080930C01109277011092760122235F
S113149019F481E080930E0181E00E943D011F91C7
S11314A00F91FF90EF90DF90CF90BF90AF90089591
S11314B01F93CF93DF93182FEB01E82FFF27EE0F35
S11314C0FF1FEA58FE4F1182108210920C01E09126
S11314D07601F0917701309721F08091350280FFF9
S11314E00FC081E080930C0103C08EE00E943D0197
S11314F01123C1F4C959D140A9F410920E0112C0AC
S113150020812D50332767817727762F66278681A0
S11315109927682B792BAF0183850E94350988238D
S113152039F3E3CFDF91CF911F9108959B0180910F
S11315300C01882349F46091760170917701621758
S1131540730711F40E94580A089578941F920F9219
S11315500FB60F9211242F923F924F925F926F9287
S11315607F928F929F92AF92BF92CF92DF92EF922F
S1131570FF920F931F932F933F934F935F936F9318
S11315807F938F939F93AF93BF93CF93DF93EF9307
S1131590FF93C6B5D7B58FB7F894282E0E94A10241
S11315A09B012C1B3D0B442755272B013C01421A60
S11315B0530A640A750A80911501909116018530C9
S11315C0910521F0069709F0E0C0BFC086E090E0E5
S11315D0909316018093150131E0332E309250011F
S11315E01092170180E00E947903E0915501F09177
S11315F0560141AABB27A72D962D852D80ABC3018B
S1131600AA27BB2787A7872D9927AA27BB2786A7A1
S1131610E0915501F091560185A5882309F484C011
S11316206081655077274F01860E971EF401208153
S1131630E1808281A3809927AA27BB27BA2FA92FEB
S1131640982F8827332744275527522F4427332799
S11316502227FF24002711278701FF24EE242E29A7
S11316603F29402B512BBB24CC24DD242A293B29A0
S11316704C295D29822B932BA42BB52B8419950916
S1131680A609B7098383292F3A2F4B2F5527228385
S11316909D014427552721838B2F9927AA27BB27F0
S11316A08083C09824E0A40180E090E00E94B70504
S11316B0C09AF4012081E1808281A3809927AA271E
S11316C0BB27BA2FA92F982F8827332744275527BC
S11316D0522F442733272227FF240027112787016D
S11316E0FF24EE242E293F29402B512BBB24CC244C
S11316F0DD242A293B294C295D29822B932BA42BF9
S1131700B52B840D951DA61DB71D8383292F3A2F54
S11317104B2F552722839D014427552721838B2F47
S11317209927AA27BB278083E0915501F0915601A0
S1131730818185FF02C03092370183E00E94570700
S113174087B78F7E87BF84997AC01092500181E059
S11317500E947903E0915501F0915601818185FF42
S11317600FC087E090E090931601809315010E94CA
S1131770A10220E031E040E050E00E945E0303C09B
S113178080E00E944007849B5AC0809117018823FF
S113179091F580915001882371F511E01093500167
S11317A00E94790380B320913002283098F4E091AC
S11317B03402E20FFF27E770F070EE0FFF1FEE0F09
S11317C0FF1FE452FE4F40825182628273822F5F78
S11317D02093300210931701D0936C01C0936B01D6
S11317E084992DC0992714E0969587951A95E1F769
S11317F0182F117001C010E0809150018130F9F46C
S1131800109250010E947903109217011123B9F428
S113181080916B0190916C01C81BD90B2A9778F4C5
S113182080913002882319F0815080933002809196
S1131830550190915601009711F00E9412022FBE9B
S1131840FF91EF91DF91CF91BF91AF919F918F91D4
S11318507F916F915F914F913F912F911F910F91C4
S1131860FF90EF90DF90CF90BF90AF909F908F90BC
S11318707F906F905F904F903F902F900F900FBE8E
S11318800F901F90189561E081E00E94B4008823B6
S1131890E9F48FB7F894282F3327809110019091A1
S11318A01101892B11F02FBF20C081E090E09093AB
S11318B01101809310012FBFDD9A0E94A10224E13F
S11318C030E040E050E00E945E030FC062E081E03F
S11318D00E94CE00882319F089E090E0089561E029
S11318E081E00E94CE00882319F080E090E0089502
S11318F085E090E00895CF92DF92EF92FF920F93EC
S11319001F93CFB6F894DD240E942102DC01CB01A1
S113191066E470E00E9413184BE0E42EF12CE80E0C
S1131920F91EF0923D02E0923C020E94A1020027BF
S11319301127A80197010E945E03CFBE1F910F914A
S1131940FF90EF90DF90CF9008951F93CF93DF9394
S11319508FB7F894C82FDD271C2F80911501909123
S113196016010897C9F489E00E94300683E00E94BA
S11319705707C09A81E090E0909316018093150177
S11319808FB7F894992723E020930F018FBF84E049
S11319900E943D01CFBF30C0C0988091400288238F
S11319A011F085E001C084E00E94300683FD09C087
S11319B080E00E94300683FF04C085E090E020E0D0
S11319C003C083E090E021E0909316018093150119
S11319D0C09A1FBF222341F010921F0183E00E948E
S11319E057070E947B0C08C00E94A10220E431E04A
S11319F040E050E00E945E03DF91CF911F91089573
S1131A00EF92FF920F931F93CF93DF938B018091FB
S1131A10690190916A0186FF40C18F7B8F3309F081
S1131A208EC1C0911B01D0911C0158815093490172
S1131A3080914701909148018530910509F443C094
S1131A408630910509F48AC0029709F01FC185E028
S1131A5090E0909348018093470140913601852F8F
S1131A6099270196242F3327281739074CF1B79962
S1131A7006C00E9904C0451B415040933601409165
S1131A8049014A32E8F44423A1F0BE016F5F7F4F5D
S1131A90483018F047E050E007C086E090E09093AB
S1131AA0480180934701552780E090E00E94DE01C1
S1131AB046C110925101C09A84E00E945707E3C0C6
S1131AC00E94DA073CC186E090E09093480180933D
S1131AD0470180915401882309F439C08091980109
S1131AE08823A9F5898185FF32C08F814E812FB764
S1131AF0F894332760916501709166012FBF99278F
S1131B00982F88275527842B952B8617970759F0EC
S1131B108F812E819927982F88273327822B932B07
S1131B208F5F9F4FA1F489818770813081F4C09ABF
S1131B30C0988AE00E943006C09AC098409149013A
S1131B4047502896BE018FE30E944B06F8C040918F
S1131B504901475055272896BE01A6CFC09A8091C7
S1131B604D01882339F484E00E94570780914D0188
S1131B70882311F0B7990AC00E9B08C090913002D7
S1131B80992321F0809149018B3038F480911B0115
S1131B9090911C010E9412023DC0913001F5E09128
S1131BA03402FF27EE0FFF1FEE0FFF1FE452FE4F1C
S1131BB02081318142815381E0911B01F0911C010C
S1131BC021ABBB27A52F942F832F80ABCA01AA2753
S1131BD0BB2787A7252F33274427552726A780917E
S1131BE034029927019668E070E00E9427188093D8
S1131BF0340280913002815080933002882351F066
S1131C0080911B0190911C010E94120210923402D7
S1131C101092300280914901FE01E80FF11D80818C
S1131C2087FF31C0012B79F169816770E0911B0155
S1131C30F0911C01623019F5A0915501B091560143
S1131C40109709F180911501909116010797D9F425
S1131C50ED019B8183819817B1F487B78F7E87BF8D
S1131C60908181E08CA7E90FF11D8291319688A7BC
S1131C7080818F7789A780E00E94400704C061308B
S1131C8011F48BE02AC00E94A50759C0109251019B
S1131C90C09A84E00E94570752C08E3309F04FC0A7
S1131CA0C09A80911501909116010897C9F4C098C3
S1131CB089E00E943006C09A83E00E94570781E0C1
S1131CC090E090931601809315018FB7F8949927AB
S1131CD023E020930F018FBF84E00E943D012FC0B9
S1131CE080914002882349F484E090E090931601A7
S1131CF0809315010E94A50C22C083E00E9457071F
S1131D0083E090E090931601809315010E942102D4
S1131D10DC01CB0166E371E00E9413185BE0E52E61
S1131D20F12CE80EF91EF0923101E09230010E948C
S1131D30A10200271127A80197010E945E03DF91E9
S1131D40CF911F910F91FF90EF9008951F920F92E2
S1131D500FB60F9211242F933F934F935F936F937A
S1131D607F938F939F93AF93BF93EF93FF932FB181
S1131D70E0918C01F0918D01309739F080917401DC
S1131D8090917501E80FF91F20838091740190915F
S1131D9075010196909375018093740180E00E940F
S1131DA0E50040911D0150911E01809174019091B4
S1131DB075018417950718F40E9470011CC0609186
S1131DC08C0170918D0180913A0290913B021092A6
S1131DD08D0110928C0110923B0210923A021092E3
S1131DE01E0110921D0110927501109274012FB101
S1131DF020E00E94000DFF91EF91BF91AF919F9160
S1131E008F917F916F915F914F913F912F910F909F
S1131E100FBE0F901F901895AF92BF92CF92DF9292
S1131E20EF92FF920F931F93CF93DF93CDB7DEB75B
S1131E30A8970FB6F894DEBF0FBECDBF873009F464
S1131E40C7C1883098F4833009F449C1843038F428
S1131E50813009F45BC0823008F0D8C024C08530DA
S1131E6009F494C1863008F0ACC13FC18B3009F449
S1131E70DCC28C3038F4893009F4A0C28A3008F00E
S1131E80C0C2E1C18D3039F08D3008F473C48E3096
S1131E9009F0CBC4B9C480913502882309F4C5C4C0
S1131EA040E051E090C480914A01882361F520917B
S1131EB0D8013091D9014091DA015091DB01EFB79B
S1131EC0F894FF2760918F017091900180919101A6
S1131ED090919201E0903201F0903301009134012D
S1131EE0109135016E0D7F1D801F911FEFBF209350
S1131EF0D8013093D9014093DA015093DB01109259
S1131F004A010E9436040E948C036DC00E948C0317
S1131F105B016C018FB7F8949927109273018FBFFE
S1131F208091820181FF25C080917A0190917B018B
S1131F30A0917C01B0917D01A6019501281B390B6C
S1131F404A0B5B0BE0907E01F0907F0100918001D1
S1131F5010918101E21AF30A040B150B3FEFE3160B
S1131F603FEFF3063FEF03073FE7130711F061E08C
S1131F7009C05FEFE52E5FEFF52E5FEF052F5FE7FA
S1131F80152F60E080918B0181FF21C08091830136
S1131F9090918401A0918501B0918601A6019501DB
S1131FA0281B390B4A0B5B0BDA01C901209187010D
S1131FB0309188014091890150918A01281B390B85
S1131FC04A0B5B0B2E153F05400751072CF0662387
S1131FD009F42BC4A801970112161306140615065A
S1131FE02CF0C601B5010E949F091FC42093D8019B
S1131FF03093D9014093DA015093DB0181E080935F
S11320004A01C601B5010E9436040FC40FB7F89403
S1132010112781E00E94790341E0E42EF12CF09233
S11320201601E092150110921701109237011092D7
S11320304B010FBF0FB7F89411270E940602F092CC
S11320404801E09247011092510189B78F7B89BF03
S113205080E488BF8AB780628ABF8AB78F7E8ABFCE
S113206089B7806489BF0FBF8FB7F894082F1127F1
S11320708091100190911101049719F483E00E945A
S113208030060FBF0FB7F8941127C09A80E00E9462
S113209057070FBF8FB7F894992722E02093940134
S11320A08FBF0E948C0360937A0170937B018093AD
S11320B07C0190937D018AEF90E0A0E0B0E08093F2
S11320C07E0190937F01A0938001B0938101809160
S11320D082018E7F82608093820181E0B1C08FB7DC
S11320E0F89499271092940171C08FB7F8949927A6
S11320F0F0900F018FBF63E081E00E94CE0088233F
S113210059F10FB7F8941127109216011092150186
S113211087B78F7E87BF87B78F7D87BF83E00E9495
S11321205707C09A0FBF0FB7F894112710924801B0
S1132130109247010E940602C09A89B78F7B89BF1B
S11321400FBF1092110110921001DE98DD98DE9AF3
S113215083E00E943D0107C08FB7F894992722E0DD
S1132160209394018FBF00916F01109170010E9420
S1132170FF018091360290913702892B09F055C3F3
S11321808FEF809309014F2DB80114C38FB7F894D2
S1132190282F3327122F80913E02882309F581E0EE
S11321A080933E028091100190911101049721F4D3
S11321B081E00E94500503C086E00E943D011FBFDC
S11321C034C38FB7F894992710923E028FBF2DC362
S11321D08FB7F894282F332780911201882311F0A8
S11321E02FBF23C32FBF80B3992736E096958795D9
S11321F03A95E1F7182F1170909167018091680169
S11322008917D9F01917C9F484E090E0909311016B
S1132210809310018FB7F894992721E0209312013D
S11322208FBF60E070E08DE10E94EB070E94F8052B
S1132230C09AC09882E00E943D011093680187E033
S11322400E943D01F2C28FB7F894992710910201C0
S11322508FBF123009F465C0133030F4112359F0E4
S1132260113009F0E2C248C0133009F474C01430CC
S113227009F0DBC2A0C0C0988FB7F894082F1127CB
S113228080911001909111010297A1F583E090E0F3
S1132290909311018093100168E170E08DE10E9438
S11322A0EB0781E0809367011092120180B39927B4
S11322B026E0969587952A95E1F781709070809332
S11322C0680187E00E943D0181E00E9430066FE7CB
S11322D072E08CE10E94EB070E944C080E941208F5
S11322E066E57AE287E10E94EB076FEF70E885E12B
S11322F00E94EB070FBF99C2C09886E00E94300687
S11323000E944C080E9412080E94F805C09AC098C6
S113231083E00E943006C09A81E00E94570786E05D
S11323208FCFC0988FB7F894082F112760E080E012
S11323300E94CE00882311F00FBF0AC00FBF83E5AF
S11323400E94640180E00E94640180E00E946401B4
S1132350C09A82E02DC08FB7F89499272091150177
S11323608FBF243039F0283041F0223001F50E942B
S11323705D085BC20E94A50C58C2C09889E00E9407
S11323803006C09A83E00E9457078FB7F8949927C4
S113239021E030E030931601209315018FBF8FB7F1
S11323A0F894992710930F018FBF84E049CF83E0FD
S11323B00E9457073AC20E947D0637C20FB7F894AD
S11323C0112740911D0150911E0160918C01709163
S11323D08D0180913A0290913B0210928D011092EE
S11323E08C0110923B0210923A0210921E0110923C
S11323F01D01109275011092740120E00E94000DDD
S113240079CF2FB7F894332780914E01809305013B
S113241082E0809314012FBF80910501882309F085
S113242004C2B89AC09888E00BCFA0911B01B09168
S11324301C01DC909D012D0D311DF9018081881F47
S11324408827881FFD0183A7F90180818F77FD010B
S113245081A721503040F9018081FD0180A7A0911E
S11324601B01B0911C01FD0132818FB7F8949927AB
S113247020914C018FBF222309F490C0832F992708
S1132480969587959695879583709070823091057F
S113249041F5878146812FB7F89433276091650110
S11324A0709166012FBF9927982F88275527842B71
S11324B0952B8617970719F481E090E06CC0FD0115
S11324C08781268140E050E09927982F8827332779
S11324D0822B932B8F5F9F4F11F441E050E0CA0190
S11324E05AC0039709F03DC19E012F5F3F4F4DEC49
S11324F051E088E0FA010190AF01F90101929F01D6
S11325008150C1F79E012F5D3F4FAE014F5F5F4F7A
S113251088E0FA010190AF01F90101929F01815015
S1132520C1F79E01275F3F4FAE014F5D5F4F88E0CB
S1132530FA010190AF01F90101929F018150C1F7A5
S11325409E012F5E3F4FAE01475F5F4F88E0FA0167
S11325500190AF01F90101929F018150C1F79E01E1
S1132560275E3F4FAE014F5E5F4F88E0FA01019056
S1132570AF01F90101929F018150C1F748E050E099
S1132580BE01675E7F4FCD0106960E949018892B8D
S113259009F0E7C003C0882309F4E3C0FCE0FD159B
S11325A008F0DFC0E0901B01F0901C01F7012281CC
S11325B0822F992736E0969587953A95E1F7039708
S11325C019F468E070E002C062E070E0822F99279D
S11325D0969587959695879583709070039719F4CF
S11325E088E090E002C082E090E026E030E0E20E75
S11325F0F31E40E050E020E030E0F701E80FF91F5F
S11326008AEF9FEFE80EF91E05C08191480F511D16
S11326102F5F3F4F26173707C4F3F70163818FEF0E
S1132620809338028FB7F894782F20E030E0E4E20A
S1132630F1E0808191818417950729F482818617BE
S113264031F1209338022F5F3F4F33962430310508
S113265081F77FBF909138023FB7F8949F3F21F0F4
S1132660809118018917A9F420911801822F9927C4
S1132670FC01EE0FFF1FE80FF91FEC5DFE4F5183C5
S1132680408362832F5F2370209318010EC07FBFA5
S113269064C0892F9927FC01EE0FFF1FE80FF91F73
S11326A0EC5DFE4F518340836283832F99278FBF54
S11326B00FB7F8941127C7010E947000FC019081A4
S11326C00FBFF70183A5882309F447C09F3309F09E
S11326D044C0878146812FB7F8943327609106015F
S11326E0709107012FBF9927982F88275527842B8E
S11326F0952B8617970759F0878126819927982F5C
S113270088273327822B932B8F5F9F4F31F5F70157
S11327108385863011F5F1E1DF16F9F4F70184853C
S113272025859927982F88273327822B932B019768
S1132730A1F42FB7F89433278BB392E089278BBB8E
S11327402FBF868527859927982F88273327822BA3
S1132750932B9093720180937101F0921C01E0928B
S11327601B018FB7F8949927109251018FBF0E94D3
S1132770A5075BC090915B0180910901981709F44A
S113278054C0909309019923D1F400911901109137
S11327901A0160916D01C8010E94A308482F5527B2
S11327A0442309F442C08FEF809309016091190119
S11327B070911A01F80183850E94960A36C08FEF42
S11327C08093090132C090913502852F8923B9F095
S11327D0E42FFF27EE0FFF1FEA58FE4F20813181BF
S11327E011821082852F809598239093350244237B
S11327F031F429593140B1F410920E0113C04F5FE6
S1132800483098F4550FDFCF80910C01E82FFF2753
S1132810EE0FFF1FEA58FE4F6081718141E00E9474
S1132820580A03C0550F41E0CECFA8960FB6F894CE
S1132830DEBF0FBECDBFDF91CF911F910F91FF90EF
S1132840EF90DF90CF90BF90AF90089580913102C8
S11328508F3FB1F0282F3327F901E85CFE4F8081C8
S1132860809331028F3F11F480933F028FEF808376
S11328702F3F31F0822F0E940C0F81E090E00895E9
S113288080E090E008951F93CF93DF93CDB7DEB738
S1132890E0970FB6F894DEBF0FBECDBF1FB7F89414
S11328A04FE050E06FEF70E088E391E00E949D18E4
S11328B08FEF8093310280933F0281E08EBD88E0E8
S11328C080BF83E083BF8CB59DB54AE72CB53DB589
S11328D02817390708F44150442311F0C901F6CFF1
S11328E092B782B78917E9F32CB53DB592B782B791
S11328F08917E9F38CB59DB5821B930B409665E06F
S1132900969587956A95E1F7909333028093320206
S113291013BE83B78EBD8EB580BF12BE1DBC1CBC5A
S11329208FEF86BF86B780937C0080B79927877026
S11329309070892BD1F7D29AD19AD09ADA9AD99AEF
S1132940D89A15BA8FEF84BBD498DC981DBC1CBCF4
S113295087B7846087BF8EB5887F84608EBD0E94F0
S113296026148823E1F78FEF80934F01E4E2F1E02E
S11329708FEF9FEF918380831282339621E0E033BF
S1132980F207C1F70E9421026093D70180910001F0
S1132990909101010196AA27BB2780935701909338
S11329A05801A0935901B0935A018CEF91E0909390
S11329B01C0180931B018E98B89A8C988FEF80939A
S11329C0600110929301109294011092950110925B
S11329D09601B89AD69AD59A8FB7F89499272091E8
S11329E00601309107018FBF309366012093650182
S11329F00E94500429A73AA74BA75CA76DA77EA7FE
S1132A008FA798ABDE019196FE01B99688E00190FC
S1132A100D928150E1F7DE015196FE01B19688E0F6
S1132A2001900D928150E1F7DE015996FE017196F5
S1132A3088E001900D928150E1F7ADECB1E0FE0128
S1132A40799688E001900D928150E1F78091080118
S1132A50992790935301809352018FE180938E01C3
S1132A608FE08093D5010E94500429A73AA74BA771
S1132A705CA76DA77EA78FA798ABDE019196FE0198
S1132A80B99688E001900D928150E1F7DE0111962C
S1132A90FE01B19688E001900D928150E1F7DE01CC
S1132AA01996FE01319688E001900D928150E1F76C
S1132AB0ADECB1E0FE01399688E001900D928150B1
S1132AC0E1F7ADECB1E0FD0137969C9180818D93E7
S1132AD09083319781E0E03DF807B9F781E0809376
S1132AE04C0110923902809354011092980180B7DE
S1132AF0886080BF8BE083BF86EE81BF87B782602A
S1132B0087BF0E94B3030E9426148823E1F7812F14
S1132B1099278FBF78940E94430C8FB7F894482F5D
S1132B2055274BC087B7992783709070892B19F468
S1132B30E5E0F0E013C080B7992787709070892B87
S1132B40D1F781B792B7891B8C3030F082B7853FBB
S1132B5018F4E3E0F0E002C0E2E0F0E087B7887B3D
S1132B60C1F480917D008B7FA1F46E9912C08AB16B
S1132B7090919A00892B887161F48091740082FD90
S1132B8008C0379B03C081E090E005C085E090E079
S1132B9002C080E090E025B78E1708F4E82FFF27E5
S1132BA0E457FF4FE491237E2062E22BE5BF789443
S1132BB08895F89485B78F7D85BF809131028F3FCA
S1132BC009F4B0CF282F3327F901E85CFE4F808148
S1132BD0809331028F3F11F480933F028FEF808303
S1132BE02F3F09F49FCF4FBF822F0E940C0F95CF28
S1132BF078941F920F920FB60F9211241F932F9364
S1132C003F934F935F936F937F938F939F93AF9370
S1132C10BF93EF93FF9387B78F7E87BF78941FB7D7
S1132C20F89480915C0190915D01A0915E01B09156
S1132C305F010097A105B10509F051C0809115010C
S1132C40909116018530910561F18630910530F43B
S1132C508330910549F0049781F51AC087309105B6
S1132C60F1F0089751F514C0869B0FC084E090E002
S1132C7090931601809315010E94A10227E030E091
S1132C8040E050E00E945E0318C00E947B0C15C017
S1132C900E94A805882389F40E94A50C0EC080E038
S1132CA00AC089E00E94300681E00E94790383E033
S1132CB00E94570787E00E9440078091100190917D
S1132CC01101019771F482E090E0909311018093D7
S1132CD01001DE98DE9A80E00E94500502C00E9436
S1132CE0BE02812F99278FBFFF91EF91BF91AF91C2
S1132CF09F918F917F916F915F914F913F912F9110
S1132D001F910F900FBE0F901F901895ACE2B0E08A
S1132D10ECE8F6E10C945918222E332E442E552E4D
S1132D20662E772E882E992EFE013196A8E01192F8
S1132D30AA95E9F729823A824B825C826D827E826F
S1132D408F829886FE013996B8E01192BA95E9F718
S1132D50A986BA86CB86DC86ED86FE860F87188B1D
S1132D6089819A81AB81BC8189A79AA7ABA7BCA7AB
S1132D707C018D018FEF9FEFA0E0B0E0E822F92203
S1132D800A231B2389A59AA5ABA5BCA51D01442430
S1132D90552489859A85AB85BC858DA39EA3AFA355
S1132DA0B8A75C016D018FEF9FEFA0E0B0E0A8220F
S1132DB0B922CA22DB228DA19EA1AFA1B8A53D01F3
S1132DC088249924C801B701A60195010E943A18E4
S1132DD069A37AA38BA39CA3C801B701A40193019F
S1132DE00E943A187B018C01C201B101A601950130
S1132DF00E943A185B016C01C201B101A401930164
S1132E000E943A183B014C01EA0CFB1C0C1D1D1DD1
S1132E1089A19AA1ABA1BCA19D01442755272E0DE0
S1132E203F1D401F511F2A153B054C055D0540F40D
S1132E3080E090E0A1E0B0E0680E791E8A1E9B1E3F
S1132E40CA01AA27BB27860D971DA81DB91D8D8F02
S1132E509E8FAF8FB8A3A9013327222789A19AA1F6
S1132E60ABA1BCA1A070B070280F391F4A1F5B1F13
S1132E70298F3A8F4B8F5C8FA98CBA8CCB8CDC8CCE
S1132E80ED8CFE8C0F8D18A1FE01719698E01192C5
S1132E909A95E9F7ED8AFE8A0F8B188F2D813E8172
S1132EA04F8158856DA17EA18FA198A50E943A18E3
S1132EB03B014C012D853E854F85588969A57AA52E
S1132EC08BA59CA50E943A182D893E894F89588D5F
S1132ED0260F371F481F591F260D371D481D591D22
S1132EE02D8B3E8B4F8B588F6D887E888F88988C66
S1132EF02A2D3B2D4C2D5D2D662D772D882D992D5A
S1132F00E2E1AC960C947518A0E1B0E0EAE8F7E1D0
S1132F100C945918222E332E442E552E662E772EBD
S1132F20882E992E002309F466C088E0FE013196AC
S1132F3011928A95E9F729833A834B835C836D83E5
S1132F407E838F829887E0E2E01B1E16CCF52D81EC
S1132F503E814F815885602F772767FD7095DA0190
S1132F60C901062E04C0B695A795979587950A942E
S1132F70D2F78D879E87AF87B88B04C0220F331F8B
S1132F80441F551FEA95D2F789819A81AB81BC8190
S1132F9004C0B695A795979587956A95D2F7282B7F
S1132FA0392B4A2B5B2B29873A874B875C872984EB
S1132FB03A844B845C846D847E848F8498881BC09F
S1132FC01D861E861F86188A2E2F332727FD3095CF
S1132FD0309521953F4F8D819E81AF81B88504C086
S1132FE0B695A795979587952A95D2F789879A8755
S1132FF0AB87BC87DCCF222D332D442D552D662D78
S1133000772D882D992DE2E160960C947518991B03
S113301079E004C0991F961708F0961B881F7A95CB
S1133020C9F780950895AA1BBB1B51E107C0AA1FCD
S1133030BB1FA617B70710F0A61BB70B881F991F55
S11330405A95A9F780959095BC01CD01089597FBF9
S1133050092E07260AD077FD04D0E5DF06D000202C
S11330601AF4709561957F4F0895F6F790958195C0
S11330709F4F0895629FD001739FF001829FE00DDE
S1133080F11D649FE00DF11D929FF00D839FF00DE3
S1133090749FF00D659FF00D9927729FB00DE11D8F
S11330A0F91F639FB00DE11DF91FBD01CF0111246C
S11330B008952F923F924F925F926F927F928F92D8
S11330C09F92AF92BF92CF92DF92EF92FF920F93B3
S11330D01F93CF93DF93CDB7DEB7CA1BDB0B0FB6BD
S11330E0F894DEBF0FBECDBF09942A88398848887A
S11330F05F846E847D848C849B84AA84B984C88410
S1133100DF80EE80FD800C811B81AA81B981CE0F06
S1133110D11D0FB6F894DEBF0FBECDBFED010895EB
S1133120FB01DC0104C08D910190801921F4415010
S11331305040C8F7881B990B0895DC0101C06D93BA
S10D314041505040E0F70895FFCF1E
S111314A0100FFFFFFFF010022FFFFFF010055
S9030000FC
