S01800006275696C642F6D6963617A2F6D61696E2E73726563E5
S11300000C9449000C948A040C9494040C949E045B
S11300100C94A8040C94B2040C94BC040C94A6068E
S11300200C94C6040C9468000C9468000C94AC0AFC
S11300300C9404160C9454040C946A040C94D00488
S11300400C9443040C94AD0E0C9468000C9468005A
S11300500C9468000C9468000C9468000C9468007C
S11300600C945F040C9468000C9468000C94680071
S11300700C9468000C9468000C9468000C9468005C
S11300800C9468000C9468000C94680000081C1818
S1130090141011241FBECFEFD0E1DEBFCDBF11E09D
S11300A0A0E0B1E0E2E6F1E300E00BBF02C007909C
S11300B00D92AE30B107D9F712E0AEE0B1E001C065
S11300C01D92A034B107E1F70E944F140C94B018AC
S11300D00C9400008FB7F894992708958FBF089562
S11300E0FC0182819927582F442781819927482B25
S11300F0592BCA01892F992786958695837090700C
S11301008230910559F08330910559F0892B19F407
S113011020E030E008C02CE93FEF05C022E030E0E9
S113012002C028E030E0CA0184E0989F812D99271D
S113013011248230910559F08330910559F0892BAF
S113014019F480E090E008C08CE99FEF05C082E0DC
S113015090E002C088E090E0280F391F2A5F3F4FEB
S1130160CF01820F931F0895282F9FB7F894662319
S113017049F0E82FFF27EE56FE4F8081882311F0C7
S113018021E006C0E22FFF27EE56FE4F608320E0F9
S1130190892F99278FBF822F99270895E82F8FB72A
S11301A0F894282F332790E0FF27EE56FE4F8081E6
S11301B0861709F491E02FBF892F99270895882382
S11301C011F06E9A08956E980895882311F06F9A2D
S11301D008956F98089580E00E94DF00BA9ABB9852
S11301E0B99AB89A6C9A80E00E94E5006B986A9874
S11301F081E00E94DF00709A8DB18C7F8DB90895E3
S1130200282F9FB7F894E82FFF27E95CFE4F8081E1
S11302108F3F81F4E0913E02E21771F40BC020930A
S1130220300204C0FF27E95CFE4F208320933E0286
S113023020E007C025E005C0809130028F3F91F790
S1130240EECF892F99278FBF822F992708951F9367
S1130250182F81E00E94DF001FB9779BFECF8FB17A
S113026099271F9108958F929F92AF92BF92CF9238
S1130270DF92EF92FF920F931F93CF93DF938FB789
S1130280F8949927C0903902D0903A0280908B015B
S113029090908C01C0917301D091740120911C0144
S11302A030911D01EAE0AE2EB12CAC0EBD1E2A1514
S11302B03B0508F459018FBF7401EC0EFD1E860145
S11302C00C0F1D1F14C0C114D10419F0F801808152
S11302D001C080E00E9427018114910411F0F7010C
S11302E0808321960894E11CF11C0F5F1F4FC50108
S11302F00197C817D90738F381E00E94E5009FB73A
S1130300F894C114D10431F0CC0EDD1EF6018081C5
S11303108FB901C01FB8D0937401C0937301892FA2
S113032099278FBF80E090E0DF91CF911F910F91CB
S1130330FF90EF90DF90CF90BF90AF909F908F9001
S113034008952FB7F894332750931D0140931C014F
S113035090933A028093390270938C0160938B01DD
S113036010927401109273012FBF452B29F08FB1A5
S11303700E9433019927089589E00E94000180E0DA
S113038090E008958FB7F8949927109294018FBF45
S1130390089580E880933501109250011092330241
S11303A010922F0210924C010895CF93DF93FC0119
S11303B015A6DC019E96ED011B821A82198280E843
S11303C086A7DF91CF9108952F923F924F925F922B
S11303D06F927F928F929F92AF92BF92CF92DF9251
S11303E0EF92FF920F931F93CF93DF93CDB7DEB7B6
S11303F028970FB6F894DEBF0FBECDBF20905601EC
S11304003090570140905801509059016624772448
S11304108824BEE4AB2EA3E8BA2ECC24DD24EE243B
S1130420FF2400E010E0222D332D442D552D662DA0
S1130430772D882D90E00E94921629833A834B836E
S11304405C836D837E838F839887822E932EA42E64
S1130450B52E2401350100E20E949017A22EB32E7E
S1130460C42ED52EC301B2019695879577956795CD
S11304706A0D7B1D8C1D9D1D97FF05C09F776F5FC7
S11304807F4F8F4F9F4F6093560170935701809316
S113049058019093590128960FB6F894DEBF0FBE09
S11304A0CDBFDF91CF911F910F91FF90EF90DF901F
S11304B0CF90BF90AF909F908F907F906F905F9000
S11304C04F903F902F9008958FB7F89460917701E3
S11304D0709178012CB53DB506B602FE04C06F5F7D
S11304E07F4F2CB53DB599278FBF88279927CB011E
S11304F07727662744275527622B732B842B952B4C
S11305000895EF92FF920F931F930E9464027B0160
S11305108C01209160013091610140916201509100
S1130520630180915B0190915C01A0915D01B091A8
S11305305E01820F931FA41FB51FE216F306040782
S1130540150730F082179307A407B50758F005C0C4
S113055082179307A407B507E0F5E816F9060A071A
S11305601B07B8F59C01AD012E193F09400B510B37
S1130570213060E8360760E0460760E0560768F11E
S113058080E090E8A0E0B0E0E80EF91E0A1F1B1F0F
S1130590E0926001F09261010093620110936301A3
S11305A080E090E8AFEFBFEFE80EF91E0A1F1B1FB3
S11305B0205030484040504020935B0130935C0110
S11305C040935D0150935E0120E030E840E050E04C
S11305D014C020E030E040E050E08093600190934C
S11305E06101A0936201B093630110925B011092C8
S11305F05C0110925D0110925E01A901B7012CB556
S11306003DB5C9018E199F0903968417950720F0FB
S1130610B9016D5F7F4F02C0640F751F61157105CD
S113062011F461E070E0615070407BBD6ABD80E10F
S113063086BF87B7806187BF1F910F91FF90EF90AE
S113064008950F931F930FB7F894112760936001D7
S113065070936101809362019093630120935B0125
S113066030935C0140935D0150935E010E948102CE
S11306700FBF1F910F91089597B79F7D97BF90E289
S113068096BF882319F08EB5806402C08EB58F7B27
S11306908EBD87B7806287BF80E090E008957FB702
S11306A0F89462B720911F013091200140912101FB
S11306B05091220106B601FE0FC081B792B7280FF0
S11306C0311D411D511D2F5F3F4F4F4F5F4F290F6C
S11306D0311D411D511D04C0260F311D411D511DE9
S11306E0872F99278FBFCA01B9010895DF92EF922E
S11306F0FF920F931F938FB7F894282F3327D22E8E
S113070091B782B746B7981711F041FF02C02FBFC7
S11307106AC0809172018823E1F10E944F03E09046
S11307208E01F0908F010091900110919101209120
S113073031013091320140913301509134016E19ED
S11307407F09800B910B621773078407950720F0CC
S11307501092720171E01EC02E0D3F1D401F511FEB
S113076080911F0190912001A0912101B09122015B
S1130770281B390B4A0B5B0B273E310541055105FC
S113078040F4822F223010F070E005C070E082E067
S113079002C070E086EE682F615000B601FCFDCF08
S11307A082B7681709F46F5F20911F01309120010F
S11307B04091210150912201DA01C9010196A11D44
S11307C0B11D860F911DA11DB11D82179307A407AA
S11307D0B50710F4622F609561BFDFBE772319F06F
S11307E080E00E9400011F910F91FF90EF90DF9035
S11307F00895AFB7F894BB27E1E0E09372016093EA
S11308008E0170938F0180939001909391012093B6
S11308103101309332014093330150933401AFBF1F
S11308200E9476030895AF92BF92CF92DF92EF9227
S1130830FF920F931F93CF93DF93CDB7DEB7289723
S11308400FB6F894DEBF0FBECDBF20E070E0E0919C
S11308500001F091010132E14DE65CE46FE4809126
S113086001019E2F28960FB6F894DEBF0FBECDBFB0
S1130870DF91CF911F910F91FF90EF90DF90CF9078
S1130880BF90AF9008951F920F920FB60F9211244C
S11308908F9383B783BF00B600FCFDCF8F910F9079
S11308A00FBE0F901F90189578941F920F920FB659
S11308B00F9211240F900FBE0F901F9018957894EB
S11308C01F920F920FB60F9211240F900FBE0F902C
S11308D01F90189578941F920F920FB60F921124BF
S11308E02F933F938F939F932FB7F894332780913F
S11308F07701909178010196909378018093770124
S11309002FBF9F918F913F912F910F900FBE0F900A
S11309101F9018951F920F920FB60F9211240F90EB
S11309200FBE0F901F9018951F920F920FB60F9243
S113093011240F900FBE0F901F9018951F920F92C5
S11309400FB60F9211240F900FBE0F901F901895A1
S11309501F920F920FB60F9211240F900FBE0F909B
S11309601F9018951F920F920FB60F9211240F909B
S11309700FBE0F901F9018951F920F920FB60F92F3
S113098011240F900FBE0F901F9018951F920F9275
S11309900FB60F9211240F900FBE0F901F90189551
S11309A01F920F920FB60F9211242F933F934F93E0
S11309B05F936F937F938F939F93AF93BF93EF93C3
S11309C0FF9383B783BF00B600FCFDCF81B799279F
S11309D00196AA27BB2720911F0130912001409145
S11309E0210150912201280F391F4A1F5B1F2093B8
S11309F01F013093200140932101509322017894E8
S1130A000E947603FF91EF91BF91AF919F918F91D7
S1130A107F916F915F914F913F912F910F900FBEF6
S1130A200F901F9018950F931F93CF93DF93182F58
S1130A308FB7F894C82FDD270C2F61E080E00E9467
S1130A40B400882321F0CFBF85E090E024C08091DA
S1130A5006018823A1F480911301823081F409C036
S1130A6082E080931301109206010E94EB00B89A71
S1130A70C0981093030180E00FBF99270CC08091A8
S1130A801301882369F38FB7F89499271092920180
S1130A908FBF81E0F1CFDF91CF911F910F91089526
S1130AA00F931F93182F0FB7F89461E080E00E9412
S1130AB0B400882371F51093030180910601882303
S1130AC0A9F580911301823089F588E00CC00E9459
S1130AD0EB0080911301882349F481E08093130192
S1130AE010924D018AE00E9400012AC080915F01AA
S1130AF08F3F31F5E0910501EE2311F11CC01092F6
S1130B00040104C0FF27E15AFE4F10821092050130
S1130B1017C081E090E002C0880F991F1A95E2F790
S1130B2020911201282B209312010AC080911301F5
S1130B308823E1F6CCCF809104018F3F19F7DFCFF2
S1130B40802F99278FBF80E090E01F910F91089527
S1130B501F9383E00E9413059927182F882319F007
S1130B6083E00E945005812F99271F910895CF9209
S1130B70DF92EF92FF920F931F93CF93DF938C0139
S1130B80F62E6A01E22E8FB7F894C82FDD2760E0B5
S1130B9080E00E94CE00882321F0CFBF80E090E067
S1130BA01EC0CFBF0F0D111D802F80680E9427012A
S1130BB0F82E16950795802F807C0E9427010E2D14
S1130BC00AC0EE2DFF27E01BF109EC0DFD1D80810D
S1130BD00E94270101500023A1F78F2D9927DF914F
S1130BE0CF911F910F91FF90EF90DF90CF900895D8
S1130BF0CF93DF93CDB7DEB72C970FB6F894DEBF53
S1130C000FBECDBF8FB7F894282FAE014F5F5F4F53
S1130C10DA01ECECF1E088E001900D928150E1F70B
S1130C2080915101909152018987892F99278A8750
S1130C3080916401909165018B87892F99278C8716
S1130C402FBF2CE060E080E691E00E94B7052C966F
S1130C500FB6F894DEBF0FBECDBFDF91CF910895DC
S1130C601F93CF93DF93182F8FB7F894C82FDD27E6
S1130C7060E080E00E94CE00882321F0CFBF80E0B6
S1130C8090E005C0CFBF812F0E9427019927DF91F3
S1130C90CF911F910895EF92FF920F931F93CF93DB
S1130CA0DF93182F7B01042F8FB7F894C82FDD270B
S1130CB060E080E00E94CE00882321F0CFBF80E076
S1130CC090E014C0CFBF1064812F992790936901DD
S1130CD0809368010E942701182F402F5527B701E0
S1130CE080E090E00E94A101812F9927DF91CF91AC
S1130CF01F910F91FF90EF900895C09860911A0191
S1130D0070911B0141E08FE30E944B06089582E03D
S1130D1090E0909347018093460181E080935001D5
S1130D2020E030E080910301843011F421E030E0D0
S1130D30232B29F484E00E941305882319F40E94CC
S1130D407D06089584E00E94500508951F920F9235
S1130D500FB60F9211242F933F934F935F936F938A
S1130D607F938F939F93AF93BF93EF93FF93809160
S1130D70460190914701019749F482E090E09093F5
S1130D804701809346010E94870605C080914C016B
S1130D908F5F80934C01FF91EF91BF91AF919F9131
S1130DA08F917F916F915F914F913F912F910F9010
S1130DB00FBE0F901F9018951F93809112018823E6
S1130DC009F04BC0109103011F3F09F046C060E0D9
S1130DD00E94CE00882309F440C081E08093D501AD
S1130DE0809136018823E1F11092D50185E090E0ED
S1130DF045C0923069F5C09A8091040120E030E04A
S1130E008F3F11F421E030E0232BE9F41093060125
S1130E108F3F19F42FEF30E00DC0282F3327F9014D
S1130E20E15AFE4F8081809304018F3F11F41093A7
S1130E300501108320934D0181E0809313018AE022
S1130E400E94000105C0109306011092130111C005
S1130E5080911301882369F00FC081E090E00EC0F7
S1130E608091060190911301882319F2923021F0A8
S1130E70EFCF80E00E94DF0080E090E01F910895B2
S1130E801F93CF93DF939FB7F894C92FDD271C2FAF
S1130E9090910301981721F0CFBF81E090E03AC010
S1130EA08FEF80930301309112013323F1F48FB754
S1130EB0F8949927109292018FBF0E94DC06CFBF4D
S1130EC011C02093030181E090E002C0880F991FB4
S1130ED04A95E2F7809538233093120188E00E9406
S1130EE000011FBF80E090E015C080E065E0E32FC3
S1130EF0FF270E941318292F492F5527CF01042EAD
S1130F0002C0959587950A94E2F780FDDACF822F87
S1130F108F5FEFCFDF91CF911F9108951F93CF93F0
S1130F20DF938FB7F894C82FDD271C2F80914601DB
S1130F3090914701892B29F484E00E944007CFBF98
S1130F401EC01092500180914C01882311F0B79972
S1130F5004C00E9908C0882319F0815080934C0175
S1130F600E9487060BC081E090E090934701809334
S1130F70460110924C0184E00E9440071FBFDF919C
S1130F80CF911F9108950E94C901C09AC09888E02A
S1130F900E94300688E00E943006C09A84E00E94D5
S1130FA040070E948E070895FF920F931F93CF93DB
S1130FB0DF93F82E8B018FB7F894C82FDD2760E0FC
S1130FC080E00E94CE00882321F0CFBF80E090E033
S1130FD00CC0CFBF8F2D0E942701812F99270E941B
S1130FE02701802F0E9427019927DF91CF911F911C
S1130FF00F91FF9008951F931FB7F89480914B01B0
S1131000882319F460E070E009C060E08091380240
S1131010882309F461E081E06827772780915301F0
S1131020882319F480E090E00AC090E08091970151
S1131030882309F491E081E09827892F9927762F56
S11310406627770F770F770FF4E0880F991FFA95CB
S1131050E1F7826E9262682B792B81E10E94D407BA
S1131060812F99278FBF1F9108958FB7F8949927DF
S11310706091D4018FBF85E0689FB0011124625D47
S11310807E4F706488E10E94D4070895EF92FF9226
S11310901F93CF93DF93E0905401F0905501F70133
S11310A082A59927182F882309F41FE1C0988091FD
S11310B04A01811749F0612F77276F717070606E54
S11310C0706885E10E94D40710934A01F7011081EA
S11310D08FB7F894C82FDD2760E080E00E94CE002F
S11310E0882311F0CFBF12C0CFBF8EE390E090935E
S11310F06901809368018EE30E9427011150412FFA
S1131100552760E070E0C7010E94A101DF91CF91F3
S11311101F91FF90EF9008950F931F93CF93DF9348
S1131120EC010FB7F89411270E947000FC018FE3C3
S113113080830FBF109236021092350261E082E084
S11311400E94B400882319F085E090E072C0809179
S1131150D6018F5F8093D60181508B838FB7F8942B
S1131160082F112762E081E00E94CE00882329F431
S11311700FBF0E94C20181E05BC08FB7F89499272A
S113118024E0209393018FBFD0936F01C0936E012D
S11311900FBFFE013196818129819927982F8827D5
S11311A03327822B932B80729C7C8983892F9927E8
S11311B081832981982F882733272164822B932BBD
S11311C08983892F992781831CA618A619A619AA91
S11311D018AA1FA680E88EA761E06093960140914B
S11311E06E0150916F018FB7F894282F33278091A7
S11311F01401909115018830910511F0019711F0B7
S11312002FBF15C082E090E09093150180931401E4
S113121060933F02509355014093540110921E0174
S11312202FBF0E94A805882311F40E94460880E07D
S11312309927DF91CF911F910F910895CF93DF9359
S1131240DA01422F2D3118F082E090E05EC0ED010A
S11312508B876E83872F99278F832FB7F894332733
S113126080915101909152012FBFFD018483892FF8
S1131270992785832FB7F89433278091070190919C
S113128008012FBF8887892F992789873196818103
S113129029819927982F8827332720643868822B3F
S11312A0932B8983892F99278183435F4C934D50D6
S11312B080910A01882359F010920A01642FCD010C
S11312C00E948C089927282F8823A9F417C0842FFB
S11312D0992790936D0180936C01B0931901A093A9
S11312E018018CE00E94000180910A01882349F4CE
S11312F089E090E00AC08FEF80930A01822F99273A
S113130004C010925A0180E090E0DF91CF910895DB
S1131310AF92BF92CF92DF92EF92FF920F931F93FF
S11313205B016C016091810161FF20C02091790112
S113133030917A0140917B0150917C01E0907D01D4
S1131340F0907E0100917F0110918001D601C501CA
S1131350821B930BA40BB50B8E159F05A007B10739
S113136028F0E9E7F1E0A0E0B0E022C0E2E8F1E033
S113137060918A0161FF7FC02091820130918301D5
S11313804091840150918501E0908601F09087019D
S11313900091880110918901A21AB30AC40AD50ADE
S11313A0AE14BF04C006D10608F465C0A1E0B0E0E5
S11313B060FF04C080858D7F808708C02E0D3F1D8F
S11313C0401F511F2083318342835383AA2309F092
S11313D052C020917001309171012F5F3F4F3093C3
S11313E071012093700180910201882309F043C0A8
S11313F080910001909101018093A501892F992783
S11314008093A4012093A701832F99278093A60199
S113141048E951E08FEF80939E0180939F0186E01D
S11314208093A3018091750190917601892B19F520
S1131430509376014093750181E1809398018091E6
S11314400D018823A9F010920D0124E06FEF7FEFC6
S113145086E00E941E099927282F882349F081E0FD
S113146080930D011092760110927501222319F4D4
S113147081E08093020181E00E9400011F910F919D
S1131480FF90EF90DF90CF90BF90AF9008951F939F
S1131490CF93DF93182FEB01E82FFF27EE0FFF1FE9
S11314A0EB58FE4F1182108210920D01E0917501EC
S11314B0F0917601309721F08091340280FF10C0C2
S11314C081E080930D0103C08EE00E94000111238E
S11314D0C9F4C859D140B1F481E08093020112C02B
S11314E020812D50332767817727762F66278681C1
S11314F09927682B792BAF0183850E941E098823C5
S113150031F3E2CFDF91CF911F9108959B01809138
S11315100D01882349F46091750170917601621779
S1131520730711F40E94470A08951F93182F81E04E
S113153090E09093150180931401109236010E945B
S1131540DC068FB7F894992710930E018FBF84E0BF
S11315500E9400011F91089578941F920F920FB674
S11315600F9211242F923F924F925F926F927F922B
S11315708F929F92AF92BF92CF92DF92EF92FF929F
S11315800F931F932F933F934F935F936F937F9387
S11315908F939F93AF93BF93CF93DF93EF93FF9377
S11315A0C6B5D7B58FB7F894282E0E9464029B0164
S11315B02C1B3D0B442755272B013C01421A530A8F
S11315C0640A750A80911401909115018530910582
S11315D021F0069709F0E0C0BFC086E090E0909348
S11315E015018093140131E0332E30924F01109293
S11315F0160180E00E943C03E0915401F0915501F2
S113160041AABB27A72D962D852D80ABC301AA2700
S1131610BB2787A7872D9927AA27BB2786A7E091F1
S11316205401F091550185A5882309F484C0608193
S1131630655077274F01860E971EF4012081E180C3
S11316408281A3809927AA27BB27BA2FA92F982F75
S11316508827332744275527522F44273327222707
S1131660FF24002711278701FF24EE242E293F2978
S1131670402B512BBB24CC24DD242A293B294C2983
S11316805D29822B932BA42BB52B84199509A609CC
S1131690B7098383292F3A2F4B2F552722839D0186
S11316A04427552721838B2F9927AA27BB2780837B
S11316B0C09824E0A40180E090E00E94B705C09A9D
S11316C0F4012081E1808281A3809927AA27BB2786
S11316D0BA2FA92F982F8827332744275527522F0D
S11316E0442733272227FF24002711278701FF24BB
S11316F0EE242E293F29402B512BBB24CC24DD245E
S11317002A293B294C295D29822B932BA42BB52B09
S1131710840D951DA61DB71D8383292F3A2F4B2FAA
S1131720552722839D014427552721838B2F9927F1
S1131730AA27BB278083E0915401F0915501818150
S113174085FF02C03092360183E00E94400787B7CC
S11317508F7E87BF84997AC010924F0181E00E94E6
S11317603C03E0915401F0915501818185FF0FC044
S113177087E090E090931501809314010E94640225
S113178020E031E040E050E00E94210303C080E00B
S11317900E94950A849B5AC080911601882391F572
S11317A080914F01882371F511E010934F010E943D
S11317B03C0380B320912F02283098F4E091330247
S11317C0E20FFF27E770F070EE0FFF1FEE0FFF1F11
S11317D0E552FE4F40825182628273822F5F2093D2
S11317E02F0210931601D0936B01C0936A01849960
S11317F02DC0992714E0969587951A95E1F7182F2F
S1131800117001C010E080914F018130F9F4109201
S11318104F010E943C03109216011123B9F48091E8
S11318206A0190916B01C81BD90B2A9778F48091B7
S11318302F02882319F0815080932F028091540144
S113184090915501009711F00E94D5012FBEFF9190
S1131850EF91DF91CF91BF91AF919F918F917F9144
S11318606F915F914F913F912F911F910F91FF9035
S1131870EF90DF90CF90BF90AF909F908F907F902C
S11318806F905F904F903F902F900F900FBE0F90EE
S11318901F90189561E081E00E94B4008823E9F468
S11318A08FB7F894282F332780910F01909110015E
S11318B0892B11F02FBF20C081E090E0909310019C
S11318C080930F012FBFDD9A0E94640224E130E06F
S11318D040E050E00E9421030FC062E081E00E94DA
S11318E0CE00882319F089E090E0089561E081E05A
S11318F00E94CE00882319F080E090E0089585E0EE
S113190090E00895CF92DF92EF92FF920F931F938E
S1131910CFB6F894DD240E94E401DC01CB0166E437
S113192070E00E941F184BE0E42EF12CE80EF91E23
S1131930F0923C02E0923B020E94640200271127CD
S1131940A80197010E942103CFBE1F910F91FF9020
S1131950EF90DF90CF9008951F93CF93DF938FB7CD
S1131960F894C82FDD271C2F809114019091150144
S11319700897C9F489E00E94300683E00E9440077A
S1131980C09A81E090E090931501809314018FB781
S1131990F894992723E020930E018FBF84E00E94DE
S11319A00001CFBF30C0C09880913F02882311F05E
S11319B085E001C084E00E94300683FD09C080E018
S11319C00E94300683FF04C085E090E020E003C05D
S11319D083E090E021E09093150180931401C09A74
S11319E01FBF222341F010921E0183E00E94400792
S11319F00E94820C08C00E94640220E431E040E0AE
S1131A0050E00E942103DF91CF911F910895EF923E
S1131A10FF920F931F93CF93DF938B018091680103
S1131A209091690186FF40C18F7B8F3309F08EC18D
S1131A30C0911A01D0911B015881509348018091A3
S1131A404601909147018530910509F443C08630E1
S1131A50910509F48AC0029709F01FC185E090E05E
S1131A60909347018093460140913501852F992732
S1131A700196242F3327281739074CF1B79906C04C
S1131A800E9904C0451B41504093350140914801D3
S1131A904A32E8F44423A1F0BE016F5F7F4F48301F
S1131AA018F047E050E007C086E090E090934701CB
S1131AB080934601552780E090E00E94A10146C131
S1131AC010925001C09A84E00E944007E3C00E9433
S1131AD0C3073CC186E090E09093470180934601A0
S1131AE080915301882309F439C080919701882398
S1131AF0A9F5898185FF32C08F814E812FB7F89473
S1131B00332760916401709165012FBF9927982F45
S1131B1088275527842B952B8617970759F08F8193
S1131B202E819927982F88273327822B932B8F5F19
S1131B309F4FA1F489818770813081F4C09AC09845
S1131B408AE00E943006C09AC098409148014750EC
S1131B502896BE018FE30E944B06F8C040914801CD
S1131B60475055272896BE01A6CFC09A80914C01B4
S1131B70882339F484E00E94400780914C01882333
S1131B8011F0B7990AC00E9B08C090912F029923B7
S1131B9021F0809148018B3038F480911A019091A2
S1131BA01B010E94D5013DC0913001F5E091330243
S1131BB0FF27EE0FFF1FEE0FFF1FE552FE4F2081A0
S1131BC0318142815381E0911A01F0911B0121ABD3
S1131BD0BB27A52F942F832F80ABCA01AA27BB272D
S1131BE087A7252F33274427552726A7809133021B
S1131BF09927019668E070E00E94331880933302BD
S1131C0080912F02815080932F02882351F080917C
S1131C101A0190911B010E94D50110923302109277
S1131C202F0280914801FE01E80FF11D808187FF9A
S1131C3031C0012B79F169816770E0911A01F0914B
S1131C401B01623019F5A0915401B0915501109710
S1131C5009F180911401909115010797D9F4ED01D0
S1131C609B8183819817B1F487B78F7E87BF90815A
S1131C7081E08CA7E90FF11D8291319688A78081BC
S1131C808F7789A780E00E94950A04C0613011F41F
S1131C908BE02AC00E948E0759C010925001C09A4E
S1131CA084E00E94400752C08E3309F04FC0C09AAE
S1131CB080911401909115010897C9F4C09889E0A6
S1131CC00E943006C09A83E00E94400781E090E0C1
S1131CD090931501809314018FB7F894992723E00A
S1131CE020930E018FBF84E00E9400012FC08091D9
S1131CF03F02882349F484E090E090931501809397
S1131D0014010E94AC0C22C083E00E94400783E0CF
S1131D1090E090931501809314010E94E401DC018A
S1131D20CB0166E371E00E941F185BE0E52EF12C05
S1131D30E80EF91EF0923001E0922F010E94640235
S1131D4000271127A80197010E942103DF91CF9159
S1131D501F910F91FF90EF9008951F920F920FB66D
S1131D600F9211242F933F934F935F936F937F931D
S1131D708F939F93AF93BF93EF93FF932FB1E09112
S1131D808B01F0918C01309739F08091730190911F
S1131D907401E80FF91F20838091730190917401FD
S1131DA00196909374018093730180E00E94E50092
S1131DB040911C0150911D01809173019091740117
S1131DC08417950718F40E9433011CC060918B019D
S1131DD070918C018091390290913A0210928C0199
S1131DE010928B0110923A021092390210921D0146
S1131DF010921C0110927401109273012FB120E013
S1131E000E94070DFF91EF91BF91AF919F918F9128
S1131E107F916F915F914F913F912F910F900FBEE2
S1131E200F901F901895AF92BF92CF92DF92EF92CE
S1131E30FF920F931F93CF93DF93CDB7DEB7A8978D
S1131E400FB6F894DEBF0FBECDBF873009F4C7C10B
S1131E50883098F4833009F449C1843038F48130EF
S1131E6009F45BC0823008F0D8C024C0853009F47E
S1131E7094C1863008F0ACC13FC18B3009F4DCC298
S1131E808C3038F4893009F4A0C28A3008F0C0C21A
S1131E90E1C18D3039F08D3008F477C48E3009F00B
S1131EA0D0C4BEC480913402882309F4CAC440E07B
S1131EB051E094C480914901882361F52091D701B0
S1131EC03091D8014091D9015091DA01EFB7F894DB
S1131ED0FF2760918E0170918F0180919001909104
S1131EE09101E0903101F0903201009133011091A1
S1131EF034016E0D7F1D801F911FEFBF2093D7010A
S1131F003093D8014093D9015093DA0110924901DA
S1131F100E94F9030E944F036DC00E944F035B01AE
S1131F206C018FB7F8949927109272018FBF80913A
S1131F30810181FF25C08091790190917A01A0915E
S1131F407B01B0917C01A6019501281B390B4A0B3A
S1131F505B0BE0907D01F0907E0100917F01109178
S1131F608001E21AF30A040B150B3FEFE3163FEF6F
S1131F70F3063FEF03073FE7130711F061E009C0E1
S1131F805FEFE52E5FEFF52E5FEF052F5FE7152F6F
S1131F9060E080918A0181FF21C08091820190914B
S1131FA08301A0918401B0918501A6019501281BAC
S1131FB0390B4A0B5B0BDA01C90120918601309180
S1131FC087014091880150918901281B390B4A0BE4
S1131FD05B0B2E153F05400751072CF0662309F4CF
S1131FE030C4A801970112161306140615062CF026
S1131FF0C601B5010E94880924C42093D7013093F7
S1132000D8014093D9015093DA0181E080934901CA
S1132010C601B5010E94F90314C40FB7F89411273F
S113202081E00E943C0341E0E42EF12CF092150182
S1132030E0921401109216011092360110924A0196
S11320400FBF0FB7F89411270E94C901F0924701FE
S1132050E09246011092500189B78F7B89BF80E4DA
S113206088BF8AB780628ABF8AB78F7E8ABF89B7E2
S1132070806489BF0FBF8FB7F894082F1127809110
S11320800F0190911001049719F483E00E94300627
S11320900FBF0FB7F8941127C09A80E00E94400741
S11320A00FBF8FB7F894992722E0209393018FBF35
S11320B00E944F036093790170937A0180937B01AE
S11320C090937C018AEF90E0A0E0B0E080937D01E2
S11320D090937E01A0937F01B09380018091810150
S11320E08E7F82608093810181E0B1C08FB7F894C4
S11320F099271092930171C08FB7F8949927F090A3
S11321000E018FBF63E081E00E94CE00882359F165
S11321100FB7F8941127109215011092140187B784
S11321208F7E87BF87B78F7D87BF83E00E9440077C
S1132130C09A0FBF0FB7F89411271092470110925D
S113214046010E94C901C09A89B78F7B89BF0FBF1E
S11321501092100110920F01DE98DD98DE9A83E050
S11321600E94000107C08FB7F894992722E02093BA
S113217093018FBF00916E0110916F010E94C20103
S11321808091350290913602892B09F05AC38FEF62
S113219080930A014F2DB80118C38FB7F894282FE4
S11321A03327122F80913D02882309F581E0809323
S11321B03D0280910F0190911001049721F481E078
S11321C00E94500503C086E00E9400011FBF39C36E
S11321D08FB7F894992710923D028FBF32C38FB7FF
S11321E0F894282F332780911101882311F02FBFF1
S11321F028C32FBF80B3992736E0969587953A95E3
S1132200E1F7182F11709091660180916701891789
S1132210D9F01917C9F484E090E0909310018093E9
S11322200F018FB7F894992721E0209311018FBFF4
S113223060E070E08DE10E94D4070E94F805C09A26
S1132240C09882E00E9400011093670187E00E9419
S11322500001F7C28FB7F8949927109103018FBF3B
S1132260123009F465C0133030F4112359F01130E1
S113227009F0E7C248C0133009F474C0143009F0FF
S1132280E0C2A0C0C0988FB7F894082F112780919E
S11322900F01909110010297A1F583E090E09093D3
S11322A0100180930F0168E170E08DE10E94D40772
S11322B081E0809366011092110180B3992726E092
S11322C0969587952A95E1F78170907080936701C0
S11322D087E00E94000181E00E9430066FE772E00F
S11322E08CE10E94D4070E9435080E94FB0766E532
S11322F07AE287E10E94D4076FEF70E885E10E94DB
S1132300D4070FBF9EC2C09886E00E9430060E9488
S113231035080E94FB070E94F805C09AC09883E024
S11323200E943006C09A81E00E94400786E08FCF69
S1132330C0988FB7F894082F112760E080E00E94BE
S1132340CE00882311F00FBF0AC00FBF83E50E949F
S1132350270180E00E94270180E00E942701C09AA3
S113236082E02DC08FB7F8949927209114018FBF74
S1132370243039F0283041F0223001F50E9446081B
S113238060C20E94AC0C5DC2C09889E00E94300615
S1132390C09A83E00E9440078FB7F894992721E000
S11323A030E030931501209314018FBF8FB7F89458
S11323B0992710930E018FBF84E049CF83E00E94D8
S11323C040073FC20E947D063CC20FB7F894112714
S11323D040911C0150911D0160918B0170918C0101
S11323E08091390290913A0210928C0110928B01E3
S11323F010923A021092390210921D0110921C019F
S1132400109274011092730120E00E94070D79CF9D
S11324102FB7F894332780914D018093060182E011
S1132420809313012FBF80910601882309F009C20C
S1132430B89AC09888E00BCFA0911A01B0911B0103
S1132440DC909D012D0D311DF9018081881F8827A5
S1132450881FFD0183A7F90180818F77FD0181A782
S113246021503040F9018081FD0180A7A0911A011B
S1132470B0911B01FD0132818FB7F8949927209107
S11324804B018FBF222309F490C0832F992796957F
S1132490879596958795837090708230910541F564
S11324A0878146812FB7F894332760916401709136
S11324B065012FBF9927982F88275527842B952BA3
S11324C08617970719F481E090E06CC0FD018781BD
S11324D0268140E050E09927982F88273327822BC4
S11324E0932B8F5F9F4F11F441E050E0CA015AC013
S11324F0039709F041C19E012F5F3F4F4CEC51E01F
S113250088E0FA010190AF01F90101929F01815025
S1132510C1F79E012F5D3F4FAE014F5F5F4F88E0D3
S1132520FA010190AF01F90101929F018150C1F7B5
S11325309E01275F3F4FAE014F5D5F4F88E0FA0178
S11325400190AF01F90101929F018150C1F79E01F1
S11325502F5E3F4FAE01475F5F4F88E0FA01019065
S1132560AF01F90101929F018150C1F79E01275EDD
S11325703F4FAE014F5E5F4F88E0FA010190AF011B
S1132580F90101929F018150C1F748E050E0BE017A
S1132590675E7F4FCD0106960E949C18892B09F037
S11325A0EBC003C0882309F4E7C0FCE0FD1508F084
S11325B0E3C0E0901A01F0901B01F7012281822F01
S11325C0992736E0969587953A95E1F7039719F49C
S11325D068E070E002C062E070E0822F992796956F
S11325E087959695879583709070039719F488E082
S11325F090E002C082E090E026E030E0E20EF31EBC
S113260040E050E020E030E0F701E80FF91F8AEFE6
S11326109FEFE80EF91E05C08191480F511D2F5FF1
S11326203F4F26173707C4F3F70163818FEF809379
S113263037028FB7F894782F20E030E0E3E2F1E03E
S1132640808191818417950731F48281861709F47A
S11326508CC0209337022F5F3F4F339624303105CF
S113266079F77FBF909137023FB7F8949F3F21F0ED
S113267080911701891799F420911701822F9927C6
S1132680FC01EE0FFF1FE80FF91FED5DFE4F5183B4
S1132690408362832F5F2370209317010CC0892F1E
S11326A09927FC01EE0FFF1FE80FF91FED5DFE4FA8
S11326B0518340836283832F99278FBF0FB7F89488
S11326C01127C7010E947000FC0190810FBFF70120
S11326D083A5882309F44CC09F3309F049C087813E
S11326E046812FB7F8943327609107017091080150
S11326F02FBF9927982F88275527842B952B86172A
S1132700970759F0878126819927982F882733279F
S1132710822B932B8F5F9F4F59F5F701838586306A
S113272039F5F1E1DF1621F5F7018485258599272F
S1132730982F88273327822B932B0297C9F48685F9
S113274027859927982F88273327822B932B80FF5F
S113275002C0DA9801C0DA9A81FF02C0D99801C098
S1132760D99A82FF04C0D89803C07FBF01C0D89A09
S1132770F0921B01E0921A018FB7F89499271092F6
S113278050018FBF0E948E075CC090915A018091C6
S11327900A01981709F455C090930A019923D1F4BA
S11327A0009118011091190160916C01C8010E94F7
S11327B08C08482F5527442309F443C08FEF809396
S11327C00A016091180170911901F80183850E9432
S11327D0860A37C08FEF80930A0133C09091340288
S11327E0852F8923C1F0E42FFF27EE0FFF1FEB583D
S11327F0FE4F2081318111821082852F809598238C
S113280090933402442339F428593140B9F481E0D7
S11328108093020113C04F5F483098F4550FDECF08
S113282080910D01E82FFF27EE0FFF1FEB58FE4F9D
S11328306081718141E00E94470A03C0550F41E065
S1132840CDCFA8960FB6F894DEBF0FBECDBFDF91F3
S1132850CF911F910F91FF90EF90DF90CF90BF9099
S1132860AF900895809130028F3FB1F0282F332725
S1132870F901E95CFE4F8081809330028F3F11F4AF
S113288080933E028FEF80832F3F31F0822F0E948E
S1132890130F81E090E0089580E090E008951F9385
S11328A0CF93DF93CDB7DEB7E0970FB6F894DEBFD2
S11328B00FBECDBF1FB7F8944FE050E06FEF70E04C
S11328C087E391E00E94A9188FEF809330028093F0
S11328D03E0281E08EBD88E080BF83E083BF8CB57B
S11328E09DB54AE72CB53DB52817390708F4415082
S11328F0442311F0C901F6CF92B782B78917E9F3DF
S11329002CB53DB592B782B78917E9F38CB59DB55F
S1132910821B930B409665E0969587956A95E1F73F
S1132920909332028093310213BE83B78EBD8EB56D
S113293080BF12BE1DBC1CBC8FEF86BF86B78093C0
S11329407C0080B7992787709070892BD1F7D29A31
S1132950D19AD09ADA9AD99AD89A15BA8FEF84BBB9
S1132960D498DC981DBC1CBC87B7846087BF8EB527
S1132970887F84608EBD0E9432148823E1F78FEF34
S113298080934E01E3E2F1E08FEF9FEF9183808328
S11329901282339621E0EF32F207C1F70E94E4017C
S11329A06093D60180910001909101010196AA27BC
S11329B0BB278093560190935701A0935801B0937D
S11329C059018BEF91E090931B0180931A018E982B
S11329D0B89A8C988FEF80935F01109292011092B5
S11329E093011092940110929501B89AD69AD59AAF
S11329F08FB7F894992720910701309108018FBF70
S1132A0030936501209364010E94130429A73AA717
S1132A104BA75CA76DA77EA78FA798ABDE01919605
S1132A20FE01B99688E001900D928150E1F7DE0134
S1132A305196FE01B19688E001900D928150E1F724
S1132A40DE015996FE01719688E001900D92815045
S1132A50E1F7ACECB1E0FE01799688E001900D92CB
S1132A608150E1F780910901992790935201809355
S1132A7051018FE180938D018FE08093D4010E94F6
S1132A80130429A73AA74BA75CA76DA77EA78FA716
S1132A9098ABDE019196FE01B99688E001900D9203
S1132AA08150E1F7DE011196FE01B19688E00190B4
S1132AB00D928150E1F7DE011996FE01319688E00E
S1132AC001900D928150E1F7ACECB1E0FE01399632
S1132AD088E001900D928150E1F7ACECB1E0FD018A
S1132AE037969C9180818D939083319781E0EF3C60
S1132AF0F807B9F781E080934B0110923802809374
S1132B0053011092970180B7886080BF8BE083BF28
S1132B1086EE81BF87B7826087BF0E9476030E94DA
S1132B2032148823E1F7812F99278FBF78940E946C
S1132B304A0C8FB7F894482F55274BC087B799276D
S1132B4083709070892B19F4E5E0F0E013C080B72E
S1132B50992787709070892BD1F781B792B7891B19
S1132B608C3030F082B7853F18F4E3E0F0E002C027
S1132B70E2E0F0E087B7887BC1F480917D008B7F31
S1132B80A1F46E9912C08AB190919A00892B887130
S1132B9061F48091740082FD08C0379B03C081E01A
S1132BA090E005C085E090E002C080E090E025B7A9
S1132BB08E1708F4E82FFF27E457FF4FE491237E94
S1132BC02062E22BE5BF78948895F89485B78F7DD1
S1132BD085BF809130028F3F09F4B0CF282F33276F
S1132BE0F901E95CFE4F8081809330028F3F11F43C
S1132BF080933E028FEF80832F3F09F49FCF4FBF16
S1132C00822F0E94130F95CF78941F920F920FB6C4
S1132C100F9211241F932F933F934F935F936F93BE
S1132C207F938F939F93AF93BF93EF93FF9387B754
S1132C308F7E87BF78941FB7F89480915B01909141
S1132C405C01A0915D01B0915E010097A105B10501
S1132C5009F051C0809114019091150185309105BE
S1132C6061F18630910530F48330910549F0049781
S1132C7081F51AC087309105F1F0089751F514C019
S1132C80869B0FC084E090E090931501809314011B
S1132C900E94640227E030E040E050E00E942103FB
S1132CA018C00E94820C15C00E94A805882389F4CC
S1132CB00E94AC0C0EC080E00AC089E00E9430067D
S1132CC081E00E943C0383E00E94400787E00E9469
S1132CD0950A80910F0190911001019771F482E09F
S1132CE090E09093100180930F01DE98DE9A80E0CB
S1132CF00E94500502C00E948102812F99278FBF34
S1132D00FF91EF91BF91AF919F918F917F916F91BF
S1132D105F914F913F912F911F910F900FBE0F9094
S1132D201F901895ACE2B0E0E8E9F6E10C94651860
S1132D30222E332E442E552E662E772E882E992E33
S1132D40FE013196A8E01192AA95E9F729823A8208
S1132D504B825C826D827E828F829886FE013996D8
S1132D60B8E01192BA95E9F7A986BA86CB86DC86D3
S1132D70ED86FE860F87188B89819A81AB81BC8191
S1132D8089A79AA7ABA7BCA77C018D018FEF9FEF02
S1132D90A0E0B0E0E822F9220A231B2389A59AA522
S1132DA0ABA5BCA51D014424552489859A85AB8512
S1132DB0BC858DA39EA3AFA3B8A75C016D018FEF63
S1132DC09FEFA0E0B0E0A822B922CA22DB228DA1A5
S1132DD09EA1AFA1B8A53D0188249924C801B701DB
S1132DE0A60195010E94461869A37AA38BA39CA30C
S1132DF0C801B701A40193010E9446187B018C010C
S1132E00C201B101A60195010E9446185B016C0143
S1132E10C201B101A40193010E9446183B014C0177
S1132E20EA0CFB1C0C1D1D1D89A19AA1ABA1BCA120
S1132E309D01442755272E0D3F1D401F511F2A1564
S1132E403B054C055D0540F480E090E0A1E0B0E076
S1132E50680E791E8A1E9B1ECA01AA27BB27860DEF
S1132E60971DA81DB91D8D8F9E8FAF8FB8A3A90183
S1132E703327222789A19AA1ABA1BCA1A070B0706D
S1132E80280F391F4A1F5B1F298F3A8F4B8F5C8F86
S1132E90A98CBA8CCB8CDC8CED8CFE8C0F8D18A19C
S1132EA0FE01719698E011929A95E9F7ED8AFE8AEF
S1132EB00F8B188F2D813E814F8158856DA17EA186
S1132EC08FA198A50E9446183B014C012D853E8593
S1132ED04F85588969A57AA58BA59CA50E9446189B
S1132EE02D893E894F89588D260F371F481F591F3A
S1132EF0260D371D481D591D2D8B3E8B4F8B588F2A
S1132F006D887E888F88988C2A2D3B2D4C2D5D2DC5
S1132F10662D772D882D992DE2E1AC960C948118BD
S1132F20A0E1B0E0E6E9F7E10C946518222E332E17
S1132F30442E552E662E772E882E992E002309F4C2
S1132F4066C088E0FE01319611928A95E9F72983DB
S1132F503A834B835C836D837E838F829887E0E220
S1132F60E01B1E16CCF52D813E814F815885602FC4
S1132F70772767FD7095DA01C901062E04C0B6955E
S1132F80A795979587950A94D2F78D879E87AF87E3
S1132F90B88B04C0220F331F441F551FEA95D2F784
S1132FA089819A81AB81BC8104C0B695A795979518
S1132FB087956A95D2F7282B392B4A2B5B2B2987C7
S1132FC03A874B875C8729843A844B845C846D847C
S1132FD07E848F8498881BC01D861E861F86188A4F
S1132FE02E2F332727FD3095309521953F4F8D8126
S1132FF09E81AF81B88504C0B695A79597958795AE
S11330002A95D2F789879A87AB87BC87DCCF222D94
S1133010332D442D552D662D772D882D992DE2E1E4
S113302060960C948118991B79E004C0991F961737
S113303008F0961B881F7A95C9F780950895AA1BF6
S1133040BB1B51E107C0AA1FBB1FA617B70710F08F
S1133050A61BB70B881F991F5A95A9F780959095C1
S1133060BC01CD01089597FB092E07260AD077FDF0
S113307004D0E5DF06D000201AF4709561957F4FE7
S11330800895F6F7909581959F4F0895629FD0011A
S1133090739FF001829FE00DF11D649FE00DF11D0F
S11330A0929FF00D839FF00D749FF00D659FF00DBE
S11330B09927729FB00DE11DF91F639FB00DE11DAB
S11330C0F91FBD01CF01112408952F923F924F9211
S11330D05F926F927F928F929F92AF92BF92CF92A4
S11330E0DF92EF92FF920F931F93CF93DF93CDB7AD
S11330F0DEB7CA1BDB0B0FB6F894DEBF0FBECDBF25
S113310009942A88398848885F846E847D848C84F5
S11331109B84AA84B984C884DF80EE80FD800C81FE
S11331201B81AA81B981CE0FD11D0FB6F894DEBFE1
S11331300FBECDBFED010895FB01DC0104C08D91EC
S11331400190801921F441505040C8F7881B990B15
S11331500895DC0101C06D9341505040E0F708959B
S1053160FFCF9B
S1113162010001FFFFFFFF010022FFFFFF013C
S9030000FC
