S01800006275696C642F6D6963617A2F6D61696E2E73726563E5
S11300000C945E000C941E060C9428060C94320684
S11300100C943C060C9446060C9450060C94A108CF
S11300200C945A060C947D000C947D000C94DA1AFE
S11300300C94470F0C94E8050C94FE050C940E07E1
S11300400C94D7050C947B110C947D000C947D00CA
S11300500C947D000C9464060C947D000C947D003B
S11300600C94F3050C947D000C947D000C947D009D
S11300700C947D000C947D000C947D000C947D0008
S11300800C947D000C94A50D0C947D00091266124D
S11300906C12BD12D912E0121813D513F8130C14F4
S11300A0EB151E1676169F16F516451748175B179F
S11300B073170112451800081C18141011241FBED0
S11300C0CFEFD0E1DEBFCDBF11E0A0E0B1E0EEE2C2
S11300D0FDE300E00BBF02C007900D92A431B1070D
S11300E0D9F712E0A4E1B1E001C01D92AA39B10729
S11300F0E1F70E949D180C94961E0C9400008FB793
S1130100F894992708958FBF08958FB7F894992785
S11301102BB332E023272BBB8FBF08958FB7F894FE
S113012099272BB334E023272BBB8FBF0895FC0101
S113013082819927582F442781819927482B592B4D
S1130140CA01892F9927869586958370907082308D
S1130150910559F08330910559F0892B19F420E069
S113016030E008C02CE93FEF05C022E030E002C0D7
S113017028E030E0CA0184E0989F812D992711245A
S11301808230910559F08330910559F0892B19F487
S113019080E090E008C08CE99FEF05C082E090E029
S11301A002C088E090E0280F391F2A5F3F4FCF013B
S11301B0820F931F0895282F9FB7F894662349F060
S11301C0E82FFF27E250FE4F8081882311F021E0C1
S11301D006C0E22FFF27E250FE4F608320E0892F04
S11301E099278FBF822F99270895E82F8FB7F89406
S11301F0282F332790E0FF27E250FE4F8081861797
S113020009F491E02FBF892F99270895882311F0CD
S11302106E9A08956E980895882311F06F9A089540
S11302206F98089580E00E940601BA9ABB98B99A23
S1130230B89A6C9A80E00E940C016B986A9881E0ED
S11302400E940601709A8DB18C7F8DB908950F9329
S11302501F93CF93DF93182F8FB7F894C82FDD2700
S11302600C2F61E080E00E94DB00882321F0CFBFE7
S113027085E090E024C0809105018823A1F4809159
S11302801901823081F409C082E08093190110922F
S113029005010E941201B89AC0981093020180E0EF
S11302A00FBF99270CC080911901882369F38FB778
S11302B0F89499271092FE018FBF81E0F1CFDF916E
S11302C0CF911F910F910895282F9FB7F894E82F8D
S11302D0FF27E85BFE4F80818F3F81F4E091970216
S11302E0E21771F40BC02093860204C0FF27E85B79
S11302F0FE4F20832093970220E007C025E005C02D
S1130300809186028F3F91F7EECF892F99278FBF77
S1130310822F992708951F93182F81E00E940601C8
S11303201FB9779BFECF8FB199271F9108958F92A4
S11303309F92AF92BF92CF92DF92EF92FF920F9370
S11303401F93CF93DF938FB7F8949927C0909102AE
S1130350D09092028090F4019090F501C091C9016F
S1130360D091CA0120912B0130912C01EAE0AE2EEC
S1130370B12CAC0EBD1E2A153B0508F459018FBFE4
S11303807401EC0EFD1E86010C0F1D1F14C0C11458
S1130390D10419F0F801808101C080E00E948B0132
S11303A08114910411F0F701808321960894E11CD3
S11303B0F11C0F5F1F4FC5010197C817D90738F308
S11303C081E00E940C019FB7F894C114D10431F06C
S11303D0CC0EDD1EF60180818FB901C01FB8D09309
S11303E0CA01C093C901892F99278FBF80E090E08B
S11303F0DF91CF911F910F91FF90EF90DF90CF90FD
S1130400BF90AF909F908F9008952FB7F8943327A3
S113041050932C0140932B0190939202809391026C
S11304207093F5016093F4011092CA011092C9010E
S11304302FBF452B29F08FB10E949701992708956A
S113044087E00E94640180E090E008958FB7F894FB
S11304509927109200028FBF0895982F969596952C
S11304609695E6E4F1E0E90FF11D877021E030E0B4
S113047002C0220F331F8A95E2F7808182239927D5
S11304800895982F969596959695EFECF1E0E90FDF
S1130490F11D877021E030E002C0220F331F8A95DE
S11304A0E2F7808182239927089580918902882325
S11304B019F02FE170E002C078E022E0622FEFB77C
S11304C0F894809163018E7F8093630187B1982FA4
S11304D09F71829586958695837019F080E090E0EF
S11304E012C0822F8850863118F081E090E00BC052
S11304F040E050E03327892F99272817390711F452
S113050041E050E0CA01982F9170990F80916301E6
S11305108178262F2F71422F440F440F892B842B6F
S113052080936301332727B9783059F58091870286
S11305309091880221E08638920718F087E090E0D5
S11305401FC0833C910518F086E090E019C0813605
S1130550910518F085E090E013C08033910518F000
S113056084E090E00DC08831910518F083E090E0BC
S113057007C00C9718F082E090E002C080E090E0A1
S1130580782F7770887D872B886D992786B98E2F71
S113059099278FBF08958FB7F894992720917400F5
S11305A02093F6018FBF0895EF920F931F93AE2D02
S11305B099E0899FF0011124E053FE4F4083518359
S11305C0628373830483158326833783A1708085B4
S11305D08E7F8A2B826080878BE00E9464011F914A
S11305E00F91EF9008957FB7F89462B720912F018F
S11305F030913001409131015091320106B601FE33
S11306000FC081B792B7280F311D411D511D2F5FB7
S11306103F4F4F4F5F4F290F311D411D511D04C0E6
S1130620260F311D411D511D872F99278FBFCA01E8
S1130630B90108950E94CB028091F6018E7F8069F2
S11306408093F601809374000895DF92EF92FF92F5
S11306500F931F938FB7F894282F3327D22E91B777
S113066082B746B7981711F041FF02C02FBF6AC086
S11306708091C8018823E1F10E94F302E090FA011D
S1130680F090FB010091FC011091FD0120914101CA
S11306903091420140914301509144016E197F0908
S11306A0800B910B621773078407950720F0109253
S11306B0C80171E01EC02E0D3F1D401F511F8091C7
S11306C02F0190913001A0913101B0913201281B8A
S11306D0390B4A0B5B0B273E31054105510540F4AC
S11306E0822F223010F070E005C070E082E002C07A
S11306F070E086EE682F615000B601FCFDCF82B732
S1130700681709F46F5F20912F01309130014091F7
S1130710310150913201DA01C9010196A11DB11DC7
S1130720860F911DA11DB11D82179307A407B5075C
S113073010F4622F609561BFDFBE772319F08AE061
S11307400E9464011F910F91FF90EF90DF90089534
S1130750AFB7F894BB27E1E0E093C8016093FA01D6
S11307607093FB018093FC019093FD012093410160
S1130770309342014093430150934401AFBF0E9420
S113078025030895AF92BF92CF92DF92EF92FF922A
S11307900F931F93F82E5A016B010E94F302AB01D1
S11307A0BC01EE24960185018F2D0E94D4021F9175
S11307B00F91FF90EF90DF90CF90BF90AF9008958E
S11307C080E8809345011092A20110928A0210924F
S11307D08502109267010895CF93DF93FC0115A65B
S11307E0DC019E96ED011B821A82198280E886A79D
S11307F0DF91CF9108952F923F924F925F926F9223
S11308007F928F929F92AF92BF92CF92DF92EF929C
S1130810FF920F931F93CF93DF93CDB7DEB7289743
S11308200FB6F894DEBF0FBECDBF2090AD0130905F
S1130830AE014090AF015090B00166247724882423
S1130840BEE4AB2EA3E8BA2ECC24DD24EE24FF2490
S113085000E010E0222D332D442D552D662D772DEB
S1130860882D90E00E94781C29833A834B835C8313
S11308706D837E838F839887822E932EA42EB52E2C
S11308802401350100E20E94761DA22EB32EC42E4F
S1130890D52EC301B20196958795779567956A0D14
S11308A07B1D8C1D9D1D97FF05C09F776F5F7F4F3C
S11308B08F4F9F4F6093AD017093AE018093AF0152
S11308C09093B00128960FB6F894DEBF0FBECDBF4B
S11308D0DF91CF911F910F91FF90EF90DF90CF9018
S11308E0BF90AF909F908F907F906F905F904F904C
S11308F03F902F9008958FB7F8946091CD01709137
S1130900CE012CB53DB506B602FE04C06F5F7F4F25
S11309102CB53DB599278FBF88279927CB01772719
S1130920662744275527622B732B842B952B089518
S1130930EF92FF920F931F930E947B047B018C0123
S11309402091B7013091B8014091B9015091BA0199
S11309508091B2019091B301A091B401B091B5011D
S1130960820F931FA41FB51FE216F3060407150791
S113097030F082179307A407B50758F005C0821713
S11309809307A407B507E0F5E816F9060A071B075D
S1130990B8F59C01AD012E193F09400B510B2130D4
S11309A060E8360760E0460760E0560768F180E0DB
S11309B090E8A0E0B0E0E80EF91E0A1F1B1FE092C9
S11309C0B701F092B8010093B9011093BA0180E025
S11309D090E8AFEFBFEFE80EF91E0A1F1B1F20506F
S11309E03048404050402093B2013093B3014093CB
S11309F0B4015093B50120E030E840E050E014C069
S1130A0020E030E040E050E08093B7019093B801DB
S1130A10A093B901B093BA011092B2011092B3013C
S1130A201092B4011092B501A901B7012CB53DB5DE
S1130A30C9018E199F0903968417950720F0B901FF
S1130A406D5F7F4F02C0640F751F6115710511F44E
S1130A5061E070E0615070407BBD6ABD80E186BF9B
S1130A6087B7806187BF1F910F91FF90EF90089522
S1130A700F931F930FB7F89411276093B7017093E6
S1130A80B8018093B9019093BA012093B2013093D5
S1130A90B3014093B4015093B5010E9498040FBF71
S1130AA01F910F910895CF92DF92EF92FF920F93CF
S1130AB01F93CF93DF938C01F62E6A01E22E8FB73A
S1130AC0F894C82FDD2760E080E00E94F5008823B9
S1130AD021F0CFBF80E090E01EC0CFBF0F0D111DED
S1130AE0802F80680E948B01F82E16950795802F21
S1130AF0807C0E948B010E2D0AC0EE2DFF27E01B87
S1130B00F109EC0DFD1D80810E948B010150002331
S1130B10A1F78F2D9927DF91CF911F910F91FF900E
S1130B20EF90DF90CF90089597B79F7D97BF90E2A5
S1130B3096BF882319F08EB5806402C08EB58F7B72
S1130B408EBD87B7806287BF80E090E00895AF9242
S1130B50BF92CF92DF92EF92FF920F931F93CF93A6
S1130B60DF93CDB7DEB728970FB6F894DEBF0FBE7C
S1130B70CDBF20E070E0E0910001F091010132E18D
S1130B804DE65CE46FE4809101019E2F28960FB638
S1130B90F894DEBF0FBECDBFDF91CF911F910F91AF
S1130BA0FF90EF90DF90CF90BF90AF9008951F9289
S1130BB00F920FB60F9211248F9383B783BF00B6A1
S1130BC000FCFDCF8F910F900FBE0F901F901895D2
S1130BD078941F920F920FB60F9211240F900FBEAC
S1130BE00F901F90189578941F920F920FB60F9242
S1130BF011240F900FBE0F901F90189578941F9298
S1130C000F920FB60F9211242F933F938F939F93BC
S1130C102FB7F89433278091CD019091CE0101969E
S1130C209093CE018093CD012FBF9F918F913F91DF
S1130C302F910F900FBE0F901F9018951F920F9237
S1130C400FB60F9211240F900FBE0F901F9018959E
S1130C501F920F920FB60F9211240F900FBE0F9098
S1130C601F9018951F920F920FB60F9211240F9098
S1130C700FBE0F901F9018951F920F920FB60F92F0
S1130C8011240F900FBE0F901F9018951F920F9272
S1130C900FB60F9211240F900FBE0F901F9018954E
S1130CA01F920F920FB60F9211240F900FBE0F9048
S1130CB01F9018951F920F920FB60F9211240F9048
S1130CC00FBE0F901F9018951F920F920FB60F92A0
S1130CD011242F933F934F935F936F937F938F933D
S1130CE09F93AF93BF93EF93FF9344B155B178941F
S1130CF08FB7F894992720916301322F369531707C
S1130D0021708FBF2223D9F433988091C30181309D
S1130D1021F0823009F039C00AC0332351F05093D6
S1130D20F8014093F70182E10E9464012EC033234D
S1130D3019F40E94550229C01092C30126C08FB72E
S1130D40F89499278FBF2FB7F894332786B1582F7B
S1130D505770482F4072987D942B952B8074977B05
S1130D60982B90619F77892F992786B9887D842B4A
S1130D70852B87738061992786B9887D842B852B81
S1130D80877B8069992786B92FBFFF91EF91BF9127
S1130D90AF919F918F917F916F915F914F913F910F
S1130DA02F910F900FBE0F901F901895CF93DF9344
S1130DB0CDB7DEB72C970FB6F894DEBF0FBECDBF0C
S1130DC08FB7F894282FAE014F5F5F4FDA01E0E24E
S1130DD0F2E088E001900D928150E1F78091A40146
S1130DE09091A5018987892F99278A878091BB01D2
S1130DF09091BC018B87892F99278C872FBF2CE07A
S1130E0060E080E691E00E9453052C960FB6F894BA
S1130E10DEBF0FBECDBFDF91CF9108951F920F9219
S1130E200FB60F9211242F933F934F935F936F93B9
S1130E307F938F939F93AF93BF93EF93FF9383B766
S1130E4083BF00B600FCFDCF81B799270196AA277E
S1130E50BB2720912F0130913001409131015091F5
S1130E603201280F391F4A1F5B1F20932F01309333
S1130E703001409331015093320178940E9425034C
S1130E80FF91EF91BF91AF919F918F917F916F915E
S1130E905F914F913F912F910F900FBE0F901F9034
S1130EA018950F931F93182F0FB7F89461E080E003
S1130EB00E94DB00882371F51093020180910501E3
S1130EC08823A9F580911901823089F586E00CC048
S1130ED00E94120180911901882349F481E08093D2
S1130EE0190110926A0188E00E9464012AC080916D
S1130EF0B6018F3F31F5E0910401EE2311F11CC0DE
S1130F001092030104C0FF27EA54FE4F108210928E
S1130F10040117C081E090E002C0880F991F1A9560
S1130F20E2F720911801282B209318010AC0809120
S1130F3019018823E1F6CCCF809103018F3F19F783
S1130F40DFCF802F99278FBF80E090E01F910F9112
S1130F5008951F9383E00E9427019927182F88235F
S1130F6019F083E00E945107812F99271F9108955A
S1130F70982F80912001833009F047C080910F01A0
S1130F80891709F042C080910D0120E030E08F3FC5
S1130F9011F421E030E0232BF9F48F3F19F42FEF03
S1130FA030E00EC0282F3327F901E557FD4F80812B
S1130FB080930D018F3F11F480930E018FEF808396
S1130FC0209328028FEF80930F0181E0809320010A
S1130FD08DE00E94640116C081E080930F0110929D
S1130FE0200180912101813069F40E94CB0280911B
S1130FF0F6018A768093F601809374009098919814
S11310001092210180E090E0089581E090E008953D
S11310100E94CB028091F6018A7F8093F60180932F
S113102074000E94CB028091F60184608093F601E3
S11310308093740081E080932101809122018823B0
S113104049F480911001882329F40E941A0380E056
S11310500E94B80708951F93CF93DF93182F8FB77B
S1131060F894C82FDD2760E080E00E94F500882313
S113107021F0CFBF80E090E005C0CFBF812F0E9458
S11310808B019927DF91CF911F910895EF92FF92E1
S11310900F931F93CF93DF93182F7B01042F8FB7E8
S11310A0F894C82FDD2760E080E00E94F5008823D3
S11310B021F0CFBF80E090E014C0CFBF1064812F37
S11310C099279093C0018093BF010E948B01182F30
S11310D0402F5527B70180E090E00E940502812F40
S11310E09927DF91CF911F910F91FF90EF90089571
S11310F0C0986091290170912A0141E08FE30E9418
S11311004608089582E090E090935E0180935D012B
S113111081E08093A20120E030E0809102018430DC
S113112011F421E030E0232B29F484E00E9427010C
S1131130882319F40E947808089584E00E945107D6
S113114008951F920F920FB60F9211242F933F937D
S11311504F935F936F937F938F939F93AF93BF93BB
S1131160EF93FF9380915D0190915E01019749F4A3
S113117082E090E090935E0180935D010E9482087A
S113118005C0809167018F5F80936701FF91EF91A4
S1131190BF91AF919F918F917F916F915F914F918B
S11311A03F912F910F900FBE0F901F9018951F9392
S11311B080911801882309F04BC0109102011F3F50
S11311C009F046C060E00E94F500882309F440C09D
S11311D081E080932A02809147018823E1F11092F3
S11311E02A0285E090E045C0923069F5C09A80916A
S11311F0030120E030E08F3F11F421E030E0232BA5
S1131200E9F4109305018F3F19F42FEF30E00DC07E
S1131210282F3327F901EA54FE4F8081809303017C
S11312208F3F11F410930401108320936A0181E02D
S11312308093190188E00E94640105C010930501A0
S11312401092190111C080911901882369F00FC00F
S113125081E090E00EC080910501909119018823EE
S113126019F2923021F0EFCF80E00E94060180E075
S113127090E01F9108951F93CF93DF939FB7F89445
S1131280C92FDD271C2F90910201981721F0CFBFA1
S113129081E090E03AC08FEF809302013091180111
S11312A03323F1F48FB7F89499271092FE018FBF7E
S11312B00E94D708CFBF11C02093020181E090E0C3
S11312C002C0880F991F4A95E2F78095382330931E
S11312D0180186E00E9464011FBF80E090E015C001
S11312E080E065E0E32FFF270E94F91D292F492F95
S11312F05527CF01042E02C0959587950A94E2F7ED
S113130080FDDACF822F8F5FEFCFDF91CF911F91D6
S113131008951F93CF93DF938FB7F894C82FDD27D9
S11313201C2F80915D0190915E01892B29F484E04A
S11313300E943B09CFBF1EC01092A2018091670199
S1131340882311F0B79904C00E9908C0882319F0B6
S11313508150809367010E9482080BC081E090E075
S113136090935E0180935D011092670184E00E9476
S11313703B091FBFDF91CF911F9108950E94E003A5
S1131380C09AC09888E00E942B0888E00E942B082D
S1131390C09A84E00E943B090E9489090895FF9243
S11313A00F931F93CF93DF93F82E8B018FB7F8948D
S11313B0C82FDD2760E080E00E94F500882321F03B
S11313C0CFBF80E090E00CC0CFBF8F2D0E948B0177
S11313D0812F99270E948B01802F0E948B019927CE
S11313E0DF91CF911F910F91FF9008951F931FB725
S11313F0F89480916601882319F460E070E009C0D4
S113140060E080919002882309F461E081E068271C
S113141077278091A701882319F480E090E00AC01F
S113142090E080911F02882309F491E081E09827DD
S1131430892F9927762F6627770F770F770FF4E098
S1131440880F991FFA95E1F7826E9262682B792BC7
S113145081E10E94CF09812F99278FBF1F910895A1
S11314608FB7F8949927609129028FBF85E0689F10
S1131470B0011124625D7E4F706488E10E94CF093F
S11314800895EF92FF921F93CF93DF93E090A8010A
S1131490F090A901F70182A59927182F882309F450
S11314A01FE1C09880916201811749F0612F77276D
S11314B06F717070606E706885E10E94CF0910933F
S11314C06201F70110818FB7F894C82FDD2760E01F
S11314D080E00E94F500882311F0CFBF12C0CFBF77
S11314E08EE390E09093C0018093BF018EE30E944D
S11314F08B011150412F552760E070E0C7010E9415
S11315000502DF91CF911F91FF90EF9008950F9303
S11315101F93CF93DF93EC010FB7F89411270E9428
S11315209700FC018FE380830FBF10928E0210920C
S11315308D0261E082E00E94DB00882319F085E0DF
S113154090E072C080912B028F5F80932B028150B8
S11315508B838FB7F894082F112762E081E00E94F3
S1131560F500882329F40FBF0E94260281E05BC0A6
S11315708FB7F894992724E02093FF018FBFD0936D
S1131580C701C093C6010FBFFE0131968181298135
S11315909927982F88273327822B932B80729C7C42
S11315A08983892F992781832981982F8827332735
S11315B02164822B932B8983892F992781831CA6ED
S11315C018A619A619AA18AA1FA680E88EA761E072
S11315D0609302024091C6015091C7018FB7F894FD
S11315E0282F332780911A0190911B01883091058F
S11315F011F0019711F02FBF15C082E090E0909395
S11316001B0180931A01609398025093A90140939F
S1131610A80110922D012FBF0E94A907882311F45D
S11316200E94410A80E09927DF91CF911F910F9189
S11316300895CF93DF93DA01422F2D3118F082E021
S113164090E05EC0ED018B876E83872F99278F838F
S11316502FB7F89433278091A4019091A5012FBF4F
S1131660FD018483892F992785832FB7F894332725
S113167080910601909107012FBF8887892F9927B0
S113168089873196818129819927982F8827332743
S113169020643868822B932B8983892F992781832F
S11316A0435F4C934D5080910901882359F0109267
S11316B00901642FCD010E94870A9927282F8823C6
S11316C0A9F417C0842F99279093C5018093C4016E
S11316D0B0931F01A0931E018CE00E9464018091CD
S11316E00901882349F489E090E00AC08FEF8093D0
S11316F00901822F992704C01092B10180E090E083
S1131700DF91CF910895AF92BF92CF92DF92EF9283
S1131710FF920F931F93CF93DF935B016C01C0E0A3
S1131720D0E0E0EDF1E0608561FF03C1208131810B
S113173042815381E480F58006811781D601C50179
S1131740821B930BA40BB50B8E159F05A007B10745
S113175008F4EFC060FF03C06D7F608708C02E0DE2
S11317603F1D401F511F2083318342835383C23066
S113177009F4A2C0C33009F4A1C0C13009F0DFC02C
S11317808091AC018A3009F061C08091A301882363
S113179009F043C0AAE7B1E0E3E0F2E08CE1019094
S11317A00D928150E1F74EE651E08FEF8093740182
S11317B08093750183E9809379018091CB019091A5
S11317C0CC01892B21F55093CC014093CB0189E2C4
S11317D080936E01809113018823A9F01092130164
S11317E02CE16FEF7FEF83E90E94190B9927282FD3
S11317F0882349F081E0809313011092CC01109268
S1131800CB01222321F481E08093A30106C08091BF
S1131810A301882311F40E948E001092AC018091E0
S11318209302882389F4809109029927982F8827A5
S113183020910A023327822B932B019680930A026C
S1131840892F992780930902109293028FB7F894F5
S1131850282F3327122F80912401882389F491E0C3
S1131860909324011092A6012FBF80912501882313
S113187021F48FE00E94640162C0909326015FC04E
S11318808091A601882311F42FBF59C080E00E94E3
S11318904102882319F085E090E007C08091CF01D0
S11318A081608093CF0180E090E01FBF892B09F411
S11318B046C00E948E0043C0AA9841C09FB7F894C6
S11318C020912401222319F421E030E00FC08091FB
S11318D01101813019F020E030E008C040E050E010
S11318E02150223010F441E050E09A01892F9927C9
S11318F08FBF222321F18FB7F894082F1127902F3F
S113190080911101813099F480912401813021F476
S11319108EE00E94640109C0823049F48091A601DE
S11319208093110183E0809324010FBF08C09FBFFF
S113193006C021963996C430D10509F0F4CE8BE067
S11319400E946401DF91CF911F910F91FF90EF905E
S1131950DF90CF90BF90AF9008950F931F93182FEF
S1131960042FE82FFF27EE0FFF1FE553FE4F1182D0
S1131970108210921301E091CB01F091CC013097C9
S113198021F080918C0280FF13C081E080931301C9
S113199003C084E10E9464011123E1F4002319F4DB
S11319A00E94850002C00E948E001092A30112C002
S11319B020812D50332767817727762F66278681EC
S11319C09927682B792BAF0183850E94190B8823F3
S11319D019F3DFCF1F910F9108959B01809113019B
S11319E0882349F46091CB017091CC01621773078D
S11319F011F40E94AD0C08951F93182F81E090E01C
S1131A0090931B0180931A01109247010E94D708FA
S1131A108FB7F8949927109314018FBF82E00E9426
S1131A2064011F910895EF920F931F9389B78F77E5
S1131A3089BFA39AAB9AA69AAE98AE9A80910C01EC
S1131A4010926401809365018FB7F894282F33278F
S1131A50922F80912001882309F045C001E0E02EF7
S1131A60E0922001109228022FBF8FB7F894082F1C
S1131A701127809121018823C9F4909A919A88981A
S1131A8089981092710081E4809370001092720022
S1131A90109274000E94CB028091F60184608E7FC4
S1131AA08093F60180937400E09221010FBF8FB7F9
S1131AB0F894082F1127902F80910F01813059F548
S1131AC080912001813021F48DE00E94640109C0DD
S1131AD0823009F58091280280930F0183E080937E
S1131AE020010FBF1FC080912802882311F42FBF4B
S1131AF019C080918B028F3F71F4E0910E01EE23A7
S1131B0051F00BC010920D0104C0FF27E557FD4FA3
S1131B10108210920E019FBF05C080910D018F3F6E
S1131B20A1F7F0CF0E94F302AB01BC0111E0E12E5A
S1131B3000EB14E020E030E083E00E94D40280E077
S1131B4090E01F910F91EF9008951F920F920FB69E
S1131B500F9211242F933F934F935F936F937F932F
S1131B608F939F93AF93BF93EF93FF930E94CB0206
S1131B7080912101843009F4C7C0863021F083307C
S1131B8009F0EFC03EC090917100987F80912201CE
S1131B90813041F4903499F583E0809321012091C0
S1131BA02C0244C0983159F583E08093210190912F
S1131BB02C0280912E012091F601981708F472C02E
S1131BC0922F9E7F9093F6018091990281FF07C026
S1131BD08D7F8093990290619093F60103C02E77D4
S1131BE02093F6018091F6018093740081E0809344
S1131BF0210180911001882309F0B3C07FC084E0E3
S1131C0098C08091220190912C02813009F044C047
S1131C10E0916801F0916901E90FF11D8091730071
S1131C20808320912C022F5F20932C0280912E011F
S1131C302817A0F43327992701972817390749F45F
S1131C408091990282FD05C08091F6018F7B80937B
S1131C50F6018091F6018093740083C09091F6019F
S1131C60292F2E7F2093F6018091990281FF09C0CC
S1131C708D7F8093990220612093F60180917100F9
S1131C8003C09E779093F6018091F60180937400CF
S1131C9081E08093210165C080912E012091F6019D
S1131CA0981778F4E0916801F0916901E90FF11D4A
S1131CB08081809373009F5F90932C022093740023
S1131CC050C0922F9E7F9093F6018091990281FFDC
S1131CD007C08D7F8093990290619093F60103C0B1
S1131CE02E772093F6018091F6018093740081E0B1
S1131CF08093210180911001882399F50E941A0391
S1131D0080E00E94B8072DC0809199028E7F809355
S1131D1099029091F6019F7D9093F6018091710054
S1131D20887F883049F080917100887F803121F06C
S1131D3081E00E94080815C0392F30643093F60101
S1131D409091AA01990F20E080912201813009F439
S1131D5021E0922B9093730086E0809321013093CD
S1131D607400FF91EF91BF91AF919F918F917F91FB
S1131D706F915F914F913F912F910F900FBE0F90F4
S1131D801F901895CF92DF92EF92FF920F931F93BB
S1131D90CFB6F894DD240E94FB03DC01CB0166E49A
S1131DA070E00E94051E2BE0E22EF12CE80EF91ED5
S1131DB0F0929502E09294020E947B04002711277E
S1131DC0A80197010E943805CFBE1F910F91FF9083
S1131DD0EF90DF90CF9008951F93CF93DF938FB749
S1131DE0F894C82FDD271C2F80911A0190911B01B4
S1131DF00897C9F489E00E942B0883E00E943B09FC
S1131E00C09A81E090E090931B0180931A018FB7F0
S1131E10F894992723E0209314018FBF82E00E9455
S1131E206401CFBF30C0C09880919802882311F01C
S1131E3085E001C084E00E942B0883FD09C080E096
S1131E400E942B0883FF04C085E090E020E003C0DB
S1131E5083E090E021E090931B0180931A01C09AE3
S1131E601FBF222341F010922D0183E00E943B0901
S1131E700E94C20E08C00E947B0420E431E040E0CE
S1131E8050E00E943805DF91CF911F910895789416
S1131E901F920F920FB60F9211241F932F933F930B
S1131EA04F935F936F937F938F939F93AF93BF935E
S1131EB0EF93FF9387B78F7E87BF78941FB7F8940B
S1131EC08091B2019091B301A091B401B091B50198
S1131ED00097A105B10509F051C080911A019091B4
S1131EE01B018530910561F18630910530F4833012
S1131EF0910549F0049781F51AC087309105F1F0F6
S1131F00089751F514C0869B0FC084E090E090932D
S1131F101B0180931A010E947B0427E030E040E01B
S1131F2050E00E94380518C00E94C20E15C00E94DD
S1131F30A907882389F40E94EC0E0EC080E00AC031
S1131F4089E00E942B0881E00E94940583E00E94AE
S1131F503B0987E00E94FC0C8091150190911601C9
S1131F60019771F482E090E090931601809315013B
S1131F70DE98DE9A80E00E94510702C00E94980415
S1131F80812F99278FBFFF91EF91BF91AF919F91BF
S1131F908F917F916F915F914F913F912F911F91FD
S1131FA00F900FBE0F901F901895EF92FF920F9312
S1131FB01F93CF93DF938B018091BF019091C00158
S1131FC086FF40C18F7B8F3309F08EC1C0912901F8
S1131FD0D0912A0158815093600180915D019091C4
S1131FE05E018530910509F443C08630910509F4FA
S1131FF08AC0029709F01FC185E090E090935E01CA
S113200080935D0140914501852F99270196242FE6
S11320103327281739074CF1B79906C00E9904C025
S1132020451B415040934501409160014A32E8F418
S11320304423A1F0BE016F5F7F4F483018F047E0A2
S113204050E007C086E090E090935E0180935D01CC
S1132050552780E090E00E94050246C11092A2013B
S1132060C09A84E00E943B09E3C00E94BE093CC1BF
S113207086E090E090935E0180935D018091A701DA
S1132080882309F439C080911F028823A9F5898126
S113209085FF32C08F814E812FB7F894332760912A
S11320A0BB017091BC012FBF9927982F8827552712
S11320B0842B952B8617970759F08F812E819927AA
S11320C0982F88273327822B932B8F5F9F4FA1F460
S11320D089818770813081F4C09AC0988AE00E9417
S11320E02B08C09AC0984091600147502896BE01C1
S11320F08FE30E944608F8C040916001475055277D
S11321002896BE01A6CFC09A80916701882339F42E
S113211084E00E943B0980916701882311F0B799FC
S11321200AC00E9B08C090918502992321F08091EA
S113213060018B3038F48091290190912A010E942A
S1132140EC033DC0913001F5E0918A02FF27EE0FC8
S1132150FF1FEE0FFF1FEF5CFD4F20813181428195
S11321605381E0912901F0912A0121ABBB27A52FCE
S1132170942F832F80ABCA01AA27BB2787A7252FBB
S113218033274427552726A780918A029927019649
S113219068E070E00E94191E80938A028091850293
S11321A0815080938502882351F080912901909178
S11321B02A010E94EC0310928A02109285028091F7
S11321C06001FE01E80FF11D808187FF31C0012B02
S11321D079F169816770E0912901F0912A016230F7
S11321E019F5A091A801B091A901109709F1809166
S11321F01A0190911B010797D9F4ED019B8183810A
S11322009817B1F487B78F7E87BF908181E08CA740
S1132210E90FF11D8291319688A780818F7789A774
S113222080E00E94FC0C04C0613011F489E02AC0F3
S11322300E94890959C01092A201C09A84E00E94A8
S11322403B0952C08E3309F04FC0C09A80911A01E5
S113225090911B010897C9F4C09889E00E942B084B
S1132260C09A83E00E943B0981E090E090931B01B7
S113227080931A018FB7F894992723E020931401CF
S11322808FBF82E00E9464012FC08091980288234E
S113229049F484E090E090931B0180931A010E941A
S11322A0EC0E22C083E00E943B0983E090E090930F
S11322B01B0180931A010E94FB03DC01CB0166E33E
S11322C071E00E94051E3BE0E32EF12CE80EF91E9E
S11322D0F0924001E0923F010E947B040027112705
S11322E0A80197010E943805DF91CF911F910F91AA
S11322F0FF90EF9008951F920F920FB60F92112442
S11323002F933F934F935F936F937F938F939F93F9
S1132310AF93BF93EF93FF932FB1E091F401F0914A
S1132320F501309739F08091C9019091CA01E80F05
S1132330F91F20838091C9019091CA01019690935D
S1132340CA018093C90180E00E940C0140912B01D5
S113235050912C018091C9019091CA01841795076D
S113236018F40E9497011CC06091F4017091F5016A
S113237080919102909192021092F5011092F401D1
S1132380109292021092910210922C0110922B0141
S11323901092CA011092C9012FB120E00E94D50FFA
S11323A0FF91EF91BF91AF919F918F917F916F9129
S11323B05F914F913F912F910F900FBE0F901F90FF
S11323C01895AF92BF92CF92DF92EF92FF920F9344
S11323D01F93CF93DF93CDB7DEB7A8970FB6F894CA
S11323E0DEBF0FBECDBFE82FFF27E531F10508F0B2
S11323F076C6EA5BFF4FEE0FFF1F0590F491E02DC8
S1132400099480918C02882309F469C620E011E0C4
S11324101DC60FB7F894112781E00E94940571E05E
S1132420E72EF12CF0921B01E0921A0110921C018C
S113243010924701109262010FBF0FB7F894112751
S11324400E94E003F0925E01E0925D011092A2010D
S113245089B78F7B89BF80E488BF8AB780628ABFCF
S11324608AB78F7E8ABF89B7806489BF0FBF8FB751
S1132470F894082F11278091150190911601049763
S113248019F483E00E942B080FBF0FB7F8941127AB
S1132490C09A80E00E943B090FBF8FB7F894992738
S11324A022E02093FF018FBF409105025527542F4E
S11324B04427809106029927482B592B66277727B2
S11324C081E00E94C2031092AC0109C68FB7F89450
S11324D099271092FF0172C08FB7F8949927F09052
S11324E014018FBF63E081E00E94F500882359F155
S11324F00FB7F894112710921B0110921A0187B795
S11325008F7E87BF87B78F7D87BF83E00E943B099B
S1132510C09A0FBF0FB7F894112710925E01109262
S11325205D010E94E003C09A89B78F7B89BF0FBF0A
S11325301092160110921501DE98DD98DE9A81E062
S11325400E94640107C08FB7F894992722E0209372
S1132550FF018FBF0091C6011091C7010E9426029E
S113256080918D0290918E02892B09F0B8C58FEF6E
S1132570809309014F2DB801D9C38FB7F894282F40
S11325803327122F80919602882309F02CC481E00E
S1132590809396028091150190911601049721F47D
S11325A081E00E94510703C084E00E9464011FBFC0
S11325B096C58FB7F8949927109296028FBF8FC54E
S11325C08FB7F894282F332780911701882309F0B7
S11325D00AC42FBF80B3992756E0969587955A95DC
S11325E0E1F7182F11709091BD018091BE018917F8
S11325F0D9F01917C9F484E090E090931601809300
S113260015018FB7F894992721E0209317018FBF04
S113261060E070E08DE10E94CF090E94D606C09A66
S1132620C09880E00E9464011093BE0185E06DC0F3
S11326308FB7F8949927109102018FBF123009F4D3
S113264067C0133030F4112359F0113009F047C535
S113265048C0133009F476C0143009F040C5A2C054
S1132660C0988FB7F894082F112780911501909185
S113267016010297A1F583E090E0909316018093F0
S1132680150168E170E08DE10E94CF0981E080933B
S1132690BD011092170180B3992746E0969587955E
S11326A04A95E1F7817090708093BE0185E00E94A5
S11326B0640181E00E942B086FE772E08CE10E94C4
S11326C0CF090E94300A0E94F60966E57AE287E1A2
S11326D00E94CF096FEF70E885E10E94CF090FBF18
S11326E0FEC4C09886E00E942B080E94300A0E9413
S11326F0F6090E94D606C09AC09883E00E942B086F
S1132700C09A81E00E943B0984E00E946401E7C40E
S1132710C0988FB7F894082F112760E080E00E94DA
S1132720F500882311F00FBF0AC00FBF83E50E9494
S11327308B0180E00E948B0180E00E948B01C09A93
S113274082E02DC08FB7F894992720911A018FBF8A
S1132750243039F0283041F0223001F50E94410A3A
S1132760BEC40E94EC0EBBC4C09889E00E942B0832
S1132770C09A83E00E943B098FB7F894992721E01F
S113278030E030931B0120931A018FBF8FB7F89468
S11327909927109314018FBF82E0B7CF83E00E9482
S11327A03B099DC40E9478089AC40FB7F894112776
S11327B040912B0150912C016091F4017091F5012D
S11327C080919102909192021092F5011092F4017D
S11327D0109292021092910210922C0110922B01ED
S11327E01092CA011092C90120E00E94D50F77CF40
S11327F02FB7F894332780916A018093050182E012
S1132800809319012FBF80910501882309F067C4C3
S1132810B89AC09886E079CFA0912901B0912A0195
S11328201C919D01210F311DF9018081881F88278A
S1132830881FFD0183A7F90180818F77FD0181A79E
S113284021503040F9018081FD0180A7A091290128
S1132850B0912A01FD0132818FB7F8949927209114
S113286066018FBF222309F490C0832F9927969580
S1132870879596958795837090708230910541F580
S1132880878146812FB7F89433276091BB017091FB
S1132890BC012FBF9927982F88275527842B952B68
S11328A08617970719F481E090E06CC0FD018781D9
S11328B0268140E050E09927982F88273327822BE0
S11328C0932B8F5F9F4F11F441E050E0CA015AC02F
S11328D0039709F077C19E012F5F3F4F40E252E01A
S11328E088E0FA010190AF01F90101929F01815042
S11328F0C1F79E012F5D3F4FAE014F5F5F4F88E0F0
S1132900FA010190AF01F90101929F018150C1F7D1
S11329109E01275F3F4FAE014F5D5F4F88E0FA0194
S11329200190AF01F90101929F018150C1F79E010D
S11329302F5E3F4FAE01475F5F4F88E0FA01019081
S1132940AF01F90101929F018150C1F79E01275EF9
S11329503F4FAE014F5E5F4F88E0FA010190AF0137
S1132960F90101929F018150C1F748E050E0BE0196
S1132970675E7F4FCD0106960E94821E892B09F067
S113298021C103C0882309F41DC11D3008F41AC1F4
S1132990E0902901F0902A01F7012281822F9927E2
S11329A016E0969587951A95E1F7039719F468E070
S11329B070E002C062E070E0822F992796958795B7
S11329C09695879583709070039719F488E090E04A
S11329D002C082E090E026E030E0E20EF31E40E028
S11329E050E020E030E0F701E80FF91F8AEF9FEF95
S11329F0E80EF91E05C08191480F511D2F5F3F4F0E
S1132A0026173707C4F3F70163818FEF80938F0292
S1132A108FB7F894782F20E030E0E3E3F1E0808191
S1132A2091818417950729F48281861731F12093C7
S1132A308F022F5F3F4F33962430310581F77FBFDC
S1132A4090918F023FB7F8949F3F21F080911D0130
S1132A508917A9F420911D01822F9927FC01EE0FFB
S1132A60FF1FE80FF91FED5CFE4F51834083628323
S1132A702F5F237020931D010EC07FBF9FC0892F3D
S1132A809927FC01EE0FFF1FE80FF91FED5CFE4FC5
S1132A90518340836283832F99278FBF0FB7F894A4
S1132AA01127C7010E949700FC0190810FBFF70115
S1132AB083A5882309F482C09F3309F07FC08781EE
S1132AC046812FB7F894332760910601709107016E
S1132AD02FBF9927982F88275527842B952B861746
S1132AE0970761F0878126819927982F88273327B4
S1132AF0822B932B8F5F9F4F09F060C0F701838572
S1132B00833909F05BC02FB7F89433278BB311E0F6
S1132B1081278BBB2FBF848525859927582F442770
S1132B203327422B532B809103029927982F882710
S1132B30209104023327822B932B8417950700F5E9
S1132B4040930402852F9927809303028685278565
S1132B509927982F88273327822B932B809306025B
S1132B60492F552740930502542F44279927482B72
S1132B70592B6627772781E00E94C2031092AC018B
S1132B80F701828923899927582F44273327422B19
S1132B90532B809109029927982F882720910A02A4
S1132BA03327822B932B8417950740F440930A0212
S1132BB0852F99278093090210939302F0922A019A
S1132BC0E09229018FB7F89499271092A2018FBF40
S1132BD00E94890984C280916101882361F5209152
S1132BE02D0230912E0240912F0250913002EFB706
S1132BF0F894FF276091FA017091FB018091FC0128
S1132C009091FD01E0904101F09042010091430157
S1132C10109144016E0D7F1D801F911FEFBF209303
S1132C202D0230932E0240932F02509330021092C3
S1132C3061010E94A8030E94F30243C00E94F302B0
S1132C405B016C018FB7F89499271092C8018FBF6C
S1132C506FEFE62E6FEFF62E6FEF062F6FE7162F4E
S1132C6060E0E0EDF1E0808581FF1CC0808191810E
S1132C70A281B381A6019501281B390B4A0B5B0B7A
S1132C80DA01C9012481358146815781281B390B1A
S1132C904A0B5B0B2E153F05400751071CF47901C5
S1132CA08A0161E0399631E0E43FF307E1F66623F7
S1132CB009F415C21E141F04100611062CF0C601D7
S1132CC0B5010E94830B0BC2E0922D02F0922E02FA
S1132CD000932F021093300281E080936101A801D8
S1132CE09701C601B5010E94A803F9C19091B101F1
S1132CF080910901981709F4F2C19093090199236D
S1132D00D1F400911E0110911F016091C401C8010A
S1132D100E94870A482F5527442309F4E0C18FEF06
S1132D208093090160911E0170911F01F801838550
S1132D300E94ED0CD4C18FEF80930901D0C12FB74D
S1132D40F89433278091280280930F0153E0509325
S1132D5020012FBF20910F018FB7F894992720935A
S1132D6010018FBF222309F0BAC18FB7F894282F1E
S1132D70332780911001882309F035C02FBF8FB706
S1132D80F894992720912101213009F017CC42E0D1
S1132D90409321018FBF2FB7F89433278DE290E041
S1132DA09093AB018093AA0184E691E0909369012A
S1132DB08093680140932E015093990210922C0243
S1132DC0109222012FBF0E94CB022FB7F894332711
S1132DD08091F6018F7E816E8093F60194E090934A
S1132DE02101809374002FBF7AC18FB7F89499277B
S1132DF02091A6012093110123E0209324018FBF89
S1132E0080911101882309F06AC18FB7F894082FC3
S1132E10112780912801882339F581E080932801C6
S1132E2010925F010FBF8FB7F8949927379A8FBF1D
S1132E308FB7F894082F1127902F809112018130B9
S1132E4089F480912801813021F481E10E94640198
S1132E5046CC823039F480915F0180931201209333
S1132E6028013DCC9FBF3BC180915F01882309F4B9
S1132E7036CC80E00E942D02882309F030CC80916A
S1132E8046018160809346012ACC0E94130D27C11C
S1132E9089B78F7789BFAB98A39880912601813039
S1132EA011F40E94130D8FB7F894992710922601FC
S1132EB01092250183CB2FB7F894332780915F01BB
S1132EC08093120183E0809328012FBF8091120127
S1132ED0882309F004C181E08093C3011092890220
S1132EE00E945502FCC01092C301A090F701B0905B
S1132EF0F80180918902882309F0F1C08FB7F89412
S1132F00C82E80912801833009F041C080911201BC
S1132F108823E9F580914601882309F0CBC0C3C01A
S1132F20ED2DE695E695E695FF274D2D5527EA5BB1
S1132F30FE4F9A012770307081E090E002C0880F44
S1132F40991F2A95E2F780952081282320830093F6
S1132F50270112C00F5F1F4F0130110511F400E06B
S1132F6010E0D02E802F0E942D028823C9F60E1562
S1132F701F0581F74FEF50E040935F018FEF80937F
S1132F80120181E08093280181E10E946401CFBE97
S1132F908FB7F894C82E80912401833009F041C082
S1132FA0809111018823E9F58091CF01882309F0EC
S1132FB090C086C0ED2DE695E695E695FF274D2D4C
S1132FC05527E153FE4F9A012770307081E090E05D
S1132FD002C0880F991F2A95E2F780952081282343
S1132FE020830093230112C00F5F1F4F013011058E
S1132FF011F400E010E0D02E802F0E9441028823BB
S1133000C9F60E151F0581F74FEF50E04093A60156
S11330108FEF8093110181E0809324018EE00E9460
S11330206401CFBEE091AC01EA3008F058C0EF5F14
S1133030E093AC01E150FF27EE0FFF1FE55FFD4F6A
S1133040A1828B2D992780834AC0110F90918C0205
S1133050812F8923B1F0E22FFF27EE0FFF1FE553E5
S1133060FE4F11821082812F8095982390938C02B9
S1133070222339F40E948E001092A301110F21E043
S1133080E5CF2F5F283008F32AC080911301E82F81
S1133090FF27EE0FFF1FE553FE4F6081718141E072
S11330A00E94AD0C1CC081E0809312011092280193
S11330B037986DCF80912701E82EFF2487014ACFEE
S11330C081E080931101109224018093250180E115
S11330D0A6CF80912301E82EFF24870185CFA896EF
S11330E00FB6F894DEBF0FBECDBFDF91CF911F9115
S11330F00F91FF90EF90DF90CF90BF90AF90089525
S1133100809186028F3FB1F0282F3327F901E85BC5
S1133110FE4F8081809386028F3F11F48093970243
S11331208FEF80832F3F31F0822F0E94E11181E0E5
S113313090E0089580E090E00895EF92FF920F935D
S11331401F93CF93DF93CDB7DEB7E0970FB6F89414
S1133150DEBF0FBECDBF1FB7F89445E150E06FEF5F
S113316070E088E491E00E948F1E8FEF80938602C6
S11331708093970281E08EBD88E080BF83E083BFA7
S11331808CB59DB54AE72CB53DB52817390708F429
S11331904150442311F0C901F6CF92B782B7891781
S11331A0E9F32CB53DB592B782B78917E9F38CB52D
S11331B09DB5821B930B4096A5E096958795AA959D
S11331C0E1F7909388028093870213BE83B78EBD84
S11331D08EB580BF12BE1DBC1CBC8FEF86BF86B7E8
S11331E080937C0080B7992787709070892BD1F7E2
S11331F0D29AD19AD09ADA9AD99AD89A15BA8FEFE4
S113320084BBD498DC9816B81DBC1CBC87B78460FA
S113321087BF8EB5887F84608EBD0E948018882306
S1133220E1F7109246011092CF018FEF80938B0249
S113323080936B01E3E3F1E08FEF9FEF9183808351
S11332401282339621E0EF33F207C1F70E94FB03A9
S113325060932B0280910001909101010196AA27AD
S1133260BB278093AD019093AE01A093AF01B093BF
S1133270B00180B7886080BF8BE083BF86EE81BFDA
S113328087B7826087BF0E94250381E592E090930F
S11332902A01809329018E98B89A8C988FEF809395
S11332A0B6011092FE011092FF01109200021092DA
S11332B00102B89AD69AD59A8FB7F8949927209193
S11332C00601309107018FBF3093BC012093BB01ED
S11332D00E94A70529A73AA74BA75CA76DA77EA7BD
S11332E08FA798ABDE019196FE01B99688E0019014
S11332F00D928150E1F7DE015196FE01B19688E00E
S113330001900D928150E1F7DE015996FE0171960C
S113331088E001900D928150E1F7A0E2B2E0FE0155
S1133320799688E001900D928150E1F7809108012F
S113333099279093A5018093A4018FE18093F901CB
S11333408AE1809329020E94A70529A73AA74BA7DF
S11333505CA76DA77EA78FA798ABDE019196FE01AF
S1133360B99688E001900D928150E1F7DE01119643
S1133370FE01B19688E001900D928150E1F7DE01E3
S11333801996FE01319688E001900D928150E1F783
S1133390A0E2B2E0FE01399688E001900D928150DE
S11333A0E1F7A0E2B2E0FD0137969C9180818D9314
S11333B09083319782E0E332F807B9F781E0809394
S11333C06601109290028093A70110921F020E943E
S11333D080188823E1F7812F99278FBF7894109262
S11333E0060281E080930502809100019091010121
S11333F080930802892F9927809307028091EA011C
S113340081FF2AC0E090E601F090E7010091E80115
S11334101091E9010E94F3029B01AC018091E20149
S11334209091E301A091E401B091E501281B390BCF
S11334304A0B5B0B2E153F054007510768F4E21A4F
S1133440F30A040B150B21E3E21625E7F20620E04C
S1133450020720E0120778F40E94F302AB01BC01DA
S1133460E1E0EE2E00E315E720E030E082E00E9488
S1133470D402A29AAA9A61E081E00E94DB00882328
S1133480E9F48FB7F894282F332780911501909190
S11334901601892B11F02FBF1FC081E090E090939B
S11334A01601809315012FBFDD9A0E947B0424E14D
S11334B030E040E050E00E9438050EC062E081E058
S11334C00E94F500882309F072C061E081E00E9447
S11334D0F500882309F46BC08FB7F894482F55275B
S11334E04BC087B7992783709070892B19F4E5E056
S11334F0F0E013C080B7992787709070892BD1F7BB
S113350081B792B7891B8C3030F082B7853F18F4AD
S1133510E3E0F0E002C0E2E0F0E087B7887BC1F4CA
S113352080917D008B7FA1F46E9912C08AB1909135
S11335309A00892B887161F48091740082FD08C01F
S1133540379B03C081E090E005C085E090E002C0B5
S113355080E090E025B78E1708F4E82FFF27EA549F
S1133560FF4FE491237E2062E22BE5BF7894889597
S1133570F89485B78F7D85BF809186028F3F09F4CB
S1133580B0CF282F3327F901E85BFE4F8081809369
S113359086028F3F11F4809397028FEF80832F3F31
S11335A009F49FCF4FBF822F0E94E11195CF0E9453
S11335B08E0092CF78941F920F920FB60F9211241F
S11335C02F923F924F925F926F927F928F929F922F
S11335D0AF92BF92CF92DF92EF92FF920F931F931D
S11335E02F933F934F935F936F937F938F939F9307
S11335F0AF93BF93CF93DF93EF93FF93C6B5D7B544
S11336008FB7F894282E0E947B049B012C1B3D0B42
S1133610442755272B013C01421A530A640A750AB0
S113362080911A0190911B018530910521F0069734
S113363009F0E0C0BFC086E090E090931B01809346
S11336401A0131E0332E30926C0110921C0180E09B
S11336500E949405E091A801F091A90141AABB2719
S1133660A72D962D852D80ABC301AA27BB2787A73D
S1133670872D9927AA27BB2786A7E091A801F09157
S1133680A90185A5882309F484C060816550772742
S11336904F01860E971EF4012081E1808281A38070
S11336A09927AA27BB27BA2FA92F982F8827332712
S11336B044275527522F442733272227FF24002746
S11336C011278701FF24EE242E293F29402B512B5B
S11336D0BB24CC24DD242A293B294C295D29822BB7
S11336E0932BA42BB52B84199509A609B7098383B9
S11336F0292F3A2F4B2F552722839D0144275527E5
S113370021838B2F9927AA27BB278083C09824E085
S1133710A40180E090E00E945305C09AF401208146
S1133720E1808281A3809927AA27BB27BA2FA92FDA
S1133730982F8827332744275527522F4427332788
S11337402227FF24002711278701FF24EE242E2996
S11337503F29402B512BBB24CC24DD242A293B298F
S11337604C295D29822B932BA42BB52B840D951DFD
S1133770A61DB71D8383292F3A2F4B2F552722834C
S11337809D014427552721838B2F9927AA27BB27DF
S11337908083E091A801F091A901818185FF02C095
S11337A03092470183E00E943B0987B78F7E87BF31
S11337B084997AC010926C0181E00E949405E09192
S11337C0A801F091A901818185FF0FC087E090E0F5
S11337D090931B0180931A010E947B0420E031E046
S11337E040E050E00E94380503C080E00E94FC0CD9
S11337F0849B5AC080911C01882391F580916C01AF
S1133800882371F511E010936C010E94940580B334
S113381020918502283098F4E0918A02E20FFF2774
S1133820E770F070EE0FFF1FEE0FFF1FEF5CFD4F10
S113383040825182628273822F5F209385021093AB
S11338401C01D093C201C093C10184992DC0992752
S1133850B4E096958795BA95E1F7182F117001C0D9
S113386010E080916C018130F9F410926C010E9497
S1133870940510921C011123B9F48091C101909117
S1133880C201C81BD90B2A9778F48091850288233A
S113389019F08150809385028091A8019091A9012B
S11338A0009711F00E94EC032FBEFF91EF91DF917E
S11338B0CF91BF91AF919F918F917F916F915F91C4
S11338C04F913F912F911F910F91FF90EF90DF90B7
S11338D0CF90BF90AF909F908F907F906F905F90AC
S11338E04F903F902F900F900FBE0F901F90189500
S11338F0ACE2B0E0EEE7FCE10C944B1E222E332E3A
S1133900442E552E662E772E882E992EFE01319642
S1133910A8E01192AA95E9F729823A824B825C8247
S11339206D827E828F829886FE013996B8E011926C
S1133930BA95E9F7A986BA86CB86DC86ED86FE863B
S11339400F87188B89819A81AB81BC8189A79AA73B
S1133950ABA7BCA77C018D018FEF9FEFA0E0B0E087
S1133960E822F9220A231B2389A59AA5ABA5BCA5A5
S11339701D014424552489859A85AB85BC858DA376
S11339809EA3AFA3B8A75C016D018FEF9FEFA0E0EA
S1133990B0E0A822B922CA22DB228DA19EA1AFA148
S11339A0B8A53D0188249924C801B701A601950151
S11339B00E942C1E69A37AA38BA39CA3C801B70100
S11339C0A40193010E942C1E7B018C01C201B10150
S11339D0A60195010E942C1E5B016C01C201B1017C
S11339E0A40193010E942C1E3B014C01EA0CFB1C18
S11339F00C1D1D1D89A19AA1ABA1BCA19D01442749
S1133A0055272E0D3F1D401F511F2A153B054C0500
S1133A105D0540F480E090E0A1E0B0E0680E791E1E
S1133A208A1E9B1ECA01AA27BB27860D971DA81DA7
S1133A30B91D8D8F9E8FAF8FB8A3A901332722277D
S1133A4089A19AA1ABA1BCA1A070B070280F391FA5
S1133A504A1F5B1F298F3A8F4B8F5C8FA98CBA8CBE
S1133A60CB8CDC8CED8CFE8C0F8D18A1FE01719635
S1133A7098E011929A95E9F7ED8AFE8A0F8B188FD8
S1133A802D813E814F8158856DA17EA18FA198A57E
S1133A900E942C1E3B014C012D853E854F85588983
S1133AA069A57AA58BA59CA50E942C1E2D893E890B
S1133AB04F89588D260F371F481F591F260D371D54
S1133AC0481D591D2D8B3E8B4F8B588F6D887E88DA
S1133AD08F88988C2A2D3B2D4C2D5D2D662D772DAE
S1133AE0882D992DE2E1AC960C94671EA0E1B0E01C
S1133AF0ECE7FDE10C944B1E222E332E442E552E62
S1133B00662E772E882E992E002309F466C088E04D
S1133B10FE01319611928A95E9F729833A834B8302
S1133B205C836D837E838F829887E0E2E01B1E16A0
S1133B30CCF52D813E814F815885602F772767FD15
S1133B407095DA01C901062E04C0B695A79597951C
S1133B5087950A94D2F78D879E87AF87B88B04C068
S1133B60220F331F441F551FEA95D2F789819A818A
S1133B70AB81BC8104C0B695A795979587956A9546
S1133B80D2F7282B392B4A2B5B2B29873A874B8773
S1133B905C8729843A844B845C846D847E848F841E
S1133BA098881BC01D861E861F86188A2E2F3327D1
S1133BB027FD3095309521953F4F8D819E81AF81B2
S1133BC0B88504C0B695A795979587952A95D2F799
S1133BD089879A87AB87BC87DCCF222D332D442D70
S1133BE0552D662D772D882D992DE2E160960C9444
S1133BF0671E991B79E004C0991F961708F0961B5D
S1133C00881F7A95C9F780950895AA1BBB1B51E1BB
S1133C1007C0AA1FBB1FA617B70710F0A61BB70B38
S1133C20881F991F5A95A9F780959095BC01CD01DD
S1133C30089597FB092E07260AD077FD04D0E5DF07
S1133C4006D000201AF4709561957F4F0895F6F719
S1133C50909581959F4F0895629FD001739FF001C5
S1133C60829FE00DF11D649FE00DF11D929FF00D08
S1133C70839FF00D749FF00D659FF00D9927729F3F
S1133C80B00DE11DF91F639FB00DE11DF91FBD01CA
S1133C90CF01112408952F923F924F925F926F9219
S1133CA07F928F929F92AF92BF92CF92DF92EF92C8
S1133CB0FF920F931F93CF93DF93CDB7DEB7CA1B49
S1133CC0DB0B0FB6F894DEBF0FBECDBF09942A8874
S1133CD0398848885F846E847D848C849B84AA841C
S1133CE0B984C884DF80EE80FD800C811B81AA81A9
S1133CF0B981CE0FD11D0FB6F894DEBF0FBECDBF74
S1133D00ED010895FB01DC0104C08D91019080193F
S1133D1021F441505040C8F7881B990B0895DC01E9
S1113D2001C06D9341505040E0F70895FFCF6D
S1133D2E0100FFFFFFFF010022FFFFFF40FFFF0125
S1073D3EFF0101017B
S9030000FC
